:100000000209607402F07B107A002202A83BC295BC
:10001000026A4C02A81AEE30E707C3E49FFFE49E91
:02002000FE22BE
:1000230002A856E709F608DFFA8046E709F208DF77
:10003300FA803E88828C83E709F0A3DFFA8032E3FB
:1000430009F608DFFA8078E309F208DFFA8070889E
:10005300828C83E309F0A3DFFA806489828A83E0D8
:10006300A3F608DFFA805889828A83E0A3F208DFC7
:10007300FA804C80D280FA80C680D4806980F28076
:1000830033801080A680EA809A80A880DA80E2809C
:10009300CA803389828A83ECFAE493A3C8C582C8F1
:1000A300CCC583CCF0A3C8C582C8CCC583CCDFE95B
:1000B300DEE7800D89828A83E493A3F608DFF9ECF7
:1000C300FAA9F0EDFB2289828A83ECFAE0A3C8C582
:1000D30082C8CCC583CCF0A3C8C582C8CCC583CCA9
:1000E300DFEADEE880DB89828A83E493A3F208DF18
:1000F300F980CC88F0EF60010E4E60C388F0ED24E8
:1001030002B4040050B9F582EB2402B4040050AFEA
:10011300232345822390007673BB010689828A8359
:10012300E0225002E722BBFE02E32289828A83E4B3
:100133009322BB010CE58229F582E5833AF583E03E
:10014300225006E92582F8E622BBFE06E92582F85D
:10015300E222E58229F582E5833AF583E49322BB23
:10016300010689828A83F0225002F722BBFE01F343
:1001730022F8BB010DE58229F582E5833AF583E890
:10018300F0225006E92582C8F622BBFE05E9258246
:10019300C8F222EF8DF0A4A8F0CF8CF0A428CE8D66
:1001A300F0A42EFE22BC000BBE0029EF8DF084FFCD
:1001B300ADF022E4CCF875F008EF2FFFEE33FEEC40
:1001C30033FCEE9DEC984005FCEE9DFE0FD5F0E967
:1001D300E4CEFD22EDF8F5F0EE8420D21CFEADF066
:1001E30075F008EF2FFFED33FD4007985006D5F06B
:1001F300F222C398FD0FD5F0EA22C2D5EC30E7090D
:10020300B2D5E4C39DFDE49CFCEE30E715B2D5E422
:10021300C39FFFE49EFE1201A8C3E49DFDE49CFC82
:1002230080031201A830D507C3E49FFFE49EFE229A
:10023300C5F0F8A3E028F0C5F0F8E5821582700256
:100243001583E038F022EF2BFFEE3AFEED39FDEC9B
:1002530038FC22C3EF9BFFEE9AFEED99FDEC98FC70
:1002630022E88FF0A4CC8BF0A42CFCE98EF0A42C14
:10027300FC8AF0EDA42CFCEA8EF0A4CDA8F08BF060
:10028300A42DCC3825F0FDE98FF0A42CCD35F0FC5E
:10029300EB8EF0A4FEA9F0EB8FF0A4CFC5F02ECD2A
:1002A30039FEE43CFCEAA42DCE35F0FDE43CFC220F
:1002B30075F008758200EF2FFFEE33FECD33CDCC02
:1002C30033CCC58233C5829BED9AEC99E582984085
:1002D3000CF582EE9BFEED9AFDEC99FC0FD5F0D662
:1002E300E4CEFBE4CDFAE4CCF9A88222B800C1B98C
:1002F3000059BA002DEC8BF084CFCECDFCE5F0CBCA
:10030300F97818EF2FFFEE33FEED33FDEC33FCEB02
:1003130033FB10D703994004EB99FB0FD8E5E4F9BD
:10032300FA227818EF2FFFEE33FEED33FDEC33FCAA
:10033300C933C910D7059BE99A4007EC9BFCE99A9E
:10034300F90FD8E0E4C9FAE4CCFB2275F010EF2FE3
:10035300FFEE33FEED33FDCC33CCC833C810D707E3
:100363009BEC9AE899400AED9BFDEC9AFCE899F81E
:100373000FD5F0DAE4CDFBE4CCFAE4C8F922EF5B65
:10038300FFEE5AFEED59FDEC58FC22EF4BFFEE4A0F
:10039300FEED49FDEC48FC22CFF4CFCEF4CECDF4F4
:1003A300CDCCF4CC22EB9FF5F0EA9E42F0E99D42DE
:1003B300F0EC6480C864809845F022EB9FF5F0EA86
:1003C3009E42F0E99D42F0E89C45F022E8600FEC84
:1003D300C313FCED13FDEE13FEEF13FFD8F122E878
:1003E300600FEFC333FFEE33FEED33FDEC33FCD888
:1003F300F122E0FCA3E0FDA3E0FEA3E0FF22E0F88E
:10040300A3E0F9A3E0FAA3E0FB22ECF0A3EDF0A351
:10041300EEF0A3EFF022A8828583F0D083D082127E
:100423000430120430120430120430E473E493A352
:10043300C583C5F0C583C8C582C8F0A3C583C5F00D
:10044300C583C8C582C822A42582F582E5F0358319
:10045300F58322E0FBA3E0FAA3E0F922EBF0A3EAA1
:10046300F0A3E9F022BB010789828A830204565074
:1004730005E9F80205CDBBFE05E9F80205D6898238
:100483008A830205DFBB010DE58229F582E5833A04
:10049300F5830204565007E92582F80205CDBBFE19
:1004A30007E92582F80205D6E58229F582E5833A34
:1004B300F5830205DFD083D082F8E49370127401D0
:1004C30093700DA3A393F8740193F5828883E47367
:1004D3007402936860EFA3A3A380DF8A838982E415
:1004E30073E709F60870FA8046E709F20870FA80A4
:1004F3003E88828C83E709F0A370FA807EE309F6D5
:100503000870FA8076E309F20870FA806E88828CAC
:1005130083E309F0A370FA806289828A83E0A3F6F9
:100523000870FA805689828A83E0A3F20870FA8001
:100533004A80D280FA80C680D4806580F280318080
:100543001080A680EA809A80A880DA80E280CA8040
:100553003189828A83ECFAE493A3C8C582C8CCC5E7
:1005630083CCF0A3C8C582C8CCC583CC70E9800D09
:1005730089828A83E493A3F60870F9ECFAA9F0ED73
:10058300FB2289828A83ECFAE0A3C8C582C8CCC562
:1005930083CCF0A3C8C582C8CCC583CC70EA80DD08
:1005A30089828A83E493A3F20870F980CE88F0ED00
:1005B3002402B4040050C4F582EB2402B4040050B6
:1005C300BA232345822390053473E6FB08E6FA0831
:1005D300E6F922E2FB08E2FA08E2F922E493FB746B
:1005E3000193FA740293F92242035C00004401CAA6
:1005F3000000000041024E00608001CE00000001B7
:1006030000000002000000040000000800000010C9
:1006130000000020000000400000008000000100F6
:1006230000000200000004000000080000001000A9
:1006330000002000000040000000800000010000D6
:100643000002000000040000000800000010000089
:1006530000200000004000000080000001000000B6
:100663000200000004000000080000001000000069
:100673002000000040000000800000004103530000
:1006830042034D000042034F00004203510000416A
:100693000354024100A40041008A004100A5004127
:1006A30000A6004100A7004100A80041009F0041AF
:1006B30000A0004100A9004100AA004100AB004195
:1006C30000AC004100A1004200AD00004200AF00B9
:1006D300004200B100004200B300004100B50041F8
:1006E30000B6004200B700004100B9004200BA0062
:1006F30000410081004100820041004F0042006D33
:10070300000042006F01184400710000011842000C
:10071300BE00004200C00226420083000041004E9A
:100723000142007501864200770154420079018637
:1007330042007B017242007D013642007F0172411B
:10074300006704420088000042008C0000410085DD
:1007530000410086004100870041006800420069B3
:10076300000042006B00004200C201904200CA0038
:100773000041009E004200A200004100CD0047005E
:10078300EC0000B20101051241000000410001002C
:10079300410002004100033C410004004100050008
:1007A3004100060041000700410008004100093CE8
:1007B30041000A0041000B0042000C000042000E01
:1007C300000042001000004100120042001300002C
:1007D3004200150000410017004201070190420149
:1007E300090000420018000042001A038442001C62
:1007F300010442001E000041010DFF41010EFF41B3
:10080300002000410021004100220041002300425A
:100813000024000042002600004200280028420075
:100823002A000842002C001442002E002642003009
:10083300000842003200144200340028420036000F
:1008430001420038005042003A000042003C0000E0
:1008530042003E000041004000410041004100428F
:100863000041004300410044004100450041035959
:100873000042035A00004E02D401020A1405FFC4C9
:1008830018FFC41FFFC4264702E20103540102D329
:10089300014102D3004E02EA01020A1405FFC43AE1
:1008A300FFC441FFC4484702F80103540102E901B0
:1008B3004102E9004E030001020A1405FFC45CFF74
:1008C300C463FFC46A47030E0103540102FF0141DD
:1008D30002FF004E031601020A1405FFC161FFC4A3
:1008E3007EFFC4854703240103540103150141031B
:1008F30015004103610041033A0041033B004103FA
:100903003C0041033D0141033E0042033F000042DE
:10091300032C000041032E0041034300410339002F
:1009230041032F00410330004103310041033200F2
:1009330041033300410344024103340041033500C2
:1009430041034C03410336004103370041033800A0
:1009530041025000410251004102D20000787FE47D
:10096300F6D8FD7581170209A7028013E493A3F853
:10097300E493A34003F68001F208DFF48029E493B3
:10098300A3F85407240CC8C333C4540F4420C883AA
:100993004004F456800146F6DFE4800B01020408AC
:1009A300102040809005EBE47E019360BCA3FF54CC
:1009B3003F30E509541FFEE493A360010ECF54C0FA
:1009C30025E060A840B8E493A3FAE493A3F8E49382
:1009D300A3C8C582C8CAC583CAF0A3C8C582C8CA8A
:1009E300C583CADFE9DEE780BEC2D5E830E70FB2D0
:1009F300D5E4C39BFBE49AFAE499F9E498F8EC3064
:100A0300E717B2D5120A221202EFE4C39BFBE49A62
:100A1300FAE499F9E498F880031202EF30D50DE473
:100A2300C39FFFE49EFEE49DFDE49CFC22564842E6
:100A3300313541002D2D2D454E002D2D2D564D00C8
:100A4300322E302E3600FEFFFF7FFEFFFF7FFEFFBC
:100A5300FF7FFEFFFF7FFEFFFF7F00C0077C00C01C
:100A6300077C00C0077C00C0077C00C0077C00C077
:100A7300077C00C0077C00C0077C0000007C0000EE
:100A8300007C0000000000F80F0000FFFF00C0FF23
:100A9300FF07F0FFFF0FF8FFFF3FFC01003FFE00E1
:100AA300007C7F0000FC3F0000FC3F0000FC3F0097
:100AB30000FC3F0000FC7E00007CFC00007CFC038B
:100AC300003FF8FFFF1FF0FFFF0FC0FFFF0300FF12
:100AD300FF0000F00700000000000000000000FE1F
:100AE3003F0080FFFF01E0FFFF07F8FFFF1FF80F44
:100AF300C03FFC01003F7E00007E7E0000FC1F0023
:100B030000FC3F0000F83FF001FC3EF001FC7EF0EA
:100B1300017EFCF0817FFCFBE13FFFFFE10FFFFF64
:100B2300E107FFFFE10100000000000000000000FA
:100B330000000000000000000000000000000000B2
:100B430000000000000000000000000000007F0023
:100B5300F000FF00F803FF03F80FFF07F81FFF0F74
:100B6300C03FDF1F003E1F3F007C1F7C00781FF843
:100B7300007C1FF0037E1FE0FF3F1FC0FF1F1F808D
:100B8300FF0F1F00FE070000000000000000000030
:100B930000000000F0000000F0010000F001000080
:100BA300F0030000E003FFFFFF0FFFFFFF3FFFFF26
:100BB300FF7FFFFFFF7FFFFFFF7F000000000000BC
:100BC300000000000000003F0000007F000000FF65
:100BD300010000FF070000FF1F00008F3F00000F10
:100BE300FC00000FF003000FC00FFFFFFF3FFFFFEC
:100BF300FF7FFFFFFF7FFFFFFF3F000F00000000AD
:100C030000000000000000FEFF0080FFFF03E0FF84
:100C1300FF07F8FFFF1FFC01003F7E00003E3E0080
:100C2300007C3E0000781E00007C3E00007EFC003D
:100C3300003FFCFFFF1FF0FFFF0FC0FFFF0300FE9D
:100C4300FF01060000003E000000FE030000FE3F1F
:100C53000000FEFF0300E0FF7F0000FFFF0300EF43
:100C6300FF3F000FFC7F000F807F000F807F000F8E
:100C7300F87F00DFFF3F00FFFF03F0FF7F00FEFF71
:100C83000700FE3F0000FE0300003E0000000000DE
:100C9300000000000000000000000000F8FFFFFF5C
:100CA300FF3FE0FF1FF0FF0FC0FF0FE0FF0300FF58
:100CB30007C0FF0000FF03C0FF0000FF0380FF0029
:100CC30000FF0380FF0000FF0380FF0000FF03809D
:100CD300FF0000FF0380FF0000FE03C0FF0080FF52
:100CE30007E0FF01E0FF0FF0FF07F0FF3FF8FF1FF2
:100CF300F0FFFFFFFF1F0000F00F00000000F00FE8
:100D030000000000F00F00000000F00F00000000E2
:100D1300F00F00000000F00F00000000F00F0000D3
:100D23000000F00F00000000F00F00003000F00F93
:100D330000087800F81F001EF801FE7F001FFC87E3
:100D4300FFFFC13FFECFFFFFF73FFEFFFFFFFF7F28
:100D5300FFFFFFFFFFFFFEFFFFFFFFFFF8FFFFFFA8
:100D6300FF3FFEFFFFFFFF7FFFFFFFFFFFFFFFFFD1
:100D7300FFFFFF7FFEFFFFFFFF7FFCCFFFFFE33F90
:100D8300FC03FFFFC13FF800FC7F001F3800F01F8A
:100D9300001C1000F00F00000000F00F0000000026
:100DA300F00F00000000F00F00000000F00F000043
:100DB3000000F00F00000000F00F00000000F00F33
:100DC30000000000F00F0000000000000070FFFFB3
:100DD3007FFFFF7FFFFF7FFFFF7FFFFF7FFFFF7F20
:100DE300FFFF7FFFFF7FFFFF7FFFFF7FFFFF7FFF90
:100DF300FF7FFFFF7FFFFF7FFFFF7F00007000008B
:100E030000000000E0FFFFF8FFFFFCFFFFFEFFFF15
:100E1300FEFFFFFFFFFFFFFFFFFFFFFFFFFFFFFEE1
:100E2300FFFFFEFFFFFCFFFFFCFFFFF0FFFF0000E3
:100E3300000000000000FFFFFFFF03FFFFFFFF03B1
:100E4300FFFFFFFF03FFFFFFFF03FFFFFFFF03FFA3
:100E5300FFFFFF03FFFFFFFF03FFFFFFFF03FFFF93
:100E6300FFFF03FFFFFFFF03FFFFFFFF03FFFFFF83
:100E7300FF0300C01FFC0300C01FFC0300C01FFCD6
:100E83000300C01FFC0300C01FFC0300C01FFC03C2
:100E930000C01FFC0300C01FFC0300C01FFC0300B5
:100EA300C01FFC0300C01FFC0300C01FFC0300C0E5
:100EB3001FFC0300C01FFC0300C01FFC0301000054
:100EC300FC03070000FC031F0000FC03FF000000FD
:100ED30000FF03000000FF0F000000FF3F000000C1
:100EE300FFFF010000FFFF070000FFFF1F0000FFDF
:100EF300FF7F0000FFFFFF0300FFFFFF0F00FEFF68
:100F0300FF3F00F0FFFFFF00C0FFFFFF03C0FFFF35
:100F1300FF03C0DFFFFF03C01FFFFF03C01FF8FF76
:100F230003C01FC0FF03C01F00FE03C01F00FF0359
:100F3300C01FE0FF03C01FFCFF03C09FFFFF03C0F0
:100F4300FFFFFF03C0FFFFFF03E0FFFFFF03F8FF07
:100F5300FFFF00FFFFFF3F00FFFFFF0F00FFFFFF4B
:100F63000100FFFF7F0000FFFF1F0000FFFF0700DE
:100F730000FFFF000000FF3F000000FF0F00000024
:100F8300FF030000007F000000001F0000000007B7
:100F9300000000000100000000000000000000004D
:100FA30000000000000000000000000000FFFFFF41
:100FB300FF03FFFFFFFF03FFFFFFFF03FFFFFFFF32
:100FC30003FFFFFFFF03FFFFFFFF03FFFFFFFF031E
:100FD300FFFFFFFF03FFFFFFFF03FFFFFFFF03FF12
:100FE300FFFFFF030000FEFF030000FEFF00008081
:100FF300FF7F0000C0FF3F0000E0FF1F0000F0FF85
:10100300070000FCFF030000FEFF010000FFFF00DC
:101013000080FF3F0000C0FF1F0000F0FF0F000033
:10102300F8FF070000FCFF010000FEFF000000FFC7
:10103300FFFFFF03FFFFFFFF03FFFFFFFF03FFFFB1
:10104300FFFF03FFFFFFFF03FFFFFFFF03FFFFFFA1
:10105300FF03FFFFFFFF03FFFFFFFF03FFFFFFFF91
:1010630003FFFFFFFF03FFFFFFFF0300000000007C
:10107300000000000000000000000000000000006D
:10108300000000000000000000000000000000005D
:10109300000000FFFFFFFF03FFFFFFFF03FFFFFF52
:1010A300FF03FFFFFFFF03FFFFFFFF03FFFFFFFF41
:1010B30003FFFFFFFF03FFFFFFFF03FFFFFFFF032D
:1010C300FFFFFFFF03FFFFFFFF03FFFFFFFF03FF21
:1010D300C01FFC03FFC01FFC03FFC01FFC03FFC0B6
:1010E3001FFC03FFC01FFC03FFC01FFC03FFC01F47
:1010F300FC03FFC01FFC03FFC01FFC03FFC01FFC5A
:1011030003FFC01FFC03FFC01FFC03FFC01FFC0342
:10111300FFC01FFC03FFC01FFC03FFC01FFC03FF36
:10112300C01FFC03FFC01FFC03FFC01FFC03FF0025
:1011330000FC03FF0000FC030000000000000000AF
:10114300000000000000000000000000000000009C
:101153000000000000000000000000FFFFFFFF038D
:10116300FFFFFFFF03FFFFFFFF03FFFFFFFF03FF80
:10117300FFFFFF03FFFFFFFF03FFFFFFFF03FFFF70
:10118300FFFF03FFFFFFFF03FFFFFFFF03000080DD
:10119300FF030000E0FF030000FEFF0300C0FFFFAA
:1011A3000300F8FFFF0380FFFFFF03F0FFFFFF01D2
:1011B300FEFFFF3F00FFFFFF0700FFFF7F0000FF71
:1011C300FF0F0000FFFF010000FF3F000000FFFFD3
:1011D300010000FFFF0F0000FFFFFF0000FFFFFF04
:1011E3000700FEFFFF3F00E0FFFFFF0100FFFFFFDF
:1011F3000300F8FFFF0300C0FFFF030000FCFF0331
:101203000000E0FF03000080FF03FFFFFFFF03FF79
:10121300FFFFFF03FFFFFFFF03FFFFFFFF03FFFFCF
:10122300FFFF03FFFFFFFF03FFFFFFFF03FFFFFFBF
:10123300FF03FFFFFFFF03FFFFFFFF0300000000AB
:10124300000000000000000000000000000000009B
:10125300000000C00F000000F03C000000387000E8
:1012630000001860000000ECDF0000000CDB000051
:1012730000049B000000849B000000ECDF000000E2
:101283006CCE0000001860000000187000000070B1
:1012930038000000E01F0000000003000000000011
:1012A30000000000000000F0070808041004100804
:1012B30008F0070000000004080408FC1F040004F1
:1012C300000000000000000C0E14102410441084D1
:1012D300110C0E00000000180C04100411041188F6
:1012E30012700C00000000E000200324042408FC1A
:1012F3001F240000000000981F84100411041188AB
:1013030010701000000000F0078808041104118811
:1013130018700000000000001C0010FC10001300F7
:101323001C001000000000380E4411841084104487
:1013330011380E0000000000078C08441044108888
:1013430008F00700000000000000000C030C030C71
:101353000300000000800080008000800080008087
:101363000080008000000F8410380FC000780784CD
:1013730018780000000410FC1F04110011C0113084
:10138300110C0E04000410FC1F84108000800084E4
:1013930010FC1F0410000000C0FF00300003080011
:1013A30004080004300003C0FF0000000000000038
:1013B300080001080001F8FF03080000080000000E
:1013C300000000000000000038C003D8000418012A
:1013D3000418060418080678F00100000000000055
:1013E300F0C003080004080804080804101406E009
:1013F300E301000000000000000F0000310008C1FD
:1014030001080102F8FF0F080100000000000000BE
:10141300F0FC07080806081006081006300806C086
:101423000706000000000000C0FF0030080308109A
:1014330004081004300803C0070000000000000087
:10144300008007000006F807060078060080070002
:101453000006000000000000E0E103101604080885
:1014630004080C04181606E0E10100000000000067
:1014730000F801300402080204080204300C03C01F
:10148300FF000000000000000000000000003870B2
:1014930000387000000000000000000000000000A1
:1014A3000008000008000008000008000008000011
:1014B300080000080000F803180404E0F903000E14
:1014C30000F0F700080807F0070000000008000418
:1014D300F8FF07080804000804000F04E0110638A9
:1014E300E003080000080004F8FF070808040008E8
:1014F30000000800080804F8FF07080004FFFFFFC6
:1015030001008001008001008081FF8181FF8181D2
:101513009981819981819981819981819181010049
:101523008001008081FF8181FF8101F080013C8087
:10153300010E8081FF8181FF810100800100800114
:101543000080FFFFFFFFFFFF01008001008001001B
:101553008081FF8181FF81019881019881019881B8
:1015630001F88101F0800100800180810180810107
:10157300808181FF8181FF810180810180810180E0
:1015830081010080010080010080FFFFFFFFFFFF5A
:1015930001008001008081FF8181FF8181FF8181C2
:1015A30099818199818199818199818191810100B9
:1015B3008001028001F78081F38181B98181998162
:1015C30081998181DF8101CF800100800100800149
:1015D3000080FFFFFFFFFFFF01008001008001008B
:1015E3008081FF8101FF81019881019881019881A8
:1015F30001908101008001008081FF8181FF8101D1
:101603009881019881019E8101FF8181F38081612D
:1016130080010080010080010080FFFFFFFEFF7F4B
:10162300FEFF7FFEFF7FFCFF3FFCFF3FF8FF1FF83D
:10163300FF1FF0FF0FF0FF0FE0FF07E0FF07C0FF02
:1016430003C0FF0380FF0180FF0100FF0000FF00D4
:10165300007E00007E00003C00003C0000180000FB
:101663001800000000E0FFFFE0FFFFE0FFFFE0C025
:10167300C0E0C0C0E0C0C0E0C0C0E0C0C0E0C0C0C7
:10168300E0C0C0E0C0C0E0C0C0E0C0C0E000C00037
:101693000000000000000000E0FF07E0FF0700C0BB
:1016A3000300000700000600000600000600000714
:1016B300C0FF07E0FF03E0FF01000000000000009F
:1016C3003C000CFF018EFF03CF8307C70007E30035
:1016D30006E30006E30006C70007CF8303FEFF0708
:1016E300FCFF07C0FF07000000000000C0FFFFE091
:1016F300FFFFE0FFFF000000000000000000C0FF4C
:10170300C7E0FFE7E0FFE700000000000000030080
:1017130080E303C0F307E07107E038066038066032
:101723003806601806E09C07C09F03808F01000203
:1017330000000000000000E0FFFFE0FFFFE0FFFF0C
:101743000000070000060000060000060000060077
:101753008007E0FF03E0FF01000000C0FFFFE0FFA0
:10176300FFE0FFFF0060E00060E00060E00060E099
:101773000060E00060E00060E000E0E000E0710095
:10178300C07F00803F00000E000000003C0000FF0F
:1017930001C0FF03C08303E000076000066000068A
:1017A300600006E00006E00007C0E70380FF0100D9
:1017B300FF00000000000000C0FF07E0FF07E0FF9C
:1017C3000700C00300000700000700000700000631
:1017D300000006000006C0FF7FE0FF7FE00006E098
:1017E300000660000600000000FF07C0FF07C0FFFF
:1017F30007E00000E00000600000E00000E00000FF
:10180300C00100E0FF07E0FF07C0FF070000000082
:10181300000008FE008EFF01CFFF03C70107E300AE
:1018230006E30006E30006C30006C70107FEFF0741
:10183300FCFF07F8FF070000000000000000008025
:10184300FF07C0FF07E0FF07E00000600000600043
:1018530000E00000C00000C00700E0FF07E0FF0752
:1018630000000000000000000000FF0080FF01C036
:10187300FF13E03877E038F66038E66038E6E038A2
:10188300F6E03877C0FB13C0FB0100FB000000004B
:1018930000000080C300C0E303C0F307E0700660EC
:1018A3003806603806603806E01C07E09F07C08FE3
:1018B30003808F00000000E0FFFFE0FFFFE0FFFF79
:1018C300E0C0C0E0C0C0E0C0C0E0C0C0E0C0C0E055
:1018D300C0C0E0C0C0E0C0C0E0C0C0E0C0C0E00025
:1018E300C0000000000000000300C0E303E0F307B2
:1018F300E07007603806603806603806601C06E052
:101903009C07C09F03C08F0100020000000000007D
:1019130000FFFF07FFFF07FFFF07C000036000078B
:10192300600006600006600007E00007C0FF038058
:10193300FF0300FF00000000000000800700C08FCD
:1019430001E0DF03E01C0760180660180660180654
:10195300E03806C03007C0FF07E0FF03E0FF0120C7
:101963000000000000000000E0FF07E0FF07E0FFC9
:10197300670080630000C70000C6000066000066C1
:10198300000067E0FFE7E0FF83E0FF0000000000E6
:101993000000007E0080FF01C0FF03E08107E0003C
:1019A30007600006600006600006E00007E001072C
:1019B300C0FF0380FF0100FF00000000000000E003
:1019C300FFFFE0FFFFE0FFFF000000E0FFFFE0FF9D
:1019D300FFE0FFFF00E0C000E0C000E0C000E0C0A7
:1019E30000E0C000E0C000E0C000E0C000E0C000D4
:1019F30000C0000000000000000000E0FF07E0FF5F
:101A030007E0FF03000007000007000007000007CE
:101A1300000000800700C08F01E0CF03E09C076057
:101A23001806601806601806603806C03806C0FF3E
:101A330007E0FF03E0FF01200000000000000000BA
:101A4300E0FF07E0FF07E0FF070080030000070057
:101A53000006000006000006000007E0FF07E0FFA5
:101A630003E0FF00000000000000003C0080FF01D5
:101A7300C0FF03E38107E300077B00067F00066FD7
:101A83000006EE0007E08107C0C30380C301000224
:101A930000000100C08701E0CF03E09C07601C0742
:101AA300601806601806601806E03806C03107E0C3
:101AB300FF07E0FF03E0FF0000000000000000005C
:101AC30000E0FFE7E0FFE7E0FFC7000000000000E1
:101AD30080C301C0E303E0F107E038066038066025
:101AE3003806601806601C07E09F07C08F03808FCD
:101AF3000000000000000007FFF81FFFE00000FFE8
:101B0300FF7BEF001FF98B81C007E0F2100000009C
:101B1300000000000000F8FF1F000000C0FFFFFFEF
:101B2300070000F8FFFFFF3F0000FEFFFFFFFF007D
:101B330080FFFFFFFFFF03C0FFFFFFFFFF07E0FF83
:101B43000700C0FF0FF03F000000F81FF007000080
:101B530000C01FF803000000803FF80100000000F0
:101B63003FFC00000000007E7C00000000007C7C45
:101B730000000000007C7C00000000007C7C000072
:101B83000000007C7C00000000007CFC00000000E2
:101B9300007EF801000000003FF803000000803FD2
:101BA300F007000000C01FF03F000000F81FE0FF37
:101BB3000700C0FF0FC0FFFFFFFFFF0780FFFFFF0E
:101BC300FFFF0300FEFFFFFFFF0000F8FFFFFF3FE3
:101BD3000000C0FFFFFF07000000F0FF1F00000030
:101BE30000000000000000000000000000000000F2
:101BF30000000000000000000000000000000000E2
:101C0300000000000000F0030000000000E00700F7
:101C130000000000E0070000000000C00F0000000B
:101C23000000801F0000000000803F000000000053
:101C3300003F0000000000007E000000000000FCE8
:101C4300000000000000FC010000000000F807F89D
:101C5300FFFFFFFFFF0FF8FFFFFFFFFF3FF8FFFF4F
:101C6300FFFFFF7FF8FFFFFFFFFF7FF8FFFFFFFF8F
:101C7300FF7FF8FFFFFFFFFF7F0000000000000071
:101C83000000000000000000000000000000000051
:101C93000000000000000000000000000000000041
:101CA3000000000000000000000000000000000031
:101CB300000000000000000078000000000000F8B1
:101CC300010000000F00F8070000007F00F81F006C
:101CD3000000FF01F83F000080FF03F8FF000080D1
:101CE300FF07F8FF010080FF0FF8FF030000F81F54
:101CF300F8FE070000C03FF8F80F0000803FF8F03F
:101D03001F0000003FF8E03F0000007EF8C07F00A6
:101D130000007CF880FF0000007CF800FF01000059
:101D23007CF800FE0300007CF800FC0700007CF850
:101D330000F01F00007CF800E03F00007EF800C0C8
:101D43007F00003EF80080FF01003FF80000FF071E
:101D5300C03FF80000FE1FF01FF80000F8FFFF1F50
:101D6300F80000F0FFFF0FF80000E0FFFF07F800A6
:101D73000080FFFF01F8000000FE7F00F800000074
:101D8300F01F000000000000000000E00000000061
:101D93000000FC0000000C0000FF0000007C00803D
:101DA300FF010000FC01C0FF010000FE07E0FF018E
:101DB3000000FE0FF07F000000FE0FF00F00000098
:101DC300F01FF803000000C03FF801000000003FCF
:101DD300FC00000000003EFC00003800007E7C0098
:101DE30000F001007C7C0000F001007C7C0000F02E
:101DF30001007C7C0000F001007C7C0000F003000B
:101E03007CFC0000F803007EF80000F807003FF8B0
:101E13000100FC0F803FF80300FE3FE01FF00F00BE
:101E23007FFFFF1FE03FC03FFFFF0FE0FFFF3FFECD
:101E3300FF07C0FFFF1FFCFF0300FFFF0FF0FF00C2
:101E430000FEFF07C03F0000F8FF0100000000C0D4
:101E53003F000000000080FF000000000080FF033F
:101E63000000000080FF0F0000000080FF1F000043
:101E7300000080EF7F00000000808FFF0100000062
:101E8300800FFE07000000800FFC0F000000800F92
:101E9300F03F000000800FC0FF000000800F00FF34
:101EA300010000800F00FE070000800F00F81F00F4
:101EB30000800F00E03F0000800F00C0FF000080A3
:101EC3000F0000FF0300800F0000FC0F00800F00D5
:101ED30000F01FF8FFFFFFFFFF7FF8FFFFFFFFFF8B
:101EE3007FF8FFFFFFFFFF7FF8FFFFFFFFFF7FF894
:101EF300FFFFFFFFFF7FF8FFFFFFFFFF7F00800F64
:101F03000000000000800F0000000000800F0000B0
:101F1300000000800F0000000000800F00000000A0
:101F230000800F000000000000000000000000E03F
:101F3300000000000000FC003800000000FF00F873
:101F43001F000080FF00F8FF0700C0FF00F8FFFF3D
:101F530003E0FF00F8FFFF1FF03F00FCFFFF1FF04F
:101F63000700F8FFFF1FF80300E0F7FF1FF8010069
:101F7300C00FF81FFC0000800F001F7C0000800FC3
:101F8300001F7C0000001F001F7C0000001F001FBB
:101F93007C0000001F001F7C0000001F001F7C004E
:101FA30000001F001FFC0000801F001FF8010080BD
:101FB3001F001FF80300C00F001FF00700E00F0011
:101FC3001FF00F00F80F001FE07F00FE07001FC087
:101FD300FFFFFF03001F80FFFFFF01001F00FFFF44
:101FE300FF00001F00FCFF7F00001F00F0FF1F0029
:101FF30000000080FF01000000000000000000005E
:102003000000F8FF0F000000C0FFFFFF030000F80F
:10201300FFFFFF1F0000FEFFFFFF7F0000FFFFFF2A
:10202300FFFF01C0FFFF3FF0FF03E07F00FF00FE63
:1020330007E00F00FC01F00FF00700F001C01FF8EC
:102043000300E003801FF80100C007003FF8000011
:10205300C007003E7C0000800F007C7C0000800FE6
:10206300007C7C0000800F007C7C0000800F007CE3
:102073007C0000800F007CFC0000C00F007EFC0091
:1020830000C00F007EF80100E007003FF80300F0F6
:1020930007803FF00F00FC07F03FF07F00FF03FCD9
:1020A3001FE0FFFFFF01FC0FC0FFFFFF00FC0780E5
:1020B300FFFF7F00FC0300FEFF3F00FC0000F8FF72
:1020C3000F001C0000C0FF00000000000000000023
:1020D30000000000000000001F0000000000001FBF
:1020E3000000000000001F0000000000001F0000AF
:1020F300000000001F0000000000001FF8010000A6
:1021030000001FF87F000000001FF8FF0700000019
:102113001FF8FF3F0000001FF8FFFF0100001FF83A
:10212300FFFF0F00001F00FFFF3F00001F00C0FF65
:10213300FF00001F0000FCFF07001F0000C0FF1F7F
:10214300001F000000FE3F001F000000F8FF001FFB
:10215300000000C0FF031F00000000FF071F000076
:102163000000FC1F1F00000000F03F1F00000000E4
:10217300C07F1F0000000000FF1F0000000000FCE4
:102183001F0000000000F81F0000000000E01F0017
:1021930000000000C01F0000000000001F0000003E
:1021A3000000000000E03F0000000000FCFF010011
:1021B300000000FFFF03C03F0080FFFF07F8FF00A0
:1021C300C0FFFF0FFCFF03E0FFFF1FFEFF07F03F11
:1021D300E03FFFFF0FF00700BFFFFF1FF80300FE04
:1021E3003FE03FF80100FC0F803FF80000F80700D4
:1021F3003FFC0000F803007E7C0000F001007C7CC3
:102203000000F001007C7C0000F001007C7C0000F9
:10221300F001007C7C0000F001007CFC0000F8036E
:10222300007EF80000F807003FF80100FC0F803F34
:10223300F80300FE3FE01FF00700BFFFFF1FF03F62
:10224300E03FFFFF0FE0FFFF1FFEFF07C0FFFF0F91
:10225300FCFF0380FFFF07F8FF0000FFFF03E01F01
:102263000000FCFF0000000000E03F000000000051
:1022730000000000000000000000FE0700007000E6
:10228300E0FF3F00007E00F8FFFF00807F00FCFFBF
:10229300FF03C07F00FEFFFF07E07F00FFFFFF0F8C
:1022A300F07F80FF01FC1FF81FC07F00E01FF803D1
:1022B300C01F00C03FF801C00F00003FFC00E00753
:1022C30000007F7C00E00700007E7C00E00300004C
:1022D3007C7C00E00300007C7C00E00300007C7C4D
:1022E30000E00300007CFC00C00300007CF800C099
:1022F3000700003EF801C00700003EF003800F0016
:10230300003FF007001F00801FE01F007E00E00F6A
:10231300C0FF01FC01FC0F80FF7FF8FFFF0700FFF8
:10232300FFFFFFFF0100FCFFFFFFFF0000F0FFFFC7
:10233300FF3F000080FFFFFF07000000E0FF7F007A
:10234300000000000000000000000080FFFF01000B
:10235300000000FEFFFF7F000000C0FFFFFFFF0340
:102363000000F8FFFFFFFF0F0000FEFFFFFFFF3F2E
:102373000000FFFFFFFFFFFF0080FFFFFFFFFFFFE6
:1023830001C0FF3F0000FCFF03E0FF01000080FFEE
:1023930007F03F00000000FC0FF00F00000000F00A
:1023A3000FF80700000000E01FF80300000000C062
:1023B3001FF80100000000801FFC010000000080E6
:1023C3003FFC0000000000003FFC00000000000094
:1023D3003FFC0000000000003FFC00000000000084
:1023E3003FFC0000000000003FFC00000000000074
:1023F3003FFC0100000000803FF801000000008066
:102403001FF80300000000C01FF80700000000E0F1
:102413001FF00F00000000F00FF03F00000000FC71
:102423000FE0FF01000080FF07C0FF3F0000FCFF3B
:102433000380FFFFFFFFFFFF0100FFFFFFFFFFFF21
:102443000000FCFFFFFFFF3F0000F0FFFFFFFF0F57
:102453000000C0FFFFFFFF03000000FEFFFF7F003F
:1024630000000080FFFF01000000000000000000EA
:102473000000000000000000000000000000000059
:102483000000000000000000000000000000000049
:102493000000000000000000000000000000000039
:1024A300000000000000FE00000000000000FC012E
:1024B300000000000000FC01000000000000FC031D
:1024C300000000000000F803000000000000F8070F
:1024D300000000000000F00F000000000000F00FFB
:1024E300000000000000E01F000000000000C03FEB
:1024F300000000000000C07F00000000000080FF1B
:1025030000000000000000FF01000000000000FECA
:1025130003F8FFFFFFFFFFFF07F8FFFFFFFFFFFFCA
:102523000FF8FFFFFFFFFFFF3FF8FFFFFFFFFFFF76
:102533003FF8FFFFFFFFFFFF3FF8FFFFFFFFFFFF36
:102543003FF8FFFFFFFFFFFF3F0000000000000018
:102553000000000000000000000000000000000078
:102563000000000000000000000000000000000068
:102573000000000000000000000000000000000058
:102583000000000000000000000000000000000048
:102593000000000000000000000000000000000038
:1025A30000000000000000000078000000000000B0
:1025B30000F803000000E00000F80F000000E00F47
:1025C30000F81F000000E03F00F87F000000F0FF6C
:1025D30000F8FF000000F0FF01F8FF010000F0FF2A
:1025E30003F8FF070000F0FF07F8FF0F000000FFEC
:1025F30007F8FF1F000000F80FF8FB3F000000F092
:102603000FF8F37F000000E01FF8C3FF000000C0D5
:102613001FF883FF000000801FF803FF0100008004
:102623003FF803FE030000003FF803FC070000002F
:102633003FF803F80F0000003FF803F01F0000000D
:102643003FF803E03F0000003FF803E07F00000095
:102653003FF803C0FF0000003FF80380FF01008044
:102663003FF80300FF0300803FF80300FE0700C0AC
:102673001FF80300FC1F00C01FF80300F83F00E031
:102683001FF80300F0FF00F80FF80300C0FF07FE78
:102693000FF8030080FFFFFF07F8030000FFFFFFB1
:1026A30003F8030000FEFFFF01F8030000F8FFFF3B
:1026B30000F8030000F0FF7F00F8030000C0FF1FD5
:1026C30000F803000000FE0300000000000000000B
:1026D3000000000000000000000080030000000074
:1026E3000000F003000000030000FC030000001FD3
:1026F3000000FE070000007F0080FF07000080FF4E
:1027030000C0FF07000080FF01C0FF07000080FF3B
:1027130003E0FF01000080FF07F03F00000000FE20
:102723000FF00F00000000F00FF80700000000E0BA
:102733001FF80300000000C01FF801000000008024
:102743001FFC0100800700803FFC0000003F0000E9
:102753003FFC0000003F00003FFC0000003F000082
:102763003FFC0000003F00003FFC0000003F000072
:102773003FFC0000007F00003FFC0000007F0000E2
:102783003FFC0100807F00803FF8010080FF00C014
:102793001FF8030080FF01C01FF80300C0FF03F010
:1027A3000FF00700E0FF0FF80FF00F00F0FFFFFF3F
:1027B30007E03F00F8F3FFFF03E0FF01FFE3FFFF44
:1027C30003C0FFFFFFC1FFFF0180FFFFFF81FF7F0A
:1027D3000000FFFFFF00FE3F0000FEFF7F00F80741
:1027E3000000F8FF1F0000000000E0FF0F000000E2
:1027F300000000FF010000000000000000000000D6
:10280300000000FE03000000000000FE0F000000B7
:10281300000000FE1F000000000000FE7F0000001B
:10282300000000FEFF010000000000FEFF030000A7
:10283300000000FEFE0F0000000000FEFC1F000071
:10284300000000FEF07F0000000000FEC0FF00005B
:10285300000000FE80FF0300000000FE00FE0700F2
:10286300000000FE00FC1F00000000FE00F03F001F
:10287300000000FE00E0FF00000000FE0080FF03F8
:10288300000000FE0000FF07000000FE0000FC1F28
:10289300000000FE0000F83F000000FE0000E0FF23
:1028A300000000FE000080FF010000FE000000FFAA
:1028B300070000FE000000FC0FF8FFFFFFFFFFFF13
:1028C3003FF8FFFFFFFFFFFF3FF8FFFFFFFFFFFFA3
:1028D3003FF8FFFFFFFFFFFF3FF8FFFFFFFFFFFF93
:1028E3003FF8FFFFFFFFFFFF3FF8FFFFFFFFFFFF83
:1028F3003F0000FE00000000000000FE000000009A
:10290300000000FE00000000000000FE00000000C8
:10291300000000FE00000000000000FE00000000B8
:10292300000000FE00000000000000FE00000000A8
:102933000000000000000000000080030000000011
:102943000000F003C00100000000FC03C07F000092
:102953000000FF07C0FF1F000080FF07C0FFFF0745
:1029630000C0FF07C0FFFFFF01E0FF07E0FFFFFF1D
:102973000FE0FF01E0FFFFFF0FF03F00C0FFFFFF8D
:102983000FF00F0080FFFFFF0FF80700007FE0FF4D
:102993000FF8030000FE00F80FF8010000FC00E050
:1029A3000FFC010000FC00E00FFC000000F800E059
:1029B3000FFC000000F801E00FFC000000F801E04C
:1029C3000FFC000000F801E00FFC000000F801E03C
:1029D3000FFC000000F801E00FFC000000F801E02C
:1029E3000FFC010000FC01E00FF8010000FC01E016
:1029F3000FF8030000FE01E00FF8070000FE00E0FF
:102A03000FF00F0000FF00E00FF01F00807F00E0D9
:102A13000FE07F00E07F00E00FC0FF03FC3F00E01A
:102A23000FC0FFFFFF1F00E00F80FFFFFF1F00E04D
:102A33000F00FEFFFF0F00E00F00FCFFFF0300E0AD
:102A43000F00F0FFFF0100E00F00C0FF7F00000058
:102A5300000000FE0F000000000000000000000066
:102A63000000000000000000000000C0FFFF0000A5
:102A7300000000FEFFFF3F000000C0FFFFFFFF015B
:102A83000000F8FFFFFFFF070000FCFFFFFFFF1F31
:102A93000000FFFFFFFFFF7F0080FFFFFF03FEFF3C
:102AA30000C0FF03FC0FC0FF01E07F00E01F00FF39
:102AB30003E01F00801F00FC07F00F00003F00F041
:102AC30007F00700007E00E00FF80300007E00C05F
:102AD3001FF8010000FC00801FF8010000FC0080CB
:102AE3001FFC000000F800803FFC000000F801001C
:102AF3003FFC000000F801003FFC000000F801006B
:102B03003FFC000000F801003FFC000000F801005A
:102B13003FFC010000FC01003FFC010000FC0180C0
:102B23003FF8030000FC00803FF8030000FE00C0F4
:102B33001FF8070000FF00E01FF01F00807F00F870
:102B43001FF03F00E07F00FE0FE0FF01FC3F80FF2E
:102B530007C0FFFFFF1F80FF0780FFFFFF0F80FFFE
:102B63000300FFFFFF0780FF0100FEFFFF03007F5D
:102B73000000F8FFFF01003F0000E0FF3F000007F7
:102B8300000000FE0700000000000000000000003D
:102B9300000000000000000000000000000000E052
:102BA3000F000000000000E00F000000000000E044
:102BB3000F000000000000E00F000000000000E034
:102BC3000F000000000000E00F000000000000E024
:102BD3000F000000000000E00FF80100000000E01B
:102BE3000FF83F00000000E00FF8FF03000000E0D3
:102BF3000FF8FF3F000000E00FF8FFFF010000E0C7
:102C03000FF8FFFF070000E00FF8FFFF3F0000E0B1
:102C13000F00FFFFFF0000E00F00C0FFFF0300E015
:102C23000F0000FCFF0F00E00F0000C0FF3F00E0BB
:102C33000F000000FEFF00E00F000000F0FF03E0C4
:102C43000F000000C0FF07E00F00000000FE1FE0C0
:102C53000F00000000F83FE00F00000000E07FE0FD
:102C63000F0000000080FFE10F0000000000FEE302
:102C73000F0000000000F8E70F0000000000F0EF75
:102C83000F0000000000C0FF0F000000000080FFE5
:102C93000F000000000000FE0F000000000000FC19
:102CA3000F000000000000F00F000000000000E033
:102CB3000F000000000000C00F0000000000000033
:102CC3000000000000000000000080FF0100000081
:102CD3000000F0FF0F0000000000FCFF3F00F807BA
:102CE3000000FEFF7F00FE3F0000FFFFFF80FFFFAD
:102CF3000080FFFFFFC1FFFF01C0FFFFFFE3FFFFF6
:102D030003E0FF00FFE3FFFF07F03F00FCF7FFFFD7
:102D130007F00F00F0F70FFC0FF80700E0FF03F0D8
:102D23000FF80300C0FF01E01FF8030080FF00C09D
:102D33001FFC0100807F00803FFC0100807F00803A
:102D43003FFC0000003F00003FFC0000003F00008C
:102D53003FFC0000003F00003FFC0000003F00007C
:102D63003FFC0000003F00003FFC0000003F00006C
:102D73003FFC0100807F00803FFC0100807F0080DA
:102D83001FF80100C0FF00C01FF80300C0FF01E0EF
:102D93001FF80700E0FF03F00FF00F00F0FF0FFC38
:102DA3000FF01F00FCF3FFFF07E0FF00FFE3FFFF4F
:102DB30007C0FFFFFFE1FFFF0380FFFFFFC1FFFF2E
:102DC3000100FFFFFF80FF7F0000FEFF7F00FE3F4B
:102DD3000000FCFF1F00F8070000F0FF0F000000D9
:102DE300000080FF01000000000000000000000060
:102DF30000000000000000000000000000E0FF00F1
:102E03000000E00000FCFF070000FC0080FFFF1F44
:102E13000000FF00C0FFFF7F0080FF01E0FFFFFF16
:102E230000C0FF01F0FFFFFF01E0FF01F8FFFFFF1C
:102E330003F0FF01FC3FC0FF07F07F00FE0700FE29
:102E43000FF80F00FE0100F80FF80700FF0000F075
:102E53001FF803007F0000E01FFC01007F0000C09B
:102E63001FFC01803F0000803FFC00803F0000808A
:102E73003FFC00801F0000003FFC00801F0000009B
:102E83003FFC00801F0000003FFC00801F0000008B
:102E93003FFC00801F0000003FFC01001F000000FA
:102EA3003FF801003F0000801FF803003F0000804F
:102EB3001FF803003E0000C01FF007007E0000C0A3
:102EC3000FE00F00FC0000E00FE03F00F80100F806
:102ED30007C0FF00F00700FC0780FF07E03F80FF0B
:102EE3000300FFFFC1FFFFFF0100FEFFFFFFFFFF26
:102EF3000000F8FFFFFFFF3F0000E0FFFFFFFF1FA1
:102F0300000080FFFFFFFF07000000FCFFFFFF0042
:102F130000000000FFFF07000000000000000000A9
:102F23000000F80300FE0300070600030680030603
:102F3300FF070CFF070C00060C200C08500C182090
:102F43000C18001810FF1F30FF1F30003020003016
:102F5300600030600070600060C00060F000E0FC62
:102F630000C0C600C0C300C0C10080FFFF81FF8353
:102F730081C18381C18381C18381C18381C18381F4
:102F8300C18381C3E381C7F3C3CC1F66D80F3CF071
:102F93000718E10780E20740E40E80721C0039380D
:102FA300001CF0FF0FE0FF07C08103C08103C08155
:102FB30003C08103C08103C08103C0FF03C0FF03BB
:102FC300003E007F806380C380C180C180C180C117
:102FD30080C180C180C180C180C180C180C180C1E6
:102FE30080C180C180C180C180C180C180C180C1D6
:102FF30080C180C180C180C180C180C180C1C0C186
:10300300FFC07FC000C000C000C000600070FF3F71
:10301300FF1FFF1F00FFFF0700F8070030FC0060E1
:10302300FC00C084008085000085000087000086C6
:103033000000FE0000FE000006000006000006007F
:10304300000600000E00000E00000E00000E00003F
:10305300060000060000060000060000FE0000FE59
:1030630000008600008700008500808500C0840082
:1030730060FC0030FC00F807FFFF07FF0F000000B3
:1030830000000000F0FF1F0080FFFFFF03E0FFFFD1
:10309300FF0FF80700C03FFC0000007E3E00000069
:1030A300F81E000000F01E000000F01E000000F0FB
:1030B3003E000000F8FC0000007EF80700C03FE07F
:1030C300FFFFFF0F80FFFFFF0300F0FF1F00000063
:1030D30000000000000000000000000000000000ED
:1030E30000000000003C000000007800000000F039
:1030F30000000000E001000000C007000000800F96
:10310300FCFFFFFF3FFCFFFFFFFFFCFFFFFFFF0094
:1031130000000000000000000000000000000000AC
:10312300000000000000000000000000003C000060
:10313300E001FC0100E00FFC0700E01FFC0F0000B2
:103143003EBC3F00007C3C7E0000F83CF80100F0F0
:103153003CF00300F03CC00F00F03C801F00F83C43
:10316300007E007C3C00FC037E3C00F0FF3F3C0003
:10317300C0FF0F3C0000FE01000000000000000043
:1031830000000007008003E00700800FF8070080BD
:103193003FFC0100007E7C000000783E000000F050
:1031A3001E00F000F01E00F000F01E00F001F03EE3
:1031B30000F801787C00FC077EF801BFFF3FF0FFB9
:1031C3001FFF0FC0FF0FFC0300FF01000000000002
:1031D3000000000000000000F800000000F80700F5
:1031E3000000F83F000000F8FF00000078FC070033
:1031F3000078E03F00007880FF00007800FC0700C3
:103203007800F01F00780080FFFCFFFFFFFFFCFF4A
:10321300FFFFFFFCFFFFFFFF0078000000007800C6
:103223000000007800000000000000000007F80024
:1032330000E007F8FF01F807F8FF3FFC00F0FF3F4D
:103243007C00E0013E3E00C0033C1E00C0033C1E68
:1032530000C0033C1E00C0033C3E00E0033C7C0076
:10326300F0013CF803FC003CF0FF7F003CC0FF3F53
:10327300003C00FE0700000000000000000000000A
:103283000000F8FF0F0080FFFFFF01E0FFFFFF0FCB
:10329300F8037CC01F7C00F0003E3C00E001781E78
:1032A30000C003F01E00C003F01E00C003F03E0088
:1032B300E003F07C00F001F8F801FC017EF0FF7FF1
:1032C300803FC0FF3F801F00FE0780030000000017
:1032D300000000000000000000003C000000003C73
:1032E300000000003CFC0000003CFC3F00003CFCF4
:1032F300FF03003C00FF3F003C00C0FF003C000018
:10330300FC073C0000C01F3C0000007E3C000000A6
:10331300F83D000000C03F000000003F0000000037
:103323003C0000000000000000000000FF0100005E
:10333300E0FF07FC03F0FF1FFF1FF801BFFF3F7C07
:1033430000FC077E3E00F801F81E00F000F01E00AE
:10335300F000F01E00F000F03E00F801F87C00FCE5
:10336300077EF801BFFF3FF0FF1FFF1FE0FF07FCD1
:103373000300FF0100000000000000000000000047
:103383008003C0FF00F003F8FF0FF803FCFF1FFCEE
:10339300007F803F3E001F007C1E800F00F81E80D0
:1033A3000700F01E800700F01E800700F03C000FAE
:1033B3000078F8001E007CF0077C003FE0FFFFFF71
:1033C3000F00FFFFFF0300E0FF3F000000000000CD
:1033D300000000000000000000000000F8FF07F8F4
:1033E300FF070000000000000000000000000000D4
:1033F30000F8FF07F8FF0700F003007C00801F00C0
:10340300F00300F8FF07F8FF0700000000000000CA
:103413000000000000000000F8FF07F8FF070000AD
:103423000000000000000000000000000000000693
:10343300000006000006F8FF07F8FF07000006007B
:103443000006000006000000000000F8FF07F8FF78
:1034530007180006180006380007708003E0FF0114
:10346300807F00000000180000F80100E03F00002A
:10347300FF0300C30700FF03E03F00F8010018004B
:103483000000000000000000000600000600000627
:10349300F8FF07F8FF07000006000006000006001B
:1034A3000000180000F80100E03F0000FF0300C324
:1034B3000700FF03E03F00F80100180000000000D0
:1034C300000000C0FF00F0FF0338000718000618D3
:1034D3000006380007F0FF03C0FF000000000000F3
:1034E30000E0FF07F0FF0738000018000018000095
:1034F300380000F0FF07E0FF0700000000000000B5
:103503000006000006000006F8FF07F8FF070000AA
:1035130006000006000006000000000000F8FF0798
:10352300F8FF07000606000606000606000E070061
:10353300FC0300F801000000000000E0FF07F0FFBB
:1035430007380000180000180000380000F0FF07DB
:10355300E0FF070000000000000000060000060076
:103563000006F8FF07F8FF0700000600000600004A
:103573000600000000000000000018000018000012
:103583000000000000000000000000000000000038
:103593000000000000FCFF3FFCFF3F001830001854
:1035A30030001830001830001E30803F38E0311CE6
:1035B30078E01F1CC007040000000000000000FCAE
:1035C300FF3FFCFF3F0030000030000030000030C0
:1035D30000003000003000003000FCFF3FFCFF3FE4
:1035E300000000000000000000C0FF3FF0FF3F7834
:1035F30000003800001C00001800001C00001C0024
:1036030000380000F80000F0FF3FC0FF3F0000005B
:103613000000F81FFE7F07E003C003C007E0FE7F42
:10362300F81F000000000000000C00180030FFFF2E
:10363300FFFF000000000000000003180F781BE0EC
:1036430073C0E3C0C3E1837F033E00000000183072
:103653001E7007E003C303C387E7FE7E7C3C0000C4
:103663007000F001B003300E303C30F0FFFFFFFF7D
:10367300300030000000180F1EFF07F303C603C617
:1036830007C7FEC3F80100000000F80FFE3F076301
:1036930003C603C607E7FE73F8310000000000C04D
:1036A30000C00FC0FFC0F0C700DE00F800C000007C
:1036B30000007C3CFE7F87E703C303C387E7FE7FED
:1036C3007C3C000000008C1FCE7FE7E063C063C03A
:1036D300C6E0FC7FF01F0000FEFF070000FEFF0FA7
:1036E300000006201C000006203C0000062070009D
:1036F300000620E000000620C7010006A08D03009D
:1037030006A008070006A00DFEFF062007FCFF0623
:10371300200024C0FEFF0024C0FEFF0324C00000DD
:103723000624C000000624C000000624C0000006D2
:1037330024C0FEFF0724C0FEFF0124C0062000248E
:10374300C0062000FCFF062000FEFF062000070045
:1037530006208003000620C001000620E0000006CA
:1037630020700000062038000006201C0000FEFF29
:103773000F0000FEFF070000070000000007000025
:10378300000007000000001F00000000FF00000011
:1037930000F900000000FD000000001F0000000011
:1037A3000F4000003F07E00180FF07E007C0F30779
:1037B300801FC0E107007EC0E10F00FCC1FF7F0056
:1037C300F0837FF900C00F1EFDC0073F003FE01FDD
:1037D300FC000FF01FF003077838C00F077838009C
:1037E3003F07F83C007C07F01F00780FC00F000074
:1037F3003F00000000FD00000000F900000000FF92
:10380300000000001F000000000F00000000070080
:10381300000000070000000000E0FF000000F8FFC8
:10382300010000FCFF0C0000FE711E00803F000F32
:1038330000C00F006400C00300F000E0010070004E
:10384300F0011E2001F0001E800378001EC00378E3
:10385300001EC00378001E000078001E00037800DD
:10386300FEBF073800FEBF077800FEBF077800FEE3
:103873003F0378000000007800000000780000C0DB
:1038830003F00000C003F00000E003E00100E001EA
:10389300E00300F000C007007C00801F007E0000F2
:1038A300FFC03F0000FEFF0F0000F8FF070000E02D
:1038B300FF010000807F0000000000000000000006
:1038C30000000000000000000000C00F000000E046
:1038D3001F000000601800000020100000006018A6
:1038E300000000E01F00C0FF800F00FEFF0F0080FC
:1038F300FFFF7F00E0FFFFFF01F00700F003F80088
:1039030000C0073C0000000F1E0000000E0E000068
:10391300000C0E0000001C0E000000180E0000003A
:10392300180E000000180C0000000C1C0000000C16
:1039330038000000067000008003E00000E003C0D0
:103943000380FF03000380FF03000000000000006A
:103953000000000000000000000000000000000064
:103963000000000000000000000000000000007FD5
:10397300000C00E0FF071C00F0FF0F780038000E7A
:10398300E000180018C0031800188007F8000F00A3
:103993001EF0FF0F003CC0FF0300F000000000E03A
:1039A300010000008007000000000F000000003C41
:1039B300000000007800000007E00100F8FFC003EA
:1039C30000FCFF010F001EC0031E00060003780069
:1039D300060002F0001E8003C003FCFF038007F80B
:1039E300FF01001E000F00001C000000000000008B
:1039F30000000000000000000000FC0F000000FFBA
:103A03000F000080071C0000C0031C0000C0013829
:103A130000FFFF017000FFFF01600001C001E00033
:103A2300018201C000018703C001810D038001C130
:103A330018078003810D06000301070E000701022A
:103A43001C000601001C000EFFFF3F000CFFFF3FA0
:103A53000018000070001800006000380000C0006B
:103A6300300000C0007000008001F000008003FC03
:103A7300000000038E0000000787000000C6C3009B
:103A83000000EEC00000007C600000003C3000003D
:103A930000381C000000F8070700000000070000C2
:103AA300000007000000001F00000000FF000000EE
:103AB30000F900000000FD000000001F00000000EE
:103AC3000F4000003F07E00180FF07E007C0F30756
:103AD300801FC0E107007EC0E10F00FCC1FF7F0033
:103AE300F0837FF900C00F1EFDC0073F003FE01FBA
:103AF300FC000FF01FF003077838C00F0778380079
:103B03003F07F83C007C07F01F00780FC00F000050
:103B13003F00000000FD00000000F900000000FF6E
:103B2300000000001F000000000F0000000007005D
:103B330000000007000000000E000000000E00005F
:103B430000000E000000001E000000001E00000028
:103B5300003E00000000F600000000E60100000047
:103B6300F6000000003E000000001E0000001F1EC3
:103B7300C001803F0EC003C07F0EC007C0710E009E
:103B83001FC0601E003EC0701E00F8C0713E00F0F2
:103B9300C13FF600E0833FE601800F0EF681071F69
:103BA300007EC01F7C003EE01FF8001EF03CE003D7
:103BB3000E7038C0070E7038001F0EF03C003E0E2A
:103BC300E01F003C1EC00F00101E800700003E00D7
:103BD300000000F600000000E601000000F600000F
:103BE30000003E000000001E000000001E00000058
:103BF300000E000000000E000000000600000000A0
:103C0300000000000000F077060000F8770F0000C6
:103C1300FE770700003F00E200801F00F000C007AE
:103C2300007002E003000007F001008007F0000EBF
:103C3300000378000E00187C000E003C3C000E00D0
:103C43003C1E000E00181E000E00000E000E0000A9
:103C53000E000E00000E000E00000E000E00300FCE
:103C630000FEFF780F00FEFF780F00FEFF780E00C6
:103C73000000300E000000000E000000000E0000E7
:103C830000001E000000783E0000003C3C000000E5
:103C93003E780000001EF80000000FF00100800FC6
:103CA300E00300C007C00F00E003801F00F801001D
:103CB3007F00FC0000FCFF7F0000F8FF1F0000E016
:103CC300FF0F0000007C0000FFFFFFFFFF0F00005D
:103CD30000F003000000C001000000C0010000006C
:103CE30080010000008001000000800100000080CE
:103CF300010000008001E0FF018001F8FF0780015F
:103D0300FCFF0F80013C001E80010E001C80010E91
:103D1300001C80010E001C80013C001F8001FCFF81
:103D23000F8001F0FF078001C0FF00800100000049
:103D33008001FCFF1F8001FEFF1F8001FEFF1F802B
:103D430001003E008001007C00800100FF01800132
:103D5300C0CF078001F0830F8001FC001E80013E6D
:103D6300001C80010E001080010000008001000093
:103D730000800100000080010000008003000000BB
:103D83008003000000C00F000000F0FFFFFFFFFFF3
:103D9300FFFFFFFFFFFF7F00FEFFFF0F00F0FFFFAE
:103DA3000300C0FFFF010080FFFF000000FF7F0052
:103DB3000000FC3F000000FC1F000000F80F0000A3
:103DC30000F00F000000F007000000E00780000093
:103DD300E007800300C003800F00C003803F00C0E2
:103DE30003807F00800380FF01800380FF0780033F
:103DF30080FF0F800380FF0F800380FF0380038019
:103E0300FF018003807F00C003803F00C003800F59
:103E130000C007800700C007800100E00F8000009A
:103E2300E00F000000F01F000000F01F000000F88A
:103E33003F000000FC7F000000FEFF000000FFFFCA
:103E4300030080FFFF0700E0FFFF1F00F8FFFFFFF5
:103E530001FFFFFFFFFFFFFFFFFFE7FFFFFF3F0044
:103E6300F8FFFF0700E0FFFF030080FFFF000000F3
:103E7300FF7F000000FE3F000000FC1F000000F871
:103E83000F000000F00F000000E007000000E00753
:103E9300000000C003008001C00300C001800300D4
:103EA300F001800100F801800100FE01800100FFA4
:103EB300018001C0FF018001F0FF010001F8FF0153
:103EC3000001F0FF018001E0FF01800180FF01801C
:103ED3000100FE01800300F801800300F001C0032C
:103EE30000C001C007000001E007000000E00F0070
:103EF3000000F01F000000F03F000000F83F00004A
:103F030000FCFF000000FEFF010080FFFF0300C074
:103F1300FFFF0F00F0FFFF7F00FEFFFFFFFFFFFF2C
:103F2300FFFFFFFFFF010000008001000000800190
:103F3300000000800100000080010000008001F00B
:103F4300FF0F8001F0FF0F8001F0FF0F8001F0FFF2
:103F53000F800170380E800170380E800170380EAA
:103F6300800170380E800170380E800170380E8029
:103F73000170380E800170380E800130000080011E
:103F830000000080010000008001F0FF0F8001F0BD
:103F9300FF0F8001F0FF0F800100E00F800100F0B0
:103FA30007800100FC018001007E008001803F004A
:103FB3008001E00F008001F007008001F0FF0F8017
:103FC30001F0FF0F8001F0FF0F800100000080016E
:103FD300000000800100000080010000008001005B
:103FE300000080FFFFFFFFFFFFFFFFFFFF01000057
:103FF300008001000000800100000080010000003B
:1040030080010000008001F8FF1F8001F8FF1F807E
:1040130001F8FF1F8001F0FF1F8001001C1E8001BB
:10402300001C1E8001001C1E8001001C1E8001005C
:104033003C1E800100FC0F800100F80F800100F896
:1040430007800100F0038001000000800100000CE4
:10405300800100001E800100001E800100001E8000
:104063000100001E8001F0FF1F8001F8FF1F800187
:10407300F8FF1F8001F8FF1F800100001E80010070
:10408300001E800100001E800100001E8001000050
:104093001E8001000000800100000080010000007C
:1040A3008001000000800100000080FFFFFFFFFF90
:1040B300FFFFFFFFFF0100000080010000008001FF
:1040C300000000800100000080010000008001F872
:1040D300FF1F8001F8FF1F8001F8FF1F8001F8FF19
:1040E3001F800178381E800178381E800178381EC1
:1040F300800178381E800178381E800178381E8050
:104103000178381E800178381E800170000C800110
:1041130000000080010001008001C0C1038001E0B4
:10412300E3078001F0F30F8001F0F80F8001787846
:104133001E800178781E800178381E8001783C1E2D
:104143008001783C1F8001F09F0F8001F09F0F805A
:1041530001E08F078001C00701800100000080019A
:1041630000000080010000008001000000800100C9
:10417300000080FFFFFFFFFFFFFFFFFFFF010000C5
:1041830000800100000080010000008001000000A9
:1041930080010000008001F0FF0F8001F0FF0F801D
:1041A30001F0FF0F800100380E800100380E8001FE
:1041B30000380E800100380E800100380E800100A7
:1041C300380E800100380E800100000E80010000CF
:1041D3000080010000008001F0FF0F8001F0FF0F5D
:1041E3008001F0FF0F8001F0FF0F8001001C0E80A3
:1041F30001001C0E8001001C0E8001001E0E8001B8
:10420300003F0E8001C03F0E8001E0FF0F8001F0F0
:10421300FB0F8001F0F007800170C00180011000E6
:104223000080010000008001000000800100000008
:104233008001000000800100000080FFFFFFFFFFFE
:10424300000000000000000000000000000000006B
:104253000000000000000000F80003000000F8FF69
:10426300030000000CFE3F0000000C80FF00000074
:104273000C80C30300000C80030700000C80010CBA
:1042830000000480F91800000680FD31000006805C
:104293008D61000006C08DE1000006C0D9C1030096
:1042A30006C0F980FF7F07C00180FF77FFC0008051
:1042B3000360F8FF0180036000FC0F80036000E0EF
:1042C3003F800360000030800360000030800360A3
:1042D30000403080036000E01F80036000FE0F8019
:1042E3000360FCFF018003607FC00080036007C0A0
:1042F3000180FF7F06C00180FF7F068001C00300AD
:10430300068001E000000680017000000680013095
:1043130000000480011800000C80030E00000C0054
:10432300030700000C00E30100000C80FF00000005
:104333008CFF1F000000F83F03000000780000001E
:10434300000000000000000000000000000000006A
:10435300000000000000000000000000000000005A
:10436300000000000000000000FC0300000080FFCC
:1043730007000000C0070E000000E0010C00000071
:1043830030000C00000018001C0000001C001C0082
:1043930000001C003800FCFF3F003800FCFF3F001A
:1043A30038000C00300030000C00700070000C006E
:1043B300700060000C80600060000CC06100600051
:1043C3000C60C300C0000C30C600C0000C60C70006
:1043D300C0000CC0C300C0000C808101C0010C00F0
:1043E300800380010C00800380030C0000030003A2
:1043F300FCFFFF030003FCFFFF07000700000007AB
:10440300000600000006000600000006000E000083
:10441300000E000E0000000C000C0000000C000C4D
:104423000000001C001C0000001800180000001809
:10443300001800000018001800000030803300004E
:104443000070F03F00000060F83F000000601E3085
:10445300000000C00F30000000C0033C000000C09B
:10446300011F00000080E30700000080FF0100003F
:1044730000001F000000000000000000000000001A
:104483000000FF7FFF7F036003600360036003603E
:1044930007700E38FC1FF007000000000000FF7FCC
:1044A300FF7F800180018001800180018001800104
:1044B300FF7FFF7F000000000000FF7FFF7F007889
:1044C300803FF8033F0003003F00F803803F00787C
:1044D300FF7FFF7F0000040108013001C0050205D2
:1044E300FF47002FC000200118060C040400000041
:1044F30002003C00C03F4022FE3F8201020E221216
:104503002202FE7F2202420202000000001000107D
:10451300001C801FE013F8003C003800E00000138B
:10452300001C00100010000004100410FC1F041CE9
:10453300841FE003FC003800E0000407041CFC1F98
:10454300FC1F041004100410FC1FFC1F04110411B1
:10455300041104110411841A8C1EF80C700000005D
:1045630004000C003C00C40140074018401C401FDD
:10457300E403FC001C000400040000000410041009
:10458300FC1FFC1F04110411041104110411C417AE
:1045930004100C1810080000000004100410FC1F85
:1045A300FC1F041104118011C011F011381B1C0EE3
:1045B300040E040000000008001000100410041092
:1045C300FC1FFC1F04100410001000100008000062
:1045D30004100410FC1FFC1F04100410041004102A
:1045E3000C100808180CF007E00300000410041076
:1045F300FC1FFC1F84108410800080008410841032
:10460300FC1FFC1F04100410000000000408040831
:104613000408FC0FFC1FFC1F04000400040000003E
:1046230000000000000018009C03941F841D041167
:104633000411041104118C11FC11F8107010000006
:1046430004100410FC1FFC1F0411041100110011BD
:104653000011C01700100018000800000410041017
:10466300FC1F0418040C00078003C001E000301095
:104673001810FC1F0010001004100410FC1F041C71
:10468300841FE003FC003800E0000407041CFC1F47
:10469300FC1F0410FFFFFFFF03FFFFFFFF3F0300AB
:1046A3000000FC03021000E003073800C0830D6C18
:1046B30000D0C318C600D8830D6C00DC0307380094
:1046C300DC03021000CC03000000CE03000000C690
:1046D30083FFFF01C783FFFF01C783018081C3837A
:1046E300018081C383018081C1830180C1C18301B2
:1046F30080C1C1830180C1C1830180E1C083018086
:10470300E1C0830180E1C0830180E1C0830180E1D6
:10471300C0830180E1C0830180C1C1830180C1C125
:10472300830180C1C1830180C1C183018081C183B1
:10473300FFFF81C383FFFF01C303000000C3030026
:104743000000C703021000C703073800C6830D6CBF
:1047530000CEC318C600CC830D6C00DC0307380001
:10476300D803021000D803000000D0FFFFFFFFC3EF
:10477300FFFFFFFFDF03000000DE03000000F00384
:10478300000000E0FFFFFF7FC0FFFFFFFFC003004B
:1047930000C0C0030000C0C0030000C0C0FFFFFF93
:1047A300FFC0FFFFFFFFC0000000C0FF00000000CC
:1047B30000001F3E00000000000000801F7E00007C
:1047C3000000000000801F7E000000000000008049
:1047D3001F7E0000000000000080FF7F000000003B
:1047E30000000080FF7F0000000000000080FF7FCA
:1047F3000000000000000080FF7F000000000000B8
:104803000080FF7F0000000000000080FF7F0000A9
:10481300000000000080FF7F000000000000008017
:10482300FF7F0000000000000080FF7F0000000009
:1048330000000080FF7F0000000000000080FF7F79
:104843000000000000000080FF7F00000000000067
:104853000000FE370000000000000000FE0700001B
:10486300000000000000FE03000000000000000044
:10487300FE030000000000000000FE030000000033
:1048830000800F00FF030000000000E03F00FF0175
:104893000000000000F07F00FF010000000000F0B6
:1048A300FF80FF010000000000F0FFFBFF0000009D
:1048B300000000FCF8FFFF000000000000FCF8FF10
:1048C3007F0000000000007CE0FF3F0000000000CC
:1048D300007EE0FFBF0100000000007EC0EF9F03E9
:1048E3001E000000003F00F09F077F000000803F94
:1048F30000F08FCF7F000000803F00F88FFFFF00A4
:104903000000801F00FE07FFFF000000801F00FF64
:1049130003FEFF010000C01F80FF03FCF90300003A
:10492300C00F80FF01FCF0030000C00FC0FF0100B7
:10493300F00300C0F903E0FF0000E00700E0FF031D
:10494300F87F0000C00700F8FF0FFF3F0000C0071B
:1049530000FEFFFFFF1F0000C00F00FFFFFFFF1F50
:104963000000800FC07F9FFFFF0F0000800FE0FF5C
:1049730007FFFF030000001FF8CF03FEFF00000046
:10498300001FFCC703FE7F000000001FFCE103FFC4
:104993001F000000003FFCE087FF01000000003E15
:1049A3003CE0FF7F00000000003E00C0FF7F0000EE
:1049B3000000003E00C0FF3F00000000003C00C0BC
:1049C300FF3F00000000003800FEFF1F0000000052
:1049D300000000FFFF0F000000000000E0FFC7071A
:1049E300000000000000F0FF0300000000000000D2
:1049F300F0FF0100000000000000F00100000000D3
:104A030000000000000000000000000000000000A3
:104A1300000000000000000000F00F006000000034
:104A2300000000FC3F00F8000000000000FFFF0052
:104A3300FC000000000000FFFFFFFF00000000007B
:104A430000FFFDFF7F0000000000007FF8FF3F0034
:104A530000000000000EF8FF0F000000000000003F
:104A630080FF0300000000000000007F0000000042
:104A7300000000000000000000000000F80100003A
:104A8300000000000000F81F00000000000000000C
:104A9300F8FF0000000000000000E0FF0700000036
:104AA3000000000000FF3F0000000000000000FCC9
:104AB300FF070000000000000CE0FF3F00000000C3
:104AC3000000FC80FFFF030000000000FC00FCFF6F
:104AD3000F0000000000FC03C0FF3F0000000000C7
:104AE300FC0F00FCFF0000000000F83F00E0FF01A6
:104AF30000000000F0FF0000FF0F0000000080FF37
:104B03000100F80F0000000000FF0100F03F00006B
:104B1300000000FC0100C0FFFF00000000FC0100DA
:104B230000FFFF03000000FC0100C0FFFF3F000087
:104B330000FC0100F8FFFFFF000000FC0100FCFF88
:104B4300FFFF010000FC01C0FF7FC0FF070000FC66
:104B530001FCFF0F00FE0F0000F883FFEF0700F0DA
:104B63003F0000F8C3FFFF0700C07F0000F0F7FF1E
:104B73009F0F0000FF0000F0FF3F1F1F0000FE011A
:104B830000E0FF033E1F0000F80300E0FF033E3E8A
:104B93000000F80700E03F007C3E0000F00700E063
:104BA3001F007C7C0000E00F00E00F00F87C000099
:104BB300C00F00E00F00F0F90000801F00E00700C5
:104BC300F0F10100801F00E00700E0F30100801F07
:104BD30000F00300C0E70300003F00FC0300C0C770
:104BE3000700003F80FF030080CF0700003FF8FF6E
:104BF3000100809F0F00003EFCFF0000003F0F00FC
:104C0300003EFC1F00C0013E3E00003EFC0300F0DE
:104C1300037E3E00003CFC0000F000FC3C00003C36
:104C2300000000F800F87C00003C000000F800F8E9
:104C3300F900003C000000F801F0F100003C000026
:104C430000F801F0F301003E000000F807E0E7037D
:104C5300003E000000F03FC0C703003E000000F02C
:104C63007FC0CF07003E000000C0FFFF9F0F003F43
:104C730000000000FEFF3F0F003F00000000F8FFB0
:104C83003F1E001F0000000080FF7F3E801F0000CA
:104C9300000000FC7F3CC01F0000000000F0FF7814
:104CA300C00F000000000000F8F1E00F000000005A
:104CB3000000F8F3F007000000000000F0E7F9033C
:104CC300000000000000F0E7FD010000C0770000D5
:104CD300E0CFFF010000FCFF0000C0CF7F00000019
:104CE300FEFF1F00C0DF7F000080FFFF3F0080DF6B
:104CF3003F0000F0FFFFFF03C0FF1F0000FF3FF076
:104D0300FFFFFDFF0700FCFF0700FFFFFFFF0100A0
:104D1300FCFF0100F0FFFF7F0000FCFF0000E0FF4D
:104D2300FF3F0000FC1F000000FEFF010000FC0726
:104D33000000000000000000000000000000000070
:104D43000000000000000000000000000000000060
:104D53000000000000000000000000000000000050
:104D630000001FCC000C0000000000000000080041
:104D7300300060000800300060000000022003FCE7
:104D83001E20022003FC1E2002200000007809FCE4
:104D930019041A040B0419FC01FC00000F00108411
:104DA3000F3800C0077818840078000000780F845B
:104DB30010C411240E9800E4008400080800680061
:104DC3007000000000000000000000000000000070
:104DD300000007E018182004400200000000400211
:104DE3002004181807E00000000000000240024001
:104DF30001800FF00180024002400000008000802B
:104E030000800FF800800080008000000001000D8A
:104E1300000E000000000000000000000000008001
:104E23000080008000800080008000800000000C73
:104E3300000C00000000000000000000000000065D
:104E4300001800600180060018002000000007F031
:104E5300080810041004080807F000000000080404
:104E630008041FFC000400040000000000000E0CF6
:104E730010141024104411840E0C000000000C18B0
:104E830010041104110412880C700000000000E0EB
:104E93000320042408241FFC0024000000001F98A2
:104EA300108411041104108810700000000007F032
:104EB30008881104110418880070000000001C0009
:104EC300100010FC13001C001000000000000E383E
:104ED30011441084108411440E38000000000700B0
:104EE300088C10441044088807F0000000000000FC
:104EF3000000030C030C0000000000000000000091
:104F03000001010600000000000000000000008016
:104F130001400220041008081004000002200220AF
:104F230002200220022002200220000000001004C0
:104F330008080410022001400080000000000E0059
:104F43001200100C106C10800F00000003E00C180E
:104F530013E4142417C4082807D000000004003CFD
:104F630003C41C40074000E4001C000410041FFCA1
:104F73001104110411040E880070000003E00C18E2
:104F830010041004100410081C10000010041FFC6F
:104F9300100410041004080807F0000010041FFC9C
:104FA3001104110417C410040818000010041FFC96
:104FB3001104110017C010000800000003E00C18D2
:104FC3001004100410441C780040000010041FFC5F
:104FD30010840080008010841FFC10040000100463
:104FE30010041FFC10041004000000000003000163
:104FF300100110011FFE10001000000010041FFC20
:10500300110403801464181C1004000010041FFC16
:105013001004000400040004000C000010041FFC32
:105023001F0000FC1F001FFC1004000010041FFCE5
:105033000C04030000E010181FFC100007F0080820
:10504300100410041004080807F0000010041FFCEB
:1050530010841080108010800F00000007F00818E3
:1050630010241024101C080A07F2000010041FFC6F
:105073001104110011C011300E0C000400000E1CAD
:1050830011041084108410441C3800001800100010
:1050930010041FFC100410001800000010001FF87B
:1050A30010040004000410041FF8100010001E0078
:1050B30011E0001C007013801C0010001FC0103C86
:1050C30000E01F0000E0103C1FC000001004180C9B
:1050D300163401C001C01634180C100410001C0053
:1050E300130400FC13041C00100000000804101C2F
:1050F3001064108413041C04101800000000000046
:1051030000007FFE40024002400200000000300029
:105113000C0003800060001C00030000000040023C
:10512300400240027FFE000000000000007801FC06
:1051330005040A040B0401FC01FC0000007800CC08
:1051430005440542094401C400000000007801FC45
:10515300090412041B040DFC01FC0000000000986C
:10516300012401440144014400FC000410001FFC1D
:105173000088010401040088007000000000007032
:10518300008801040104010400880000000000708D
:1051930000880104010411081FFC0004000000F84A
:1051A300014401440144014400C80000000001041B
:1051B30001040FFC1104110411001800000000D6B3
:1051C30001290129012901C90106000010041FFC5E
:1051D300008401000100010400FC0004000001043C
:1051E300190419FC0004000400000000000000037F
:1051F30000010101190119FE0000000010041FFC49
:105203000024004001B4010C01040000000010045C
:1052130010041FFC0004000400000000010401FC52
:105223000104010001FC0104010000FC010401FC74
:10523300008401000100010400FC0004000000F8E8
:10524300010401040104010400F80000010101FF4D
:105253000085010401040088007000000000007054
:10526300008801040104010501FF00010104010498
:1052730001FC00840104010001800000000000CC57
:1052830001240124012401240198000000000100ED
:10529300010007F80104010400000000010001F807
:1052A300000400040004010801FC00040100018063
:1052B3000170000C001001600180010001F0010C7D
:1052C300003001C00030010C01F0010000000104B6
:1052D300018C00740170018C010400000101018143
:1052E3000171000E001801600180010000000184BB
:1052F300010C013401440184010C00000000000092
:105303000000000001003EFC4002400200000000DB
:1053130000000000FFFF000000000000000040024A
:1053230040023EFC0100000000000000000060009D
:1053330080008000400040002000200000000000AA
:10534300000000000000000000000000000000005A
:10535300000000000000000000000000000000004A
:105363000000000000000000000000000000003FFB
:10537300C00C7FFF9E3FC00C000000000000000037
:10538300000000000000000000003800003F0000A3
:105393003800000000000000003800003F00003823
:1053A300000000000000000000410000410007FF72
:1053B300F807FFF80082000082000082000FFFF070
:1053C3000FFFF00104000104000000000001E000F1
:1053D30007F8018C1803100C03300C01A00C01908A
:1053E3000801981803BFFC00000C00000000000037
:1053F3000F800C1FC0382020E02021801FC7000F22
:105403009CF80071FC00C2020382020E01FC18002A
:10541300F80000000007F00F1FF811E00C206004F3
:1054230020B804210E0C1E03880001D80000700070
:10543300027800038C00020400000000000000005A
:10544300000000000000003C00003F80003C000022
:105453000000000000000000000000000000000049
:10546300000000000000000000000001FF8007FFB3
:10547300E01E007830000C400002800001000000B4
:1054830000000080000140000230000C1E0078077D
:10549300FFE001FF800000000000000000000000AA
:1054A3000000000001818001C38000C300002400CC
:1054B3000600600FC3F006006000240000C3000173
:1054C300C380018180000000000000001800001864
:1054D3000000180000180001FF8001FF8000180081
:1054E3000018000018000018000000000000000071
:1054F300000000000000003100007B00007E00007F
:105503003C0000000000000000000000000000005C
:105513000000000018000018000018000018000028
:1055230018000018000018000018000018000018E8
:105533000000000000000000000000000000001850
:1055430000003C00003C00001800000000000000C8
:10555300000000000000000000000C000038000004
:10556300E0000380000E0000380000E0000380002C
:105573000E000038000060000000000000FF000380
:10558300FFC00F00F01C003830000C200004300076
:105593000C1C00380F00F003FFC000FF00000000E8
:1055A3000000000800000800041800041800043F6D
:1055B300FFFC3FFFFC0000040000040000040000A7
:1055C3000000000006001C0F007C1F00FC3001CC13
:1055D30020030C20060C200C0C30180C18700C0F38
:1055E300E00C07803C0000000000300C00781E0037
:1055F3007C1E000C30100420100420380430680C8A
:1056030018CC181F87F80F03F0000000000180007A
:105613000780001C8000708001C0800700841C008C
:10562300843FFFFC3FFFFC000084000084000080F7
:105633000000303FF8783FF07C30100C302004300D
:10564300400430400430600C303838301FF000071D
:10565300C000000003FFC00FFFF01C103830200C07
:105663002040042040043040043E600C1E38380CB7
:105673001FF00007C00000001E00003800003000CB
:10568300003000003001FC300FFC303E0030F000F1
:105693003380003E00003800000000000003E00FEC
:1056A30007F01F8C1830D80C2070042030042070B1
:1056B3000430D80C1F8C180F07F00003E000000023
:1056C30003E0000FF8301C1C7830067C20020C200D
:1056D300020420020430040C1C08380FFFF003FFFF
:1056E300C0000000000000000000000000000000F7
:1056F30001818003C3C003C3C00181800000000097
:105703000000000000000000000000000000000096
:105713000000000001818803C3D803C3F00181E0C6
:10572300000000000000000000000000000800006E
:105733001C0000360000630000C1800180C003002C
:10574300600600300C001818000C10000400000064
:1057530000000000C30000C30000C30000C300003A
:10576300C30000C30000C30000C30000C30000C3A4
:105773000000000010000418000C0C001806003094
:105783000300600180C000C1800063000036000098
:105793001C000008000000000000000600000F00CD
:1057A300001E000030000020000C200F9E20380C4B
:1057B30030E0001FC0000F000000000007FFE008FA
:1057C300001010FF0821FF84230184220184220199
:1057D3000423FF0411FF8408008807FF1000000062
:1057E30000000400007C000FFC00FF040FC2003027
:1057F30002003C02000FC20000FF04000FFC000087
:105803007C0000042000043FFFFC3FFFFC20100449
:1058130020100420100430380418680C0FCE380709
:1058230087F00001C000000003FFC00FFFF01C0061
:105833003830000C20000420000420000430000C49
:105843001800181C00703E00600000002000043F98
:10585300FFFC3FFFFC200004200004200004300074
:105863000C1800180E007007FFE001FF8000000015
:105873002000043FFFFC3FFFFC2010042010042005
:10588300100420380420FE0430000C38001C3E00B5
:105893007C0000002000043FFFFC3FFFFC201004BD
:1058A30020100020100020380020FE0030000038B7
:1058B30000003E000000000003FFC00FFFF01C00CB
:1058C3003830000C20000420000C30001810103079
:1058D300181FFC3E1FFC0010000000002000043FC6
:1058E300FFFC3FFFFC20100400100000100000101C
:1058F300002010043FFFFC3FFFFC200004000000D9
:10590300000000000000000000200004200004202C
:1059130000043FFFFC3FFFFC2000042000042000A4
:10592300040000000000700000F80000EC000044D8
:1059330000000420000C20000C3FFFF83FFFF02084
:1059430000002000000000002000043FFFFC3FFF98
:10595300FC201E0400780001FE002787803E01E43E
:1059630038007C20001C2000040000042000043FB9
:10597300FFFC3FFFFC2000040000040000040000C3
:105983000400000400000C00001C00007C00000068
:105993002000043FFFFC3FFFFC03E004003C000049
:1059A3000780000780003C0003E0043FFFFC3FFF4B
:1059B300FC2000042000043FFFFC3FFFFC078004A1
:1059C30000E000003800000E002003C03FFFF03F5E
:1059D300FFFC20000000000007FFE00FFFF01800AD
:1059E3001830000C20000420000420000430000CB8
:1059F3001800180FFFF007FFE00000002000043F2D
:105A0300FFFC3FFFFC20080420080020080030189A
:105A1300001010001C70000FE00003800000000065
:105A230007FFE00FFFF018001830000C200044209F
:105A3300006420003430001818000C0FFFFE07FF2D
:105A4300F20000022000043FFFFC3FFFFC20100493
:105A5300201C00201F003033C01860F41FE03C07F7
:105A6300800C0000040000000F00FC1F807811C0B0
:105A73003030E01820700C203804301C04180E0C51
:105A83001C07183E03F00001E00000003E00003850
:105A930000003000002000042000043FFFFC3FFF13
:105AA300FC2000042000043000003800003E000009
:105AB3002000003FFFF03FFFF820000C000004002F
:105AC300000400000420000C3FFFF83FFFF020001B
:105AD300000000002000003F00003FFC0020FFC04A
