:100000000262777402F07B107A002202B795C295E3
:10001000026D4702B774EE30E707C3E49FFFE49E2A
:02002000FE22BE
:1000230002B7B6564842313541002D2D2D454E00BD
:100033002D2D2D564D00322E302E350000000000A0
:1000430000001F3E00000000000000801F7E000033
:100053000000000000801F7E000000000000008000
:100063001F7E0000000000000080FF7F00000000F2
:1000730000000080FF7F0000000000000080FF7F81
:100083000000000000000080FF7F0000000000006F
:100093000080FF7F0000000000000080FF7F000061
:1000A300000000000080FF7F0000000000000080CF
:1000B300FF7F0000000000000080FF7F00000000C1
:1000C30000000080FF7F0000000000000080FF7F31
:1000D3000000000000000080FF7F0000000000001F
:1000E3000000FE370000000000000000FE070000D3
:1000F300000000000000FE030000000000000000FC
:10010300FE030000000000000000FE0300000000EA
:1001130000800F00FF030000000000E03F00FF012C
:100123000000000000F07F00FF010000000000F06D
:10013300FF80FF010000000000F0FFFBFF00000054
:10014300000000FCF8FFFF000000000000FCF8FFC7
:100153007F0000000000007CE0FF3F000000000083
:10016300007EE0FFBF0100000000007EC0EF9F03A0
:100173001E000000003F00F09F077F000000803F4B
:1001830000F08FCF7F000000803F00F88FFFFF005B
:100193000000801F00FE07FFFF000000801F00FF1C
:1001A30003FEFF010000C01F80FF03FCF9030000F2
:1001B300C00F80FF01FCF0030000C00FC0FF01006F
:1001C300F00300C0F903E0FF0000E00700E0FF03D5
:1001D300F87F0000C00700F8FF0FFF3F0000C007D3
:1001E30000FEFFFFFF1F0000C00F00FFFFFFFF1F08
:1001F3000000800FC07F9FFFFF0F0000800FE0FF14
:1002030007FFFF030000001FF8CF03FEFF000000FD
:10021300001FFCC703FE7F000000001FFCE103FF7B
:100223001F000000003FFCE087FF01000000003ECC
:100233003CE0FF7F00000000003E00C0FF7F0000A5
:100243000000003E00C0FF3F00000000003C00C073
:10025300FF3F00000000003800FEFF1F0000000009
:10026300000000FFFF0F000000000000E0FFC707D1
:10027300000000000000F0FF030000000000000089
:10028300F0FF0100000000000000F001000000008A
:10029300000000000000000000000000000000005B
:1002A300000000000000000000F00F0060000000EC
:1002B300000000FC3F00F8000000000000FFFF000A
:1002C300FC000000000000FFFFFFFF000000000033
:1002D30000FFFDFF7F0000000000007FF8FF3F00EC
:1002E30000000000000EF8FF0F00000000000000F7
:1002F30080FF0300000000000000007F00000000FA
:10030300000000000000000000000000F8010000F1
:10031300000000000000F81F0000000000000000C3
:10032300F8FF0000000000000000E0FF07000000ED
:100333000000000000FF3F0000000000000000FC80
:10034300FF070000000000000CE0FF3F000000007A
:100353000000FC80FFFF030000000000FC00FCFF26
:100363000F0000000000FC03C0FF3F00000000007E
:10037300FC0F00FCFF0000000000F83F00E0FF015D
:1003830000000000F0FF0000FF0F0000000080FFEE
:100393000100F80F0000000000FF0100F03F000023
:1003A300000000FC0100C0FFFF00000000FC010092
:1003B30000FFFF03000000FC0100C0FFFF3F00003F
:1003C30000FC0100F8FFFFFF000000FC0100FCFF40
:1003D300FFFF010000FC01C0FF7FC0FF070000FC1E
:1003E30001FCFF0F00FE0F0000F883FFEF0700F092
:1003F3003F0000F8C3FFFF0700C07F0000F0F7FFD6
:100403009F0F0000FF0000F0FF3F1F1F0000FE01D1
:1004130000E0FF033E1F0000F80300E0FF033E3E41
:100423000000F80700E03F007C3E0000F00700E01A
:100433001F007C7C0000E00F00E00F00F87C000050
:10044300C00F00E00F00F0F90000801F00E007007C
:10045300F0F10100801F00E00700E0F30100801FBE
:1004630000F00300C0E70300003F00FC0300C0C727
:100473000700003F80FF030080CF0700003FF8FF25
:100483000100809F0F00003EFCFF0000003F0F00B3
:10049300003EFC1F00C0013E3E00003EFC0300F096
:1004A300037E3E00003CFC0000F000FC3C00003CEE
:1004B300000000F800F87C00003C000000F800F8A1
:1004C300F900003C000000F801F0F100003C0000DE
:1004D30000F801F0F301003E000000F807E0E70335
:1004E300003E000000F03FC0C703003E000000F0E4
:1004F3007FC0CF07003E000000C0FFFF9F0F003FFB
:1005030000000000FEFF3F0F003F00000000F8FF67
:100513003F1E001F0000000080FF7F3E801F000081
:10052300000000FC7F3CC01F0000000000F0FF78CB
:10053300C00F000000000000F8F1E00F0000000011
:100543000000F8F3F007000000000000F0E7F903F3
:10055300000000000000F0E7FD010000C07700008C
:10056300E0CFFF010000FCFF0000C0CF7F000000D0
:10057300FEFF1F00C0DF7F000080FFFF3F0080DF22
:100583003F0000F0FFFFFF03C0FF1F0000FF3FF02D
:10059300FFFFFDFF0700FCFF0700FFFFFFFF010058
:1005A300FCFF0100F0FFFF7F0000FCFF0000E0FF05
:1005B300FF3F0000FC1F000000FEFF010000FC07DE
:1005C3000000000000000000000000000000000028
:1005D300000000000000000000000000FEFFFF7F9D
:1005E300FEFFFF7FFEFFFF7FFEFFFF7FFEFFFF7F1C
:1005F30000C0077C00C0077C00C0077C00C0077CEC
:1006030000C0077C00C0077C00C0077C00C0077CDB
:100613000000007C0000007C0000000000F80F00D8
:1006230000FFFF00C0FFFF07F0FFFF0FF8FFFF3FD2
:10063300FC01003FFE00007C7F0000FC3F0000FC4B
:100643003F0000FC3F0000FC3F0000FC7E00007CFC
:10065300FC00007CFC03003FF8FFFF1FF0FFFF0FCF
:10066300C0FFFF0300FFFF0000F0070000000000D1
:100673000000000000FE3F0080FFFF01E0FFFF07D6
:10068300F8FFFF1FF80FC03FFC01003F7E00007E14
:100693007E0000FC1F0000FC3F0000F83FF001FC5F
:1006A3003EF001FC7EF0017EFCF0817FFCFBE13F2C
:1006B300FFFFE10FFFFFE107FFFFE1010000000083
:1006C3000000000000000000000000000000000027
:1006D3000000000000000000000000000000000017
:1006E300000000007F00F000FF00F803FF03F80F95
:1006F300FF07F81FFF0FC03FDF1F003E1F3F007CB7
:100703001F7C00781FF8007C1FF0037E1FE0FF3F73
:100713001FC0FF1F1F80FF0F1F00FE070000000008
:1007230000000000000000000000F0000000F001E5
:100733000000F0010000F0030000E003FFFFFF0FE3
:10074300FFFFFF3FFFFFFF7FFFFFFF7FFFFFFF7FF6
:10075300000000000000000000000000003F000057
:10076300007F000000FF010000FF070000FF1F00E3
:10077300008F3F00000FFC00000FF003000FC00FBD
:10078300FFFFFF3FFFFFFF7FFFFFFF7FFFFFFF3FF6
:10079300000F0000000000000000000000FEFF004A
:1007A30080FFFF03E0FFFF07F8FFFF1FFC01003F8F
:1007B3007E00003E3E00007C3E0000781E00007C70
:1007C3003E00007EFC00003FFCFFFF1FF0FFFF0F19
:1007D300C0FFFF0300FEFF01060000003E00000013
:1007E300FE030000FE3F0000FEFF0300E0FF7F006A
:1007F30000FFFF0300EFFF3F000FFC7F000F807F30
:10080300000F807F000FF87F00DFFF3F00FFFF0333
:10081300F0FF7F00FEFF0700FE3F0000FE03000025
:100823003E00000000000000000000000000000087
:100833000000F8FFFFFFFF3FE0FF1FF0FF0FC0FFC7
:100843000FE0FF0300FF07C0FF0000FF03C0FF002E
:1008530000FF0380FF0000FF0380FF0000FF038011
:10086300FF0000FF0380FF0000FF0380FF0000FE86
:1008730003C0FF0080FF07E0FF01E0FF0FF0FF0769
:10088300F0FF3FF8FF1FF0FFFFFFFF1F0000F00F17
:1008930000000000F00F00000000F00F0000000057
:1008A300F00F00000000F00F00000000F00F000048
:1008B3000000F00F00000000F00F00000000F00F38
:1008C30000003000F00F00087800F81F001EF80148
:1008D300FE7F001FFC87FFFFC13FFECFFFFFF73FF7
:1008E300FEFFFFFFFF7FFFFFFFFFFFFFFEFFFFFF97
:1008F300FFFFF8FFFFFFFF3FFEFFFFFFFF7FFFFF4D
:10090300FFFFFFFFFFFFFFFFFF7FFEFFFFFFFF7FF5
:10091300FCCFFFFFE33FFC03FFFFC13FF800FC7F79
:10092300001F3800F01F001C1000F00F0000000033
:10093300F00F00000000F00F00000000F00F0000B7
:100943000000F00F00000000F00F00000000F00FA7
:1009530000000000F00F00000000F00F0000000096
:1009630000000070FFFF7FFFFF7FFFFF7FFFFF7F20
:10097300FFFF7FFFFF7FFFFF7FFFFF7FFFFF7FFF04
:10098300FF7FFFFF7FFFFF7FFFFF7FFFFF7FFFFFF4
:100993007F000070000000000000E0FFFFF8FFFF91
:1009A300FCFFFFFEFFFFFEFFFFFFFFFFFFFFFFFF59
:1009B300FFFFFFFFFFFEFFFFFEFFFFFCFFFFFCFF4C
:1009C300FFF0FFFF0000000000000000FFFFFFFF3B
:1009D30003FFFFFFFF03FFFFFFFF03FFFFFFFF0314
:1009E300FFFFFFFF03FFFFFFFF03FFFFFFFF03FF08
:1009F300FFFFFF03FFFFFFFF03FFFFFFFF03FFFFF8
:100A0300FFFF03FFFFFFFF0300C01FFC0300C01F26
:100A1300FC0300C01FFC0300C01FFC0300C01FFC3D
:100A23000300C01FFC0300C01FFC0300C01FFC0326
:100A330000C01FFC0300C01FFC0300C01FFC030019
:100A4300C01FFC0300C01FFC0300C01FFC0300C049
:100A53001FFC03010000FC03070000FC031F000050
:100A6300FC03FF00000000FF03000000FF0F000075
:100A730000FF3F000000FFFF010000FFFF07000031
:100A8300FFFF1F0000FFFF7F0000FFFFFF0300FFCA
:100A9300FFFF0F00FEFFFF3F00F0FFFFFF00C0FF5F
:100AA300FFFF03C0FFFFFF03C0DFFFFF03C01FFF04
:100AB300FF03C01FF8FF03C01FC0FF03C01F00FEDA
:100AC30003C01F00FF03C01FE0FF03C01FFCFF03A1
:100AD300C09FFFFF03C0FFFFFF03C0FFFFFF03E053
:100AE300FFFFFF03F8FFFFFF00FFFFFF3F00FFFFD4
:100AF300FF0F00FFFFFF0100FFFF7F0000FFFF1F4D
:100B03000000FFFF070000FFFF000000FF3F0000A1
:100B130000FF0F000000FF030000007F0000000043
:100B23001F0000000007000000000100000000009B
:100B330000000000000000000000000000000000B2
:100B4300000000FFFFFFFF03FFFFFFFF03FFFFFFA7
:100B5300FF03FFFFFFFF03FFFFFFFF03FFFFFFFF96
:100B630003FFFFFFFF03FFFFFFFF03FFFFFFFF0382
:100B7300FFFFFFFF03FFFFFFFF030000FEFF030074
:100B830000FEFF000080FF7F0000C0FF3F0000E089
:100B9300FF1F0000F0FF070000FCFF030000FEFF43
:100BA300010000FFFF000080FF3F0000C0FF1F00A7
:100BB30000F0FF0F0000F8FF070000FCFF0100003A
:100BC300FEFF000000FFFFFFFF03FFFFFFFF03FF28
:100BD300FFFFFF03FFFFFFFF03FFFFFFFF03FFFF16
:100BE300FFFF03FFFFFFFF03FFFFFFFF03FFFFFF06
:100BF300FF03FFFFFFFF03FFFFFFFF03FFFFFFFFF6
:100C030003000000000000000000000000000000DE
:100C130000000000000000000000000000000000D1
:100C2300000000000000000000FFFFFFFF03FFFFC4
:100C3300FFFF03FFFFFFFF03FFFFFFFF03FFFFFFB5
:100C4300FF03FFFFFFFF03FFFFFFFF03FFFFFFFFA5
:100C530003FFFFFFFF03FFFFFFFF03FFFFFFFF0391
:100C6300FFFFFFFF03FFC01FFC03FFC01FFC03FFC9
:100C7300C01FFC03FFC01FFC03FFC01FFC03FFC01A
:100C83001FFC03FFC01FFC03FFC01FFC03FFC01FAB
:100C9300FC03FFC01FFC03FFC01FFC03FFC01FFCBE
:100CA30003FFC01FFC03FFC01FFC03FFC01FFC03A7
:100CB300FFC01FFC03FFC01FFC03FFC01FFC03FF9B
:100CC300C01FFC03FF0000FC03FF0000FC03000047
:100CD3000000000000000000000000000000000011
:100CE3000000000000000000000000000000000001
:100CF30000FFFFFFFF03FFFFFFFF03FFFFFFFF03F4
:100D0300FFFFFFFF03FFFFFFFF03FFFFFFFF03FFE4
:100D1300FFFFFF03FFFFFFFF03FFFFFFFF03FFFFD4
:100D2300FFFF03000080FF030000E0FF030000FE5D
:100D3300FF0300C0FFFF0300F8FFFF0380FFFFFF77
:100D430003F0FFFFFF01FEFFFF3F00FFFFFF070070
:100D5300FFFF7F0000FFFF0F0000FFFF010000FF08
:100D63003F000000FFFF010000FFFF0F0000FFFF37
:100D7300FF0000FFFFFF0700FEFFFF3F00E0FFFF54
:100D8300FF0100FFFFFF0300F8FFFF0300C0FFFFA9
:100D9300030000FCFF030000E0FF03000080FF03EB
:100DA300FFFFFFFF03FFFFFFFF03FFFFFFFF03FF44
:100DB300FFFFFF03FFFFFFFF03FFFFFFFF03FFFF34
:100DC300FFFF03FFFFFFFF03FFFFFFFF03FFFFFF24
:100DD300FF0300000000000000000000000000000E
:100DE300000000000000000000C00F000000F03C05
:100DF30000000038700000001860000000ECDF0005
:100E030000000CDB000000049B000000849B00003A
:100E130000ECDF0000006CCE000000186000000052
:100E230018700000007038000000E01F0000000090
:100E330003000000000000000000000000000000AC
:100E430000000000F8FF1F000000C0FFFFFF0700C5
:100E530000F8FFFFFF3F0000FEFFFFFFFF0080FFE2
:100E6300FFFFFFFF03C0FFFFFFFFFF07E0FF0700D8
:100E7300C0FF0FF03F000000F81FF007000000C0A4
:100E83001FF803000000803FF801000000003FFC52
:100E930000000000007E7C00000000007C7C00005D
:100EA3000000007C7C00000000007C7C000000004F
:100EB300007C7C00000000007CFC00000000007E41
:100EC300F801000000003FF803000000803FF00736
:100ED300000000C01FF03F000000F81FE0FF070004
:100EE300C0FF0FC0FFFFFFFFFF0780FFFFFFFFFFF4
:100EF3000300FEFFFFFFFF0000F8FFFFFF3F0000BE
:100F0300C0FFFFFF07000000F0FF1F00000000000C
:100F130000000000000000000000000000000000CE
:100F230000000000000000000000000000000000BE
:100F330000000000F0030000000000E007000000D4
:100F43000000E0070000000000C00F0000000000E8
:100F5300801F0000000000803F0000000000003FF1
:100F63000000000000007E000000000000FC000004
:100F730000000000FC010000000000F807F8FFFF7C
:100F8300FFFFFF0FF8FFFFFFFFFF3FF8FFFFFFFF2C
:100F9300FF7FF8FFFFFFFFFF7FF8FFFFFFFFFF7FEC
:100FA300F8FFFFFFFFFF7F000000000000000000CC
:100FB300000000000000000000000000000000002E
:100FC300000000000000000000000000000000001E
:100FD300000000000000000000000000000000000E
:100FE30000000000000078000000000000F801008D
:100FF30000000F00F8070000007F00F81F0000004A
:10100300FF01F83F000080FF03F8FF000080FF07A7
:10101300F8FF010080FF0FF8FF030000F81FF8FE40
:10102300070000C03FF8F80F0000803FF8F01F00F2
:1010330000003FF8E03F0000007EF8C07F000000A2
:101043007CF880FF0000007CF800FF0100007CF8C2
:1010530000FE0300007CF800FC0700007CF800F0B1
:101063001F00007CF800E03F00007EF800C07F0016
:10107300003EF80080FF01003FF80000FF07C03F7B
:10108300F80000FE1FF01FF80000F8FFFF1FF80034
:1010930000F0FFFF0FF80000E0FFFF07F8000080FB
:1010A300FFFF01F8000000FE7F00F8000000F01FC2
:1010B300000000000000000000E00000000000004D
:1010C300FC0000000C0000FF0000007C0080FF011A
:1010D3000000FC01C0FF010000FE07E0FF0100006B
:1010E300FE0FF07F000000FE0FF00F000000F01F66
:1010F300F803000000C03FF801000000003FFC00BF
:10110300000000003EFC00003800007E7C0000F080
:1011130001007C7C0000F001007C7C0000F00100F9
:101123007C7C0000F001007C7C0000F003007CFC70
:101133000000F803007EF80000F807003FF8010004
:10114300FC0F803FF80300FE3FE01FF00F007FFF1E
:10115300FF1FE03FC03FFFFF0FE0FFFF3FFEFF0722
:10116300C0FFFF1FFCFF0300FFFF0FF0FF0000FEA7
:10117300FF07C03F0000F8FF0100000000C03F0070
:101183000000000080FF000000000080FF0300005B
:10119300000080FF0F0000000080FF1F0000000020
:1011A30080EF7F00000000808FFF01000000800FB0
:1011B300FE07000000800FFC0F000000800FF03FCF
:1011C300000000800FC0FF000000800F00FF01003F
:1011D30000800F00FE070000800F00F81F00008052
:1011E3000F00E03F0000800F00C0FF0000800F00F1
:1011F30000FF0300800F0000FC0F00800F0000F0D1
:101203001FF8FFFFFFFFFF7FF8FFFFFFFFFF7FF8E0
:10121300FFFFFFFFFF7FF8FFFFFFFFFF7FF8FFFFE9
:10122300FFFFFF7FF8FFFFFFFFFF7F00800F00003E
:10123300000000800F0000000000800F000000008D
:1012430000800F0000000000800F000000000080FD
:101253000F000000000000000000000000E000009C
:1012630000000000FC003800000000FF00F81F0031
:101273000080FF00F8FF0700C0FF00F8FFFF03E056
:10128300FF00F8FFFF1FF03F00FCFFFF1FF0070008
:10129300F8FFFF1FF80300E0F7FF1FF80100C00F7E
:1012A300F81FFC0000800F001F7C0000800F001F50
:1012B3007C0000001F001F7C0000001F001F7C003B
:1012C30000001F001F7C0000001F001F7C000000A7
:1012D3001F001FFC0000801F001FF80100801F007B
:1012E3001FF80300C00F001FF00700E00F001FF0FE
:1012F3000F00F80F001FE07F00FE07001FC0FFFF75
:10130300FF03001F80FFFFFF01001F00FFFFFF001F
:10131300001F00FCFF7F00001F00F0FF1F00000004
:101323000080FF010000000000000000000000003A
:10133300F8FF0F000000C0FFFFFF030000F8FFFFEE
:10134300FF1F0000FEFFFFFF7F0000FFFFFFFFFF07
:1013530001C0FFFF3FF0FF03E07F00FF00FE07E057
:101363000F00FC01F00FF00700F001C01FF80300AD
:10137300E003801FF80100C007003FF80000C0072A
:10138300003E7C0000800F007C7C0000800F007C0E
:101393007C0000800F007C7C0000800F007C7C00C0
:1013A30000800F007CFC0000C00F007EFC0000C02A
:1013B3000F007EF80100E007003FF80300F007800C
:1013C3003FF00F00FC07F03FF07F00FF03FC1FE03E
:1013D300FFFFFF01FC0FC0FFFFFF00FC0780FFFFC3
:1013E3007F00FC0300FEFF3F00FC0000F8FF0F003E
:1013F3001C0000C0FF00000000000000000000000F
:101403000000000000001F0000000000001F00009B
:10141300000000001F0000000000001F000000008B
:1014230000001F0000000000001FF8010000000082
:101433001FF87F000000001FF8FF070000001FF8DF
:10144300FF3F0000001FF8FFFF0100001FF8FFFF30
:101453000F00001F00FFFF3F00001F00C0FFFF0041
:10146300001F0000FCFF07001F0000C0FF1F001F3C
:10147300000000FE3F001F000000F8FF001F0000F7
:1014830000C0FF031F00000000FF071F0000000053
:10149300FC1F1F00000000F03F1F00000000C07F82
:1014A3001F0000000000FF1F0000000000FC1F00E1
:1014B30000000000F81F0000000000E01F00000013
:1014C3000000C01F0000000000001F00000000001B
:1014D300000000E03F0000000000FCFF01000000EE
:1014E30000FFFF03C03F0080FFFF07F8FF00C0FFBE
:1014F300FF0FFCFF03E0FFFF1FFEFF07F03FE03F8E
:10150300FFFF0FF00700BFFFFF1FF80300FE3FE0E0
:101513003FF80100FC0F803FF80000F807003FFC94
:101523000000F803007E7C0000F001007C7C0000DA
:10153300F001007C7C0000F001007C7C0000F001E5
:10154300007C7C0000F001007CFC0000F803007EBE
:10155300F80000F807003FF80100FC0F803FF80394
:1015630000FE3FE01FF00700BFFFFF1FF03FE03F1B
:10157300FFFF0FE0FFFF1FFEFF07C0FFFF0FFCFF92
:101583000380FFFF07F8FF0000FFFF03E01F0000D9
:10159300FCFF0000000000E03F000000000000002E
:1015A3000000000000000000FE0700007000E0FFE4
:1015B3003F00007E00F8FFFF00807F00FCFFFF0379
:1015C300C07F00FEFFFF07E07F00FFFFFF0FF07FFC
:1015D30080FF01FC1FF81FC07F00E01FF803C01F3E
:1015E30000C03FF801C00F00003FFC00E00700000F
:1015F3007F7C00E00700007E7C00E00300007C7C31
:1016030000E00300007C7C00E00300007C7C00E041
:101613000300007CFC00C00300007CF800C007004E
:10162300003EF801C00700003EF003800F00003FBA
:10163300F007001F00801FE01F007E00E00FC0FFC7
:1016430001FC01FC0F80FF7FF8FFFF0700FFFFFF96
:10165300FFFF0100FCFFFFFFFF0000F0FFFFFF3F64
:10166300000080FFFFFF07000000E0FF7F00000095
:101673000000000000F0FF1F0080FFFFFF03E0FFFA
:10168300FFFF0FF80700C03FFC0000007E3E000094
:1016930000F81E000000F01E000000F01E00000015
:1016A300F03E000000F8FC0000007EF80700C03F99
:1016B300E0FFFFFF0F80FFFFFF0300F0FF1F0000AD
:1016C3000000000000000000000000000000000017
:1016D3000000000000003C00000000780000000053
:1016E300F000000000E001000000C00700000080DF
:1016F3000FFCFFFFFF3FFCFFFFFFFFFCFFFFFFFFB0
:1017030000000000000000000000000000000000D6
:1017130000000000000000000000000000003C008A
:1017230000E001FC0100E00FFC0700E01FFC0F00DC
:10173300003EBC3F00007C3C7E0000F83CF801000A
:10174300F03CF00300F03CC00F00F03C801F00F8B9
:101753003C007E007C3C00FC037E3C00F0FF3F3CF1
:1017630000C0FF0F3C0000FE01000000000000006D
:101773000000000007008003E00700800FF8070067
:10178300803FFC0100007E7C000000783E000000EA
:10179300F01E00F000F01E00F000F01E00F001F05B
:1017A3003E00F801787C00FC077EF801BFFF3FF0A4
:1017B300FF1FFF0FC0FF0FFC0300FF01000000002D
:1017C300000000000000000000F800000000F8071F
:1017D300000000F83F000000F8FF00000078FC075D
:1017E300000078E03F00007880FF00007800FC07ED
:1017F300007800F01F00780080FFFCFFFFFFFFFC74
:10180300FFFFFFFFFCFFFFFFFF00780000000078F1
:10181300000000007800000000000000000007F84E
:101823000000E007F8FF01F807F8FF3FFC00F0FFB6
:101833003F7C00E0013E3E00C0033C1E00C0033C71
:101843001E00C0033C1E00C0033C3E00E0033C7C82
:1018530000F0013CF803FC003CF0FF7F003CC0FFBC
:101863003F003C00FE0700000000000000000000F5
:10187300000000F8FF0F0080FFFFFF01E0FFFFFF04
:101883000FF8037CC01F7C00F0003E3C00E00178B1
:101893001E00C003F01E00C003F01E00C003F03E94
:1018A30000E003F07C00F001F8F801FC017EF0FF9A
:1018B3007F803FC0FF3F801F00FE078003000000C2
:1018C30000000000000000000000003C00000000D9
:1018D3003C000000003CFC0000003CFC3F00003CDE
:1018E300FCFF03003C00FF3F003C00C0FF003C0046
:1018F30000FC073C0000C01F3C0000007E3C0000D1
:1019030000F83D000000C03F000000003F00000061
:10191300003C0000000000000000000000FF010088
:1019230000E0FF07FC03F0FF1FFF1FF801BFFF3FAD
:101933007C00FC077E3E00F801F81E00F000F01E5C
:1019430000F000F01E00F000F03E00F801F87C000B
:10195300FC077EF801BFFF3FF0FF1FFF1FE0FF07FB
:10196300FC0300FF01000000000000000000000075
:10197300008003C0FF00F003F8FF0FF803FCFF1F14
:10198300FC007F803F3E001F007C1E800F00F81E7E
:10199300800700F01E800700F01E800700F03C0067
:1019A3000F0078F8001E007CF0077C003FE0FFFF8B
:1019B300FF0F00FFFFFF0300E0FF3F0000000000F8
:1019C300000000F81FFE7F07E003C003C007E0FE2E
:1019D3007FF81F000000000000000C00180030FF1B
:1019E300FFFFFF000000000000000003180F781B3A
:1019F300E073C0E3C0C3E1837F033E00000000182F
:101A0300301E7007E003C303C387E7FE7E7C3C0000
:101A1300007000F001B003300E303C30F0FFFFFFE8
:101A2300FF300030000000180F1EFF07F303C6034A
:101A3300C607C7FEC3F80100000000F80FFE3F070A
:101A43006303C603C607E7FE73F831000000000016
:101A5300C000C00FC0FFC0F0C700DE00F800C00028
:101A63000000007C3CFE7F87E703C303C387E7FED8
:101A73007F7C3C000000008C1FCE7FE7E063C063E7
:101A8300C0C6E0FC7FF01F00000000F00708080458
:101A93001004100808F0070000000004080408FC04
:101AA3001F040004000000000000000C0E141024AA
:101AB30010441084110C0E00000000180C041004D4
:101AC3001104118812700C00000000E000200324B0
:101AD300042408FC1F240000000000981F84100445
:101AE3001104118810701000000000F0078808042A
:101AF3001104118818700000000000001C0010FC85
:101B0300100013001C001000000000380E44118464
:101B13001084104411380E0000000000078C0844A4
:101B23001044108808F00700000000000000000CBB
:101B3300030C030C03000000008000800080008081
:101B4300008000800080008000000F8410380FC0E8
:101B53000078078418780000000410FC1F041100AB
:101B630011C01130110C0E04000410FC1F841080EE
:101B73000080008410FC1F0410000000C0FF003030
:101B83000003080004080004300003C0FF00000045
:101B930000000000080001080001F8FF030800002E
:101BA30008000000000000000000000038C003D857
:101BB300000418010418060418080678F001000050
:101BC30000000000F0C0030800040808040808042B
:101BD300101406E0E301000000000000000F000005
:101BE300310008C101080102F8FF0F0801000000DD
:101BF30000000000F0FC070808060810060810069D
:101C0300300806C00706000000000000C0FF0030D7
:101C13000803081004081004300803C0070000007C
:101C230000000000008007000006F80706007806A1
:101C3300008007000006000000000000E0E1031040
:101C43001604080804080C04181606E0E101000055
:101C53000000000000F80130040208020408020436
:101C6300300C03C0FF000000000000000000000073
:101C73000000387000387000000000000000000011
:101C83000000000000080000080000080000080031
:101C930000080000080000080000F803180404E02E
:101CA300F903000E00F0F700080807F00700000032
:101CB30000080004F8FF07080804000804000F04E4
:101CC300E0110638E003080000080004F8FF0708E5
:101CD3000804000800000800080804F8FF070800CB
:101CE30004FEFF070000FEFF0F000006201C00009B
:101CF30006203C000006207000000620E0000006DD
:101D030020C7010006A08D030006A008070006A057
:101D13000DFEFF062007FCFF06200024C0FEFF0087
:101D230024C0FEFF0324C000000624C000000624D4
:101D3300C000000624C000000624C0FEFF0724C024
:101D4300FEFF0124C006200024C0062000FCFF067D
:101D53002000FEFF06200007000620800300062067
:101D6300C001000620E000000620700000062038B5
:101D7300000006201C0000FEFF0F0000FEFF07000E
:101D8300000700000000070000000007000000003B
:101D93001F00000000FF00000000F900000000FD2C
:101DA300000000001F000000000F4000003F07E09C
:101DB3000180FF07E007C0F307801FC0E107007E33
:101DC300C0E10F00FCC1FF7F00F0837FF900C00F6B
:101DD3001EFDC0073F003FE01FFC000FF01FF00394
:101DE300077838C00F077838003F07F83C007C07B6
:101DF300F01F00780FC00F00003F00000000FD003F
:101E0300000000F900000000FF000000001F0000B8
:101E130000000F00000000070000000007000000A2
:101E23000000E0FF000000F8FF010000FCFF0C00D1
:101E330000FE711E00803F000F00C00F006400C051
:101E43000300F000E001007000F0011E2001F0002B
:101E53001E800378001EC00378001EC00378001E96
:101E6300000078001E00037800FEBF073800FEBFA5
:101E7300077800FEBF077800FE3F037800000000EC
:101E83007800000000780000C003F00000C003F0F9
:101E93000000E003E00100E001E00300F000C00700
:101EA300007C00801F007E0000FFC03F0000FEFF9B
:101EB3000F0000F8FF070000E0FF010000807F0033
:101EC300000000000000000000000000000000000F
:101ED300000000C00F000000E01F000000601800B9
:101EE300000020100000006018000000E01F00C088
:101EF300FF800F00FEFF0F0080FFFF7F00E0FFFF6A
:101F0300FF01F00700F003F80000C0073C000000E9
:101F13000F1E0000000E0E0000000C0E0000001C3F
:101F23000E000000180E000000180E000000180C30
:101F33000000000C1C0000000C38000000067000BC
:101F4300008003E00000E003C00380FF0300038080
:101F5300FF0300000000000000000000000000007C
:101F6300000000000000000000000000000000006E
:101F730000000000000000007F000C00E0FF071CD1
:101F830000F0FF0F780038000EE000180018C003BF
:101F93001800188007F8000F001EF0FF0F003CC068
:101FA300FF0300F000000000E001000000800700D4
:101FB3000000000F000000003C000000007800005B
:101FC3000007E00100F8FFC00300FCFF010F001E43
:101FD300C0031E000600037800060002F0001E8006
:101FE30003C003FCFF038007F8FF01001E000F007E
:101FF300001C0000000000000000000000000000C2
:10200300000000FC0F000000FF0F000080071C0011
:1020130000C0031C0000C0013800FFFF017000FF77
:10202300FF01600001C001E000018201C0000187DF
:1020330003C001810D038001C118078003810D06D0
:10204300000301070E000701021C000601001C002B
:102053000EFFFF3F000CFFFF3F0018000070001849
:1020630000006000380000C000300000C0007000B5
:10207300008001F000008003FC000000038E0000DC
:10208300000787000000C6C3000000EEC000000088
:102093007C600000003C30000000381C000000F8A9
:1020A3000707000000000700000000070000000011
:1020B3001F00000000FF00000000F900000000FD09
:1020C300000000001F000000000F4000003F07E079
:1020D3000180FF07E007C0F307801FC0E107007E10
:1020E300C0E10F00FCC1FF7F00F0837FF900C00F48
:1020F3001EFDC0073F003FE01FFC000FF01FF00371
:10210300077838C00F077838003F07F83C007C0792
:10211300F01F00780FC00F00003F00000000FD001B
:10212300000000F900000000FF000000001F000095
:1021330000000F000000000700000000070000007F
:10214300000E000000000E000000000E0000000062
:102153001E000000001E000000003E00000000F60C
:1021630000000000E601000000F6000000003E0051
:102173000000001E0000001F1EC001803F0EC003B0
:10218300C07F0EC007C0710E001FC0601E003EC09E
:10219300701E00F8C0713E00F0C13FF600E0833FBF
:1021A300E601800F0EF681071F007EC01F7C003EF4
:1021B300E01FF8001EF03CE0030E7038C0070E70FD
:1021C30038001F0EF03C003E0EE01F003C1EC00F07
:1021D30000101E800700003E00000000F600000013
:1021E30000E601000000F6000000003E00000000D1
:1021F3001E000000001E000000000E000000000E84
:10220300000000000600000000000000000000F0D5
:1022130077060000F8770F0000FE770700003F0005
:10222300E200801F00F000C007007002E00300001E
:1022330007F001008007F0000E000378000E00187D
:102243007C000E003C3C000E003C1E000E00181EDD
:10225300000E00000E000E00000E000E00000E0027
:102263000E00000E000E00300F00FEFF780F00FE80
:10227300FF780F00FEFF780E000000300E00000014
:10228300000E000000000E000000001E0000007899
:102293003E0000003C3C0000003E780000001EF8B9
:1022A3000000000FF00100800FE00300C007C00F23
:1022B30000E003801F00F801007F00FC0000FCFF2A
:1022C3007F0000F8FF1F0000E0FF0F0000007C000C
:1022D30000FFFFFFFFFF0F000000F003000000C03E
:1022E30001000000C0010000008001000000800127
:1022F300000000800100000080010000008001E078
:10230300FF018001F8FF078001FCFF0F80013C0003
:102313001E80010E001C80010E001C80010E001C9B
:1023230080013C001F8001FCFF0F8001F0FF07804C
:1023330001C0FF0080010000008001FCFF1F80013D
:10234300FEFF1F8001FEFF1F8001003E0080010091
:102353007C00800100FF018001C0CF078001F08372
:102363000F8001FC001E80013E001C80010E001046
:102373008001000000800100000080010000008057
:102383000100000080030000008003000000C00F74
:10239300000000F0FFFFFFFFFFFFFFFFFFFFFF7FD6
:1023A30000FEFFFF0F00F0FFFF0300C0FFFF01006F
:1023B30080FFFF000000FF7F000000FC3F000000E3
:1023C300FC1F000000F80F000000F00F000000F0F9
:1023D30007000000E007800000E007800300C0035F
:1023E300800F00C003803F00C003807F0080038014
:1023F300FF01800380FF07800380FF0F800380FFBE
:102403000F800380FF03800380FF018003807F0030
:10241300C003803F00C003800F00C007800700C0D7
:1024230007800100E00F800000E00F000000F01FB4
:10243300000000F01F000000F83F000000FC7F00D8
:102443000000FEFF000000FFFF030080FFFF070006
:10245300E0FFFF1F00F8FFFFFF01FFFFFFFFFFFF8C
:10246300FFFFFFE7FFFFFF3F00F8FFFF0700E0FF6D
:10247300FF030080FFFF000000FF7F000000FE3F1E
:10248300000000FC1F000000F80F000000F00F0028
:102493000000E007000000E007000000C003008028
:1024A30001C00300C001800300F001800100F801B6
:1024B300800100FE01800100FF018001C0FF018057
:1024C30001F0FF010001F8FF010001F0FF018001AD
:1024D300E0FF01800180FF01800100FE0180030015
:1024E300F801800300F001C00300C001C007000031
:1024F30001E007000000E00F000000F01F000000F3
:10250300F03F000000F83F000000FCFF000000FE69
:10251300FF010080FFFF0300C0FFFF0F00F0FFFF7C
:102523007F00FEFFFFFFFFFFFFFFFFFFFFFF010035
:102533000000800100000080010000008001000015
:102543000080010000008001F0FF0F8001F0FF0F09
:102553008001F0FF0F8001F0FF0F800170380E80C3
:102563000170380E800170380E800170380E8001C2
:1025730070380E800170380E800170380E80017043
:10258300380E80013000008001000000800100004F
:10259300008001F0FF0F8001F0FF0F8001F0FF0FBB
:1025A300800100E00F800100F007800100FC018042
:1025B30001007E008001803F008001E00F00800168
:1025C300F007008001F0FF0F8001F0FF0F8001F0A2
:1025D300FF0F800100000080010000008001000067
:1025E300008001000000800100000080FFFFFFFF6A
:1025F300FFFFFFFFFFFF01000000800100000080DC
:102603000100000080010000008001000000800143
:10261300F8FF1F8001F8FF1F8001F8FF1F8001F002
:10262300FF1F8001001C1E8001001C1E8001001C76
:102633001E8001001C1E8001003C1E800100FC0F57
:10264300800100F80F800100F807800100F003808B
:1026530001000000800100000C800100001E8001C9
:1026630000001E800100001E800100001E8001F09A
:10267300FF1F8001F8FF1F8001F8FF1F8001F8FF93
:102683001F800100001E800100001E800100001E4B
:10269300800100001E800100001E800100000080F8
:1026A30001000000800100000080010000008001A3
:1026B30000000080FFFFFFFFFFFFFFFFFFFF0100A0
:1026C3000000800100000080010000008001000084
:1026D3000080010000008001F8FF1F8001F8FF1F48
:1026E3008001F8FF1F8001F8FF1F800178381E80EA
:1026F3000178381E800178381E800178381E8001E9
:1027030078381E800178381E800178381E80017861
:10271300381E800170000C80010000008001000160
:10272300008001C0C1038001E0E3078001F0F30FE3
:102733008001F0F80F800178781E800178781E8080
:102743000178381E8001783C1E8001783C1F80018F
:10275300F09F0F8001F09F0F8001E08F078001C081
:1027630007018001000000800100000080010000DB
:10277300008001000000800100000080FFFFFFFFD8
:10278300FFFFFFFFFFFF010000008001000000804A
:1027930001000000800100000080010000008001B2
:1027A300F0FF0F8001F0FF0F8001F0FF0F800100A9
:1027B300380E800100380E800100380E8001003889
:1027C3000E800100380E800100380E800100380EA3
:1027D300800100000E8001000000800100000080E5
:1027E30001F0FF0F8001F0FF0F8001F0FF0F800168
:1027F300F0FF0F8001001C0E8001001C0E80010001
:102803001C0E8001001E0E8001003F0E8001C03FA0
:102813000E8001E0FF0F8001F0FB0F8001F0F00755
:10282300800170C001800110000080010000008061
:102833000100000080010000008001000000800111
:1028430000000080FFFFFFFFFFFFFFFF010080018B
:10285300008001008081FF8181FF818199818199BD
:102863008181998181998181918101008001008019
:1028730081FF8181FF8101F080013C80010E808115
:10288300FF8181FF81010080010080010080FFFF43
:10289300FFFFFFFF01008001008001008081FF81B5
:1028A30081FF8101988101988101988101F881015B
:1028B300F08001008001808101808101808181FF9E
:1028C3008181FF81018081018081018081010080FC
:1028D300010080010080FFFFFFFFFFFF0100800177
:1028E300008081FF8181FF8181FF818199818199AD
:1028F3008181998181998181918101008001028087
:1029030001F78081F38181B98181998181998181E5
:10291300DF8101CF80010080010080010080FFFF83
:10292300FFFFFFFF01008001008001008081FF8124
:1029330001FF8101988101988101988101908101B2
:10294300008001008081FF8181FF810198810198CE
:1029530081019E8101FF8181F3808161800100807B
:10296300010080010080FFFFFFFEFF7FFEFF7FFE6F
:10297300FF7FFCFF3FFCFF3FF8FF1FF8FF1FF0FF47
:102983000FF0FF0FE0FF07E0FF07C0FF03C0FF03E7
:1029930080FF0180FF0100FF0000FF00007E0000B8
:1029A3007E00003C00003C000018000018000000FE
:1029B30000E0FFFFE0FFFFE0FFFFE0C0C0E0C0C0BA
:1029C300E0C0C0E0C0C0E0C0C0E0C0C0E0C0C0E044
:1029D300C0C0E0C0C0E0C0C0E000C0000000000014
:1029E30000000000E0FF07E0FF0700C0030000074E
:1029F300000006000006000006000007C0FF07E015
:102A0300FF03E0FF01000000000000003C000CFF9A
:102A1300018EFF03CF8307C70007E30006E3000629
:102A2300E30006C70007CF8303FEFF07FCFF07C0D1
:102A3300FF07000000000000C0FFFFE0FFFFE0FF12
:102A4300FF000000000000000000C0FFC7E0FFE738
:102A5300E0FFE700000000000000030080E303C084
:102A6300F307E07107E0380660380660380660183F
:102A730006E09C07C09F03808F0100020000000056
:102A8300000000E0FFFFE0FFFFE0FFFF00000700A2
:102A93000006000006000006000006008007E0FFB5
:102AA30003E0FF01000000C0FFFFE0FFFFE0FFFFC6
:102AB3000060E00060E00060E00060E00060E000D3
:102AC30060E00060E000E0E000E07100C07F0080B3
:102AD3003F00000E000000003C0000FF01C0FF03A8
:102AE300C08303E00007600006600006600006E0A4
:102AF3000006E00007C0E70380FF0100FF000000BD
:102B030000000000C0FF07E0FF07E0FF0700C0036D
:102B13000000070000070000070000060000060091
:102B23000006C0FF7FE0FF7FE00006E000066000D4
:102B33000600000000FF07C0FF07C0FF07E000001A
:102B4300E00000600000E00000E00000C00100E0E1
:102B5300FF07E0FF07C0FF0700000000000008FEBA
:102B6300008EFF01CFFF03C70107E30006E3000662
:102B7300E30006C30006C70107FEFF07FCFF07F8D3
:102B8300FF0700000000000000000080FF07C0FFF7
:102B930007E0FF07E00000600000600000E00000C5
:102BA300C00000C00700E0FF07E0FF0700000000CF
:102BB300000000000000FF0080FF01C0FF13E038A9
:102BC30077E038F66038E66038E6E038F6E03877E4
:102BD300C0FB13C0FB0100FB0000000000000080ED
:102BE300C300C0E303C0F307E07006603806603833
:102BF30006603806E01C07E09F07C08F03808F0044
:102C0300000000E0FFFFE0FFFFE0FFFFE0C0C0E0E7
:102C1300C0C0E0C0C0E0C0C0E0C0C0E0C0C0E0C011
:102C2300C0E0C0C0E0C0C0E0C0C0E000C000000021
:102C3300000000000300C0E303E0F307E070076057
:102C43003806603806603806601C06E09C07C09FA3
:102C530003C08F01000200000000000000FFFF0717
:102C6300FFFF07FFFF07C000036000076000066067
:102C73000006600007E00007C0FF0380FF0300FFBA
:102C830000000000000000800700C08F01E0DF03A8
:102C9300E01C07601806601806601806E03806C0D6
:102CA3003007C0FF07E0FF03E0FF01200000000042
:102CB30000000000E0FF07E0FF07E0FF670080631C
:102CC3000000C70000C6000066000066000067E061
:102CD300FFE7E0FF83E0FF00000000000000007E4C
:102CE3000080FF01C0FF03E08107E00007600006EA
:102CF300600006600006E00007E00107C0FF0380F4
:102D0300FF0100FF00000000000000E0FFFFE0FF04
:102D1300FFE0FFFF000000E0FFFFE0FFFFE0FFFF39
:102D230000E0C000E0C000E0C000E0C000E0C00080
:102D3300E0C000E0C000E0C000E0C00000C0000050
:102D430000000000000000E0FF07E0FF07E0FF03D2
:102D530000000700000700000700000700000080D4
:102D63000700C08F01E0CF03E09C076018066018DE
:102D730006601806603806C03806C0FF07E0FF0388
:102D8300E0FF01200000000000000000E0FF07E07A
:102D9300FF07E0FF070080030000070000060000B4
:102DA30006000006000007E0FF07E0FF03E0FF0066
:102DB300000000000000003C0080FF01C0FF03E3AF
:102DC3008107E300077B00067F00066F0006EE0025
:102DD30007E08107C0C30380C301000200000100B4
:102DE300C08701E0CF03E09C07601C076018066002
:102DF3001806601806E03806C03107E0FF07E0FF59
:102E030003E0FF00000000000000000000E0FFE717
:102E1300E0FFE7E0FFC700000000000080C301C03F
:102E2300E303E0F107E0380660380660380660180F
:102E330006601C07E09F07C08F03808F000000001F
:102E4300000000000000000000000000000000007F
:102E53000000000000000000000000F80003000074
:102E630000F8FF030000000CFE3F0000000C80FF91
:102E73000000000C80C30300000C80030700000C5B
:102E830080010C00000480F91800000680FD310069
:102E93000006808D61000006C08DE1000006C0D9E8
:102EA300C1030006C0F980FF7F07C00180FF77FFE1
:102EB300C000800360F8FF0180036000FC0F800303
:102EC3006000E03F8003600000308003600000305A
:102ED30080036000403080036000E01F80036000D7
:102EE300FE0F800360FCFF018003607FC00080034E
:102EF3006007C00180FF7F06C00180FF7F0680015D
:102F0300C00300068001E000000680017000000697
:102F130080013000000480011800000C80030E00C3
:102F2300000C00030700000C00E30100000C80FF0D
:102F33000000008CFF1F000000F83F030000007832
:102F4300000000000000000000000000000000007E
:102F5300000000000000000000000000000000006E
:102F6300000000000000000000000000FC0300005F
:102F73000080FF07000000C0070E000000E0010C06
:102F830000000030000C00000018001C0000001CB2
:102F9300001C0000001C003800FCFF3F003800FC50
:102FA300FF3F0038000C00300030000C0070007050
:102FB300000C00700060000C80600060000CC061B9
:102FC3000060000C60C300C0000C30C600C0000CE1
:102FD30060C700C0000CC0C300C0000C808101C0EA
:102FE300010C00800380010C00800380030C0000AF
:102FF300030003FCFFFF030003FCFFFF07000700C0
:10300300000007000600000006000600000006009E
:103013000E0000000E000E0000000C000C0000006B
:103023000C000C0000001C001C000000180018001D
:10303300000018001800000018001800000030807D
:103043003300000070F03F00000060F83F00000014
:10305300601E30000000C00F30000000C0033C00C1
:103063000000C0011F00000080E30700000080FF94
:1030730001000000001F000000000000000000002D
:103083000000000000FF7FFF7F0360036003600315
:1030930060036007700E38FC1FF00700000000009B
:1030A30000FF7FFF7F80018001800180018001801C
:1030B300018001FF7FFF7F000000000000FF7FFF12
:1030C3007F0078803FF8033F0003003F00F8038050
:1030D3003F0078FF7FFF7F0000040108013001C03B
:1030E300050205FF47002FC000200118060C040449
:1030F30000000002003C00C03F4022FE3F8201026C
:103103000E22122202FE7F2202420202000000006F
:10311300100010001C801FE013F8003C003800E092
:10312300000013001C00100010000004100410FC29
:103133001F041C841FE003FC003800E000040704A4
:103143001CFC1FFC1F041004100410FC1FFC1F04B4
:10315300110411041104110411841A8C1EF80C704B
:1031630000000004000C003C00C40140074018406C
:103173001C401FE403FC001C0004000400000004C6
:10318300100410FC1FFC1F0411041104110411048A
:1031930011C41704100C18100800000000041004D8
:1031A30010FC1FFC1F041104118011C011F0113811
:1031B3001B1C0E040E040000000008001000100485
:1031C300100410FC1FFC1F0410041000100010005A
:1031D30008000004100410FC1FFC1F04100410045A
:1031E3001004100C100808180CF007E0030000048A
:1031F300100410FC1FFC1F841084108000800084C6
:10320300108410FC1FFC1F041004100000000004B5
:103213000804080408FC0FFC1FFC1F04000400043E
:1032230000000000000000000018009C03941F84AD
:103233001D04110411041104118C11FC11F81070F8
:1032430010000004100410FC1FFC1F0411041100E3
:103253001100110011C0170010001800080000042D
:10326300100410FC1F0418040C00078003C001E0C5
:103273000030101810FC1F0010001004100410FC84
:103283001F041C841FE003FC003800E00004070453
:103293001CFC1FFC1F0410FFFFFFFF03FFFFFFFFCA
:1032A3003F03000000FC03021000E003073800C0E6
:1032B300830D6C00D0C318C600D8830D6C00DC03EB
:1032C300073800DC03021000CC03000000CE03002B
:1032D3000000C683FFFF01C783FFFF01C78301808F
:1032E30081C383018081C383018081C1830180C144
:1032F300C1830180C1C1830180C1C1830180E1C059
:10330300830180E1C0830180E1C0830180E1C08348
:103313000180E1C0830180E1C0830180C1C18301D9
:1033230080C1C1830180C1C1830180C1C183018088
:1033330081C183FFFF81C383FFFF01C3030000003B
:10334300C303000000C703021000C703073800C609
:10335300830D6C00CEC318C600CC830D6C00DC0358
:10336300073800D803021000D803000000D0FFFF85
:10337300FFFFC3FFFFFFFFDF03000000DE030000CA
:1033830000F003000000E0FFFFFF7FC0FFFFFFFF2F
:10339300C0030000C0C0030000C0C0030000C0C0E1
:1033A300FFFFFFFFC0FFFFFFFFC0000000C0FFFFE4
:1033B3001F00FFFF0700F8070030FC0060FC00C09F
:1033C300840080850000850000870000860000FEE1
:1033D3000000FE00000600000600000600000600D4
:1033E300000E00000E00000E00000E00000600009C
:1033F300060000060000060000FE0000FE00008636
:1034030000008700008500808500C0840060FC0008
:1034130030FC00F807FFFF07FF0F0000F80300FE72
:1034230003000706000306800306FF070CFF070CD3
:1034330000060C200C08500C18200C18001810FF64
:103443001F30FF1F300030200030600030600070FC
:10345300600060C00060F000E0FC00C0C600C0C3B4
:1034630000C0C10080FFFF81FF8381C18381C183CD
:1034730081C18381C18381C18381C18381C3E3818D
:10348300C7F3C3CC1F66D80F3CF00718E10780E2EF
:103493000740E40E80721C003938001CF0FF0FE077
:1034A300FF07C08103C08103C08103C08103C081C2
:1034B30003C08103C0FF03C0FF03003E007F80639E
:1034C30080C380C180C180C180C180C180C180C1EF
:1034D30080C180C180C180C180C180C180C180C1E1
:1034E30080C180C180C180C180C180C180C180C1D1
:1034F30080C180C180C180C1C0C1FFC07FC000C086
:1035030000C000C000600070FF3FFF1F000000FC10
:10351300FF3FFCFF3F001830001830001830001840
:1035230030001E30803F38E0311C78E01F1CC0079C
:10353300040000000000000000FCFF3FFCFF3F0010
:103543003000003000003000003000003000003058
:1035530000003000FCFF3FFCFF3F000000000000C4
:10356300000000C0FF3FF0FF3F7800003800001C60
:1035730000001800001C00001C0000380000F800C8
:1035830000F0FF3FC0FF3F0000000000000000000C
:10359300000000000000F8FF07F8FF07000000002C
:1035A3000000000000000000000000F8FF07F8FF23
:1035B3000700F003007C00801F00F00300F8FF0702
:1035C300F8FF0700000000000000000000000000FA
:1035D3000000F8FF07F8FF070000000000000000EC
:1035E30000000000000000000006000006000006C6
:1035F300F8FF07F8FF0700000600000600000600BA
:103603000000000000F8FF07F8FF07180006180085
:1036130006380007708003E0FF01807F0000000090
:10362300180000F80100E03F0000FF0300C307009B
:10363300FF03E03F00F80100180000000000000055
:1036430000000006000006000006F8FF07F8FF0769
:10365300000006000006000006000000180000F845
:103663000100E03F0000FF0300C30700FF03E03F4A
:1036730000F80100180000000000000000C0FF0077
:10368300F0FF03380007180006180006380007F09B
:10369300FF03C0FF00000000000000E0FF07F0FF91
:1036A30007380000180000180000380000F0FF077A
:1036B300E0FF070000000000000000060000060015
:1036C3000006F8FF07F8FF070000060000060000E9
:1036D30006000000000000F8FF07F8FF07000606D9
:1036E300000606000606000E0700FC0300F80100B2
:1036F3000000000000E0FF07F0FF0738000018009B
:1037030000180000380000F0FF07E0FF070000008A
:10371300000000000006000006000006F8FF07F89E
:10372300FF0700000600000600000600000000007E
:103733000000000018000018000000000000000056
:103743000000000000000000000000000000000076
:1037530000000000000080FFFF0100000000FEFFEA
:10376300FF7F000000C0FFFFFFFF030000F8FFFF23
:10377300FFFF0F0000FEFFFFFFFF3F0000FFFFFF03
:10378300FFFFFF0080FFFFFFFFFFFF01C0FF3F00C0
:1037930000FCFF03E0FF01000080FF07F03F000093
:1037A3000000FC0FF00F00000000F00FF80700000E
:1037B3000000E01FF80300000000C01FF801000034
:1037C3000000801FFC0100000000803FFC0000009F
:1037D3000000003FFC0000000000003FFC00000070
:1037E3000000003FFC0000000000003FFC00000060
:1037F3000000003FFC0000000000003FFC0100004F
:103803000000803FF80100000000801FF803000063
:103813000000C01FF80700000000E01FF00F0000C9
:103823000000F00FF03F00000000FC0FE0FF01007C
:103833000080FF07C0FF3F0000FCFF0380FFFFFF86
:10384300FFFFFF0100FFFFFFFFFFFF0000FCFFFF83
:10385300FFFF3F0000F0FFFFFFFF0F0000C0FFFF6F
:10386300FFFF03000000FEFFFF7F0000000080FF5A
:10387300FF01000000000000000000000000000045
:103883000000000000000000000000000000000035
:103893000000000000000000000000000000000025
:1038A3000000000000000000000000000000000015
:1038B30000FE00000000000000FC0100000000000A
:1038C30000FC01000000000000FC030000000000F9
:1038D30000F803000000000000F8070000000000EB
:1038E30000F00F000000000000F00F0000000000D7
:1038F30000E01F000000000000C03F0000000000C7
:1039030000C07F00000000000080FF0000000000F6
:103913000000FF01000000000000FE03F8FFFFFFAE
:10392300FFFFFF07F8FFFFFFFFFFFF0FF8FFFFFF9A
:10393300FFFFFF3FF8FFFFFFFFFFFF3FF8FFFFFF22
:10394300FFFFFF3FF8FFFFFFFFFFFF3FF8FFFFFF12
:10395300FFFFFF3F00000000000000000000000028
:103963000000000000000000000000000000000054
:103973000000000000000000000000000000000044
:103983000000000000000000000000000000000034
:103993000000000000000000000000000000000024
:1039A3000000000000000000000000000000000014
:1039B300000000007800000000000000F803000091
:1039C30000E00000F80F000000E00F00F81F000007
:1039D30000E03F00F87F000000F0FF00F8FF000068
:1039E30000F0FF01F8FF010000F0FF03F8FF0700FC
:1039F30000F0FF07F8FF0F000000FF07F8FF1F00AC
:103A03000000F80FF8FB3F000000F00FF8F37F0011
:103A13000000E01FF8C3FF000000C01FF883FF0091
:103A23000000801FF803FF010000803FF803FE033E
:103A33000000003FF803FC070000003FF803F80F05
:103A43000000003FF803F01F0000003FF803E03FD1
:103A53000000003FF803E07F0000003FF803C0FFD1
:103A63000000003FF80380FF0100803FF80300FFE0
:103A73000300803FF80300FE0700C01FF80300FCAB
:103A83001F00C01FF80300F83F00E01FF80300F019
:103A9300FF00F80FF80300C0FF07FE0FF8030080D4
:103AA300FFFFFF07F8030000FFFFFF03F803000019
:103AB300FEFFFF01F8030000F8FFFF00F80300001A
:103AC300F0FF7F00F8030000C0FF1F00F8030000B1
:103AD30000FE0300000000000000000000000000E2
:103AE30000000000008003000000000000F003005D
:103AF3000000030000FC030000001F0000FE07009D
:103B030000007F0080FF07000080FF00C0FF070068
:103B13000080FF01C0FF07000080FF03E0FF0100FA
:103B23000080FF07F03F00000000FE0FF00F0000D1
:103B33000000F00FF80700000000E01FF80300008A
:103B43000000C01FF80100000000801FFC0100807E
:103B53000700803FFC0000003F00003FFC00000026
:103B63003F00003FFC0000003F00003FFC0000005E
:103B73003F00003FFC0000003F00003FFC0000004E
:103B83007F00003FFC0000007F00003FFC0100803D
:103B93007F00803FF8010080FF00C01FF803008012
:103BA300FF01C01FF80300C0FF03F00FF00700E0A0
:103BB300FF0FF80FF00F00F0FFFFFF07E03F00F8E3
:103BC300F3FFFF03E0FF01FFE3FFFF03C0FFFFFF7E
:103BD300C1FFFF0180FFFFFF81FF7F0000FFFFFFA9
:103BE30000FE3F0000FEFF7F00F8070000F8FF1F04
:103BF3000000000000E0FF0F000000000000FF01D4
:103C03000000000000000000000000000000FE03B0
:103C1300000000000000FE0F000000000000FE1F77
:103C2300000000000000FE7F000000000000FEFF17
:103C3300010000000000FEFF030000000000FEFE84
:103C43000F0000000000FEFC1F0000000000FEF05B
:103C53007F0000000000FEC0FF0000000000FE80A7
:103C6300FF0300000000FE00FE0700000000FE004E
:103C7300FC1F00000000FE00F03F00000000FE00FB
:103C8300E0FF00000000FE0080FF03000000FE00D4
:103C930000FF07000000FE0000FC1F000000FE0004
:103CA30000F83F000000FE0000E0FF000000FE00FF
:103CB3000080FF010000FE000000FF070000FE007F
:103CC3000000FC0FF8FFFFFFFFFFFF3FF8FFFFFFC0
:103CD300FFFFFF3FF8FFFFFFFFFFFF3FF8FFFFFF7F
:103CE300FFFFFF3FF8FFFFFFFFFFFF3FF8FFFFFF6F
:103CF300FFFFFF3FF8FFFFFFFFFFFF3F0000FE0056
:103D0300000000000000FE00000000000000FE00B4
:103D1300000000000000FE00000000000000FE00A4
:103D2300000000000000FE00000000000000FE0094
:103D3300000000000000FE00000000000000000082
:103D430000000000008003000000000000F003C03A
:103D53000100000000FC03C07F00000000FF07C05B
:103D6300FF1F000080FF07C0FFFF0700C0FF07C061
:103D7300FFFFFF01E0FF07E0FFFFFF0FE0FF01E0B0
:103D8300FFFFFF0FF03F00C0FFFFFF0FF00F0080AA
:103D9300FFFFFF0FF80700007FE0FF0FF8030000AD
:103DA300FE00F80FF8010000FC00E00FFC0100002A
:103DB300FC00E00FFC000000F800E00FFC00000036
:103DC300F801E00FFC000000F801E00FFC00000028
:103DD300F801E00FFC000000F801E00FFC00000018
:103DE300F801E00FFC000000F801E00FFC01000007
:103DF300FC01E00FF8010000FC01E00FF8030000F4
:103E0300FE01E00FF8070000FE00E00FF00F0000D6
:103E1300FF00E00FF01F00807F00E00FE07F00E075
:103E23007F00E00FC0FF03FC3F00E00FC0FFFFFF78
:103E33001F00E00F80FFFFFF1F00E00F00FEFFFFEA
:103E43000F00E00F00FCFFFF0300E00F00F0FFFF97
:103E53000100E00F00C0FF7F000000000000FE0F24
:103E6300000000000000000000000000000000004F
:103E7300000000000000C0FFFF0000000000FEFF84
:103E8300FF3F000000C0FFFFFFFF010000F8FFFF3E
:103E9300FFFF070000FCFFFFFFFF1F0000FFFFFF06
:103EA300FFFF7F0080FFFFFF03FEFF00C0FF03FC57
:103EB3000FC0FF01E07F00E01F00FF03E01F008051
:103EC3001F00FC07F00F00003F00F007F0070000A1
:103ED3007E00E00FF80300007E00C01FF801000021
:103EE300FC00801FF8010000FC00801FFC000000A4
:103EF300F800803FFC000000F801003FFC000000D8
:103F0300F801003FFC000000F801003FFC00000046
:103F1300F801003FFC000000F801003FFC01000035
:103F2300FC01003FFC010000FC01803FF80300009E
:103F3300FC00803FF8030000FE00C01FF8070000EC
:103F4300FF00E01FF01F00807F00F81FF03F00E03C
:103F53007F00FE0FE0FF01FC3F80FF07C0FFFFFF74
:103F63001F80FF0780FFFFFF0F80FF0300FFFFFF9E
:103F73000780FF0100FEFFFF03007F0000F8FFFF43
:103F830001003F0000E0FF3F000007000000FE07C4
:103F9300000000000000000000000000000000001E
:103FA30000000000000000000000E00F000000001F
:103FB3000000E00F000000000000E00F0000000020
:103FC3000000E00F000000000000E00F0000000010
:103FD3000000E00F000000000000E00F0000000000
:103FE3000000E00FF80100000000E00FF83F0000C0
:103FF3000000E00FF8FF03000000E00FF8FF3F00B0
:104003000000E00FF8FFFF010000E00FF8FFFF07DB
:104013000000E00FF8FFFF3F0000E00F00FFFFFF8D
:104023000000E00F00C0FFFF0300E00F0000FCFFF3
:104033000F00E00F0000C0FF3F00E00F000000FE94
:10404300FF00E00F000000F0FF03E00F000000C0DE
:10405300FF07E00F00000000FE1FE00F000000005C
:10406300F83FE00F00000000E07FE00F00000000D9
:1040730080FFE10F0000000000FEE30F00000000DE
:1040830000F8E70F0000000000F0EF0F0000000051
:1040930000C0FF0F000000000080FF0F00000000C1
:1040A3000000FE0F000000000000FC0F00000000F5
:1040B3000000F00F000000000000E00F000000000F
:1040C3000000C00F0000000000000000000000001E
:1040D300000000000080FF010000000000F0FF0F5F
:1040E3000000000000FCFF3F00F8070000FEFF7F18
:1040F30000FE3F0000FFFFFF80FFFF0080FFFFFF88
:10410300C1FFFF01C0FFFFFFE3FFFF03E0FF00FF6D
:10411300E3FFFF07F03F00FCF7FFFF07F00F00F09E
:10412300F70FFC0FF80700E0FF03F00FF80300C0E0
:10413300FF01E01FF8030080FF00C01FFC010080A7
:104143007F00803FFC0100807F00803FFC00000077
:104153003F00003FFC0000003F00003FFC00000068
:104163003F00003FFC0000003F00003FFC00000058
:104173003F00003FFC0000003F00003FFC010080C7
:104183007F00803FFC0100807F00801FF80100C09A
:10419300FF00C01FF80300C0FF01E01FF80700E0A5
:1041A300FF03F00FF00F00F0FF0FFC0FF01F00FCF8
:1041B300F3FFFF07E0FF00FFE3FFFF07C0FFFFFF81
:1041C300E1FFFF0380FFFFFFC1FFFF0100FFFFFFD0
:1041D30080FF7F0000FEFF7F00FE3F0000FCFF1F0B
:1041E30000F8070000F0FF0F000000000080FF014F
:1041F30000000000000000000000000000000000BC
:104203000000000000000000E0FF000000E00000EC
:10421300FCFF070000FC0080FFFF1F0000FF00C041
:10422300FFFF7F0080FF01E0FFFFFF00C0FF01F001
:10423300FFFFFF01E0FF01F8FFFFFF03F0FF01FCB9
:104243003FC0FF07F07F00FE0700FE0FF80F00FEE0
:104253000100F80FF80700FF0000F01FF803007FCC
:104263000000E01FFC01007F0000C01FFC01803F35
:104273000000803FFC00803F0000803FFC00801F67
:104283000000003FFC00801F0000003FFC00801F77
:104293000000003FFC00801F0000003FFC00801F67
:1042A3000000003FFC01001F0000003FF801003F39
:1042B3000000801FF803003F0000801FF803003E4A
:1042C3000000C01FF007007E0000C00FE00F00FCDD
:1042D3000000E00FE03F00F80100F807C0FF00F026
:1042E3000700FC0780FF07E03F80FF0300FFFFC1DB
:1042F300FFFFFF0100FEFFFFFFFFFF0000F8FFFFCE
:10430300FFFF3F0000E0FFFFFFFF1F000080FFFFF4
:10431300FFFF07000000FCFFFFFF0000000000FF9D
:10432300FF07000000000000000000000000000084
:10433300000000000000000000000000000000007A
:1043430000001FCC000C000000000000000008006B
:10435300300060000800300060000000022003FC11
:104363001E20022003FC1E2002200000007809FC0E
:1043730019041A040B0419FC01FC00000F0010843B
:104383000F3800C0077818840078000000780F8485
:1043930010C411240E9800E400840008080068008B
:1043A300700000000000000000000000000000009A
:1043B300000007E01818200440020000000040023B
:1043C3002004181807E0000000000000024002402B
:1043D30001800FF001800240024000000080008055
:1043E30000800FF800800080008000000001000DB5
:1043F300000E00000000000000000000000000802C
:104403000080008000800080008000800000000C9D
:10441300000C000000000000000000000000000687
:10442300001800600180060018002000000007F05B
:10443300080810041004080807F00000000008042E
:1044430008041FFC000400040000000000000E0C20
:1044530010141024104411840E0C000000000C18DA
:1044630010041104110412880C700000000000E015
:104473000320042408241FFC0024000000001F98CC
:10448300108411041104108810700000000007F05C
:1044930008881104110418880070000000001C0033
:1044A300100010FC13001C001000000000000E3868
:1044B30011441084108411440E38000000000700DA
:1044C300088C10441044088807F000000000000026
:1044D3000000030C030C00000000000000000000BB
:1044E3000001010600000000000000000000008041
:1044F30001400220041008081004000002200220DA
:1045030002200220022002200220000000001004EA
:1045130008080410022001400080000000000E0083
:104523001200100C106C10800F00000003E00C1838
:1045330013E4142417C4082807D000000004003C27
:1045430003C41C40074000E4001C000410041FFCCB
:104553001104110411040E880070000003E00C180C
:1045630010041004100410081C10000010041FFC99
:10457300100410041004080807F0000010041FFCC6
:104583001104110417C410040818000010041FFCC0
:104593001104110017C010000800000003E00C18FC
:1045A3001004100410441C780040000010041FFC89
:1045B30010840080008010841FFC1004000010048D
:1045C30010041FFC1004100400000000000300018D
:1045D300100110011FFE10001000000010041FFC4A
:1045E300110403801464181C1004000010041FFC41
:1045F3001004000400040004000C000010041FFC5D
:104603001F0000FC1F001FFC1004000010041FFC0F
:104613000C04030000E010181FFC100007F008084A
:10462300100410041004080807F0000010041FFC15
:1046330010841080108010800F00000007F008180D
:1046430010241024101C080A07F2000010041FFC99
:104653001104110011C011300E0C000400000E1CD7
:1046630011041084108410441C380000180010003A
:1046730010041FFC100410001800000010001FF8A5
:1046830010040004000410041FF8100010001E00A2
:1046930011E0001C007013801C0010001FC0103CB0
:1046A30000E01F0000E0103C1FC000001004180CC5
:1046B300163401C001C01634180C100410001C007D
:1046C300130400FC13041C00100000000804101C59
:1046D3001064108413041C04101800000000000070
:1046E30000007FFE40024002400200000000300054
:1046F3000C0003800060001C000300000000400267
:10470300400240027FFE000000000000007801FC30
:1047130005040A040B0401FC01FC0000007800CC32
:1047230005440542094401C400000000007801FC6F
:10473300090412041B040DFC01FC00000000009896
:10474300012401440144014400FC000410001FFC47
:10475300008801040104008800700000000000705C
:1047630000880104010401040088000000000070B7
:1047730000880104010411081FFC0004000000F874
:10478300014401440144014400C800000000010445
:1047930001040FFC1104110411001800000000D6DD
:1047A30001290129012901C90106000010041FFC88
:1047B300008401000100010400FC00040000010466
:1047C300190419FC000400040000000000000003A9
:1047D30000010101190119FE0000000010041FFC73
:1047E3000024004001B4010C010400000000100487
:1047F30010041FFC0004000400000000010401FC7D
:104803000104010001FC0104010000FC010401FC9E
:10481300008401000100010400FC0004000000F812
:10482300010401040104010400F80000010101FF77
:10483300008501040104008800700000000000707E
:10484300008801040104010501FF000101040104C2
:1048530001FC00840104010001800000000000CC81
:104863000124012401240124019800000000010017
:10487300010007F80104010400000000010001F831
:10488300000400040004010801FC0004010001808D
:104893000170000C001001600180010001F0010CA7
:1048A300003001C00030010C01F0010000000104E0
:1048B300018C00740170018C01040000010101816D
:1048C3000171000E001801600180010000000184E5
:1048D300010C013401440184010C000000000000BC
:1048E3000000000001003EFC400240020000000006
:1048F30000000000FFFF0000000000000000400275
:1049030040023EFC010000000000000000006000C7
:1049130080008000400040002000200000000000D4
:104923000000000000000000000000000000000084
:104933000000000000000000000000000000000074
:104943000000000000000000000000000000003F25
:10495300C00C7FFF9E3FC00C000000000000000061
:10496300000000000000000000003800003F0000CD
:104973003800000000000000003800003F0000384D
:10498300000000000000000000410000410007FF9C
:10499300F807FFF80082000082000082000FFFF09A
:1049A3000FFFF00104000104000000000001E0001B
:1049B30007F8018C1803100C03300C01A00C0190B4
:1049C3000801981803BFFC00000C00000000000061
:1049D3000F800C1FC0382020E02021801FC7000F4C
:1049E3009CF80071FC00C2020382020E01FC180055
:1049F300F80000000007F00F1FF811E00C2060041E
:104A030020B804210E0C1E03880001D8000070009A
:104A1300027800038C000204000000000000000084
:104A2300000000000000003C00003F80003C00004C
:104A33000000000000000000000000000000000073
:104A4300000000000000000000000001FF8007FFDD
:104A5300E01E007830000C400002800001000000DE
:104A630000000080000140000230000C1E007807A7
:104A7300FFE001FF800000000000000000000000D4
:104A83000000000001818001C38000C300002400F6
:104A93000600600FC3F006006000240000C300019D
:104AA300C38001818000000000000000180000188E
:104AB3000000180000180001FF8001FF80001800AB
:104AC300001800001800001800000000000000009B
:104AD300000000000000003100007B00007E0000A9
:104AE3003C00000000000000000000000000000087
:104AF3000000000018000018000018000018000053
:104B03001800001800001800001800001800001812
:104B1300000000000000000000000000000000187A
:104B230000003C00003C00001800000000000000F2
:104B3300000000000000000000000C00003800002E
:104B4300E0000380000E0000380000E00003800056
:104B53000E000038000060000000000000FF0003AA
:104B6300FFC00F00F01C003830000C2000043000A0
:104B73000C1C00380F00F003FFC000FF0000000012
:104B83000000000800000800041800041800043F97
:104B9300FFFC3FFFFC0000040000040000040000D1
:104BA3000000000006001C0F007C1F00FC3001CC3D
:104BB30020030C20060C200C0C30180C18700C0F62
:104BC300E00C07803C0000000000300C00781E0061
:104BD3007C1E000C30100420100420380430680CB4
:104BE30018CC181F87F80F03F000000000018000A5
:104BF3000780001C8000708001C0800700841C00B7
:104C0300843FFFFC3FFFFC00008400008400008021
:104C13000000303FF8783FF07C30100C3020043037
:104C2300400430400430600C303838301FF0000747
:104C3300C000000003FFC00FFFF01C103830200C31
:104C43002040042040043040043E600C1E38380CE1
:104C53001FF00007C00000001E00003800003000F5
:104C6300003000003001FC300FFC303E0030F0001B
:104C73003380003E00003800000000000003E00F16
:104C830007F01F8C1830D80C2070042030042070DB
:104C93000430D80C1F8C180F07F00003E00000004D
:104CA30003E0000FF8301C1C7830067C20020C2037
:104CB300020420020430040C1C08380FFFF003FF29
:104CC300C000000000000000000000000000000021
:104CD30001818003C3C003C3C001818000000000C1
:104CE30000000000000000000000000000000000C1
:104CF3000000000001818803C3D803C3F00181E0F1
:104D03000000000000000000000000000008000098
:104D13001C0000360000630000C1800180C0030056
:104D2300600600300C001818000C1000040000008E
:104D330000000000C30000C30000C30000C3000064
:104D4300C30000C30000C30000C30000C30000C3CE
:104D53000000000010000418000C0C0018060030BE
:104D63000300600180C000C18000630000360000C2
:104D73001C000008000000000000000600000F00F7
:104D8300001E000030000020000C200F9E20380C75
:104D930030E0001FC0000F000000000007FFE00824
:104DA300001010FF0821FF842301842201842201C3
:104DB3000423FF0411FF8408008807FF100000008C
:104DC30000000400007C000FFC00FF040FC2003051
:104DD30002003C02000FC20000FF04000FFC0000B1
:104DE3007C0000042000043FFFFC3FFFFC20100474
:104DF30020100420100430380418680C0FCE380734
:104E030087F00001C000000003FFC00FFFF01C008B
:104E13003830000C20000420000420000430000C73
:104E23001800181C00703E00600000002000043FC2
:104E3300FFFC3FFFFC20000420000420000430009E
:104E43000C1800180E007007FFE001FF800000003F
:104E53002000043FFFFC3FFFFC201004201004202F
:104E6300100420380420FE0430000C38001C3E00DF
:104E73007C0000002000043FFFFC3FFFFC201004E7
:104E830020100020100020380020FE0030000038E1
:104E930000003E000000000003FFC00FFFF01C00F5
:104EA3003830000C20000420000C300018101030A3
:104EB300181FFC3E1FFC0010000000002000043FF0
:104EC300FFFC3FFFFC201004001000001000001046
:104ED300002010043FFFFC3FFFFC20000400000003
:104EE3000000000000000000002000042000042057
:104EF30000043FFFFC3FFFFC2000042000042000CF
:104F0300040000000000700000F80000EC00004402
:104F130000000420000C20000C3FFFF83FFFF020AE
:104F230000002000000000002000043FFFFC3FFFC2
:104F3300FC201E0400780001FE002787803E01E468
:104F430038007C20001C2000040000042000043FE3
:104F5300FFFC3FFFFC2000040000040000040000ED
:104F63000400000400000C00001C00007C00000092
:104F73002000043FFFFC3FFFFC03E004003C000073
:104F83000780000780003C0003E0043FFFFC3FFF75
:104F9300FC2000042000043FFFFC3FFFFC078004CB
:104FA30000E000003800000E002003C03FFFF03F88
:104FB300FFFC20000000000007FFE00FFFF01800D7
:104FC3001830000C20000420000420000430000CE2
:104FD3001800180FFFF007FFE00000002000043F57
:104FE300FFFC3FFFFC2008042008002008003018C5
:104FF300001010001C70000FE00003800000000090
:1050030007FFE00FFFF018001830000C20004420C9
:10501300006420003430001818000C0FFFFE07FF57
:10502300F20000022000043FFFFC3FFFFC201004BD
:10503300201C00201F003033C01860F41FE03C0721
:10504300800C0000040000000F00FC1F807811C0DA
:105053003030E01820700C203804301C04180E0C7B
:105063001C07183E03F00001E00000003E0000387A
:1050730000003000002000042000043FFFFC3FFF3D
:10508300FC2000042000043000003800003E000033
:105093002000003FFFF03FFFF820000C0000040059
:1050A300000400000420000C3FFFF83FFFF0200045
:1050B300000000002000003F00003FFC0020FFC074
:1050C3000003F800003C0003F820FFC03FFC003F52
:1050D30000002000000000002000003FC0003FFF50
:1050E300C02001FC00003C003FC0003FC000003C6A
:1050F3002001FC3FFFC03FC0002000002000043817
:10510300001C3E007C2781E401E780007E00007ED6
:105113000001E7802781E43E007C38001C20000466
:105123002000003800003F000027E00400F80400DE
:105133001FFC001FFC00F80427E0043F00003800B8
:10514300002000003E003C3800FC3003C4200F0464
:10515300203C0420F00423C0042F00043C000C383E
:10516300001C00007C0000000000000000000000A4
:1051730000000000000000FFFFFF8000018000012D
:105183008000018000018000010000006000003801
:1051930000000E000003800000E000003800000E55
:1051A300000003800000E000003800000C00000055
:1051B3000000008000018000018000018000018068
:1051C3000001FFFFFF0000000000000000000000DE
:1051D300000000000001E00007F8000C1800900C2C
:1051E30001B00C01A00C011008011818003FFC00CD
:1051F300000C0000000000000000000007E0001F9A
:10520300F000943001A41801A40801240802240822
:10521300001C10000C200000000000000000000033
:105223000000400000C00000E0000060000020001B
:10523300003000001000001000000000000000001B
:105243000010780038F800798C0051040043040002
:10525300420400420C006208003FF8001FFC0000FB
:10526300040000002000043FFFFC3FFFF80030185B
:1052730000600C00400400400400600C003838005B
:105283001FF00007C00000000007C0001FF0003837
:105293003800600C0040040040040040040068042F
:1052A300003C0C003C180018100000000007C00070
:1052B3001FF000383800600C004004004004004038
:1052C3000400600C2030183FFFF83FFFFC00000093
:1052D3000007C0001FF000393800610C00410400D2
:1052E300410400410400610400390C001F18000749
:1052F300100000000040000040040040040FFFFCC9
:105303001FFFFC3040042040042040003800003CD4
:105313000000180000000000001C3C003EFE00637B
:10532300C3004141004161004121006321003E313E
:10533300003C3300601E00600C0000002000043FAE
:10534300FFFC3FFFFC001804003000006000004039
:1053530000006004003FFC001FFC0000040000008C
:105363000000000000000000000040041840043C5E
:105373007FFC3C7FFC1800040000040000000000D8
:105383000000000000000C00001E00001F000009C8
:105393000000011840013C40033C7FFE187FFC00E5
:1053A30000000000000000002000043FFFFC3FFF5E
:1053B300FC000304000600000F00005BC00070F453
:1053C30000603C00400C00400400000000000000AE
:1053D30000000000002000042000043FFFFC3FFF0A
:1053E300FC000004000004000000000000000000B6
:1053F300004004007FFC007FFC00200400600000EC
:105403007FFC003FFC006004006000007FFC003F65
:10541300FC000004004004007FFC007FFC00180433
:10542300003000006000004000006004003FFC000A
:105433001FFC0000040000000007C0001FF000383C
:105443003800600C00400400400400400400600C7D
:10545300003838001FF00007C000000000400100C2
:105463007FFF007FFF00306100603000401000408C
:10547300100060300038E0001FC00007000000008B
:10548300000700001FC00038E0006030004010003B
:105493004010006030003061003FFF007FFF0000DC
:1054A30001000000004004007FFC007FFC001804A2
:1054B3000030000060000040000040000078000061
:1054C3003800001000000000001C38003E18006681
:1054D3000C00430400430400410400418400618440
:1054E3000030CC0038F800007000000000400000DD
:1054F300400000400007FFF00FFFF800400C0040A1
:105503000400400400400C0040380000300000005C
:10551300004000007FF0007FF800000C0000040052
:10552300000C000018004030007FFC007FFC0000EE
:1055330004000000004000007000007E00004FC027
:105543000001F800003C0001F8004FC0007E00009D
:105553007000004000000000004000007C00007F5D
:10556300C00043FC00007C000FC0000FC000007CA3
:105573000043FC007FC0007C0000400000400400AA
:10558300701C00783C004C640007C00003800007D7
:10559300C0004C6400783C00701C00400400000014
:1055A300004006006007007801005E0100078700E5
:1055B30001FE0001F8004FC0007E000070000040B3
:1055C3000000000000001C00703C0040640040C468
:1055D300004184004304004604004C0400580400C6
:1055E300700C00603C0000000000000000000000A0
:1055F30000001800003C003FE7FC7FC3FEC000032F
:105603008000018000018000010000000000000014
:105613000000000000000000000000FFFFFFFFFF8C
:10562300FF00000000000000000000000000000078
:10563300000000800001800001800001C000037FA2
:10564300C3FE3FE7FC003C00001800000000000020
:1056530000000000000800001800003000002000D7
:10566300003000001000000800000C0000040000DF
:105673000C00001800001000000300000F000039A8
:105683000000E1000381000E010003810000E1003E
:10569300003900000F0000030000000007FFF81F9F
:1056A300FFE00000FFFF7BEF001FF98B81C007E0E5
:1056B300F210E709F608DFFA8046E709F208DFFA95
:1056C300803E88828C83E709F0A3DFFA8032E30906
:1056D300F608DFFA8078E309F208DFFA807088823F
:1056E3008C83E309F0A3DFFA806489828A83E0A3D1
:1056F300F608DFFA805889828A83E0A3F208DFFA8A
:10570300804C80D280FA80C680D4806980F2803356
:10571300801080A680EA809A80A880DA80E280CA1E
:10572300803389828A83ECFAE493A3C8C582C8CC08
:10573300C583CCF0A3C8C582C8CCC583CCDFE9DE62
:10574300E7800D89828A83E493A3F608DFF9ECFAF4
:10575300A9F0EDFB2289828A83ECFAE0A3C8C58213
:10576300C8CCC583CCF0A3C8C582C8CCC583CCDF65
:10577300EADEE880DB89828A83E493A3F208DFF917
:1057830080CC88F0EF60010E4E60C388F0ED2402F8
:10579300B4040050B9F582EB2402B4040050AF23E3
:1057A3002345822390570573BB010689828A83E0D0
:1057B300225002E722BBFE02E32289828A83E4931A
:1057C30022BB010CE58229F582E5833AF583E022C9
:1057D3005006E92582F8E622BBFE06E92582F8E2B7
:1057E30022E58229F582E5833AF583E49322BB011E
:1057F3000689828A83F0225002F722BBFE01F3223C
:10580300F8BB010DE58229F582E5833AF583E8F0DB
:10581300225006E92582C8F622BBFE05E92582C887
:10582300F222EF8DF0A4A8F0CF8CF0A428CE8DF057
:10583300A42EFE22BC000BBE0029EF8DF084FFAD29
:10584300F022E4CCF875F008EF2FFFEE33FEEC33D3
:10585300FCEE9DEC984005FCEE9DFE0FD5F0E9E4CF
:10586300CEFD22EDF8F5F0EE8420D21CFEADF075EE
:10587300F008EF2FFFED33FD4007985006D5F0F207
:1058830022C398FD0FD5F0EA22C2D5EC30E709B266
:10589300D5E4C39DFDE49CFCEE30E715B2D5E4C32B
:1058A3009FFFE49EFE125837C3E49DFDE49CFC80F9
:1058B3000312583730D507C3E49FFFE49EFE22C589
:1058C300F0F8A3E028F0C5F0F8E582158270021520
:1058D30083E038F022EF2BFFEE3AFEED39FDEC3892
:1058E300FC22C3EF9BFFEE9AFEED99FDEC98FC22A0
:1058F300E88FF0A4CC8BF0A42CFCE98EF0A42CFC54
:105903008AF0EDA42CFCEA8EF0A4CDA8F08BF0A4D1
:105913002DCC3825F0FDE98FF0A42CCD35F0FCEB30
:105923008EF0A4FEA9F0EB8FF0A4CFC5F02ECD39F5
:10593300FEE43CFCEAA42DCE35F0FDE43CFC2275EC
:10594300F008758200EF2FFFEE33FECD33CDCC335D
:10595300CCC58233C5829BED9AEC99E58298400CC5
:10596300F582EE9BFEED9AFDEC99FC0FD5F0D6E4A3
:10597300CEFBE4CDFAE4CCF9A88222B800C1B90089
:1059830059BA002DEC8BF084CFCECDFCE5F0CBF9EA
:105993007818EF2FFFEE33FEED33FDEC33FCEB33E2
:1059A300FB10D703994004EB99FB0FD8E5E4F9FA10
:1059B300227818EF2FFFEE33FEED33FDEC33FCC9F5
:1059C30033C910D7059BE99A4007EC9BFCE99AF988
:1059D3000FD8E0E4C9FAE4CCFB2275F010EF2FFFF7
:1059E300EE33FEED33FDCC33CCC833C810D7079B61
:1059F300EC9AE899400AED9BFDEC9AFCE899F80FC4
:105A0300D5F0DAE4CDFBE4CCFAE4C8F922EF5BFF8E
:105A1300EE5AFEED59FDEC58FC22EF4BFFEE4AFE29
:105A2300ED49FDEC48FC22CFF4CFCEF4CECDF4CD3E
:105A3300CCF4CC22EB9FF5F0EA9E42F0E99D42F0D4
:105A4300EC6480C864809845F022EB9FF5F0EA9EF1
:105A530042F0E99D42F0E89C45F022E8600FECC378
:105A630013FCED13FDEE13FEEF13FFD8F122E860F4
:105A73000FEFC333FFEE33FEED33FDEC33FCD8F110
:105A830022E0FCA3E0FDA3E0FEA3E0FF22E0F8A3F5
:105A9300E0F9A3E0FAA3E0FB22ECF0A3EDF0A3EE20
:105AA300F0A3EFF022A8828583F0D083D082125A2C
:105AB300BF125ABF125ABF125ABFE473E493A3C56D
:105AC30083C5F0C583C8C582C8F0A3C583C5F0C527
:105AD30083C8C582C822A42582F582E5F03583F503
