:10000000026227F07B10FA7D14FC2202B398C2959D
:100010000270BE02B377EE30E707C3E49FFFE49EB1
:02002000FE22BE
:1000230002B349564842313541002D2D2D454E002E
:100033002D2D2D564D00322E302E33410000000061
:100043000000001F3E00000000000000801F7E0033
:10005300000000000000801F7E0000000000000080
:10006300801F7E0000000000000080FF7F00000072
:100073000000000080FF7F0000000000000080FF00
:100083007F0000000000000080FF7F0000000000F0
:10009300000080FF7F0000000000000080FF7F0061
:1000A30000000000000080FF7F000000000000004F
:1000B30080FF7F0000000000000080FF7F00000041
:1000C3000000000080FF7F0000000000000080FFB0
:1000D3007F0000000000000080FF7F0000000000A0
:1000E300000000FE370000000000000000FE0700D3
:1000F30000000000000000FE0300000000000000FC
:1001030000FE030000000000000000FE03000000EA
:100113000000800F00FF030000000000E03F00FF2D
:10012300010000000000F07F00FF0100000000005C
:10013300F0FF80FF010000000000F0FFFBFF000064
:1001430000000000FCF8FFFF000000000000FCF8C6
:10015300FF7F0000000000007CE0FF3F0000000084
:1001630000007EE0FFBF0100000000007EC0EF9FA3
:10017300031E000000003F00F09F077F0000008087
:100183003F00F08FCF7F000000803F00F88FFFFF1C
:10019300000000801F00FE07FFFF000000801F001B
:1001A300FF03FEFF010000C01F80FF03FCF90300F3
:1001B30000C00F80FF01FCF0030000C00FC0FF016F
:1001C30000F00300C0F903E0FF0000E00700E0FFD8
:1001D30003F87F0000C00700F8FF0FFF3F0000C0D7
:1001E3000700FEFFFFFF1F0000C00F00FFFFFFFF20
:1001F3001F0000800FC07F9FFFFF0F0000800FE0F4
:10020300FF07FFFF030000001FF8CF03FEFF0000FE
:1002130000001FFCC703FE7F000000001FFCE1037A
:10022300FF1F000000003FFCE087FF01000000000B
:100233003E3CE0FF7F00000000003E00C0FF7F0067
:10024300000000003E00C0FF3F00000000003C0033
:10025300C0FF3F00000000003800FEFF1F00000049
:1002630000000000FFFF0F000000000000E0FFC7D8
:1002730007000000000000F0FF0300000000000082
:1002830000F0FF0100000000000000F0010000008A
:10029300000000000000000000000000000000005B
:1002A30000000000000000000000F00F00600000EC
:1002B30000000000FC3F00F8000000000000FFFF0A
:1002C30000FC000000000000FFFFFFFF0000000033
:1002D3000000FFFDFF7F0000000000007FF8FF3FEC
:1002E3000000000000000EF8FF0F000000000000F7
:1002F3000080FF0300000000000000007F000000FA
:1003030000000000000000000000000000F80100F1
:1003130000000000000000F81F00000000000000C3
:1003230000F8FF0000000000000000E0FF070000ED
:10033300000000000000FF3F00000000000000007C
:10034300FCFF070000000000000CE0FF3F0000007E
:10035300000000FC80FFFF030000000000FC00FC25
:10036300FF0F0000000000FC03C0FF3F000000007F
:1003730000FC0F00FCFF0000000000F83F00E0FF5E
:100383000100000000F0FF0000FF0F0000000080EC
:10039300FF0100F80F0000000000FF0100F03F0024
:1003A30000000000FC0100C0FFFF00000000FC0192
:1003B3000000FFFF03000000FC0100C0FFFF3F003F
:1003C3000000FC0100F8FFFFFF000000FC0100FC3F
:1003D300FFFFFF010000FC01C0FF7FC0FF0700001B
:1003E300FC01FCFF0F00FE0F0000F883FFEF070086
:1003F300F03F0000F8C3FFFF0700C07F0000F0F7E5
:10040300FF9F0F0000FF0000F0FF3F1F1F0000FED3
:100413000100E0FF033E1F0000F80300E0FF033E7E
:100423003E0000F80700E03F007C3E0000F00700BC
:10043300E01F007C7C0000E00F00E00F00F87C0070
:1004430000C00F00E00F00F0F90000801F00E0077C
:1004530000F0F10100801F00E00700E0F3010080DD
:100463001F00F00300C0E70300003F00FC0300C0CF
:10047300C70700003F80FF030080CF0700003FF85D
:10048300FF0100809F0F00003EFCFF0000003F0FB4
:1004930000003EFC1F00C0013E3E00003EFC030086
:1004A300F0037E3E00003CFC0000F000FC3C00003A
:1004B3003C000000F800F87C00003C000000F8005D
:1004C300F8F900003C000000F801F0F100003C00E6
:1004D3000000F801F0F301003E000000F807E0E738
:1004E30003003E000000F03FC0C703003E000000D1
:1004F300F07FC0CF07003E000000C0FFFF9F0F004A
:100503003F00000000FEFF3F0F003F00000000F827
:10051300FF3F1E001F0000000080FF7F3E801F0082
:1005230000000000FC7F3CC01F0000000000F0FF43
:1005330078C00F000000000000F8F1E00F00000099
:10054300000000F8F3F007000000000000F0E7F9F6
:1005530003000000000000F0E7FD010000C0770089
:1005630000E0CFFF010000FCFF0000C0CF7F0000D0
:1005730000FEFF1F00C0DF7F000080FFFF3F008001
:10058300DF3F0000F0FFFFFF03C0FF1F0000FF3F3E
:10059300F0FFFFFDFF0700FCFF0700FFFFFFFF0168
:1005A30000FCFF0100F0FFFF7F0000FCFF0000E004
:1005B300FFFF3F0000FC1F000000FEFF010000FCE6
:1005C3000700000000000000000000000000000021
:1005D30000000000000000000000000000FEFFFF1C
:1005E3007FFEFFFF7FFEFFFF7FFEFFFF7FFEFFFF1C
:1005F3007F00C0077C00C0077C00C0077C00C007E9
:100603007C00C0077C00C0077C00C0077C00C007DB
:100613007C0000007C0000007C0000000000F80F5C
:100623000000FFFF00C0FFFF07F0FFFF0FF8FFFF11
:100633003FFC01003FFE00007C7F0000FC3F000008
:10064300FC3F0000FC3F0000FC3F0000FC7E00007C
:100653007CFC00007CFC03003FF8FFFF1FF0FFFF62
:100663000FC0FFFF0300FFFF0000F00700000000C2
:10067300000000000000FE3F0080FFFF01E0FFFFDD
:1006830007F8FFFF1FF80FC03FFC01003F7E00008B
:100693007E7E0000FC1F0000FC3F0000F83FF001DD
:1006A300FC3EF001FC7EF0017EFCF0817FFCFBE16F
:1006B3003FFFFFE10FFFFFE107FFFFE10100000044
:1006C3000000000000000000000000000000000027
:1006D3000000000000000000000000000000000017
:1006E30000000000007F00F000FF00F803FF03F8A4
:1006F3000FFF07F81FFF0FC03FDF1F003E1F3F0024
:100703007C1F7C00781FF8007C1FF0037E1FE0FF36
:100713003F1FC0FF1F1F80FF0F1F00FE07000000C9
:100723000000000000000000000000F0000000F0E6
:10073300010000F0010000F0030000E003FFFFFFF1
:100743000FFFFFFF3FFFFFFF7FFFFFFF7FFFFFFF66
:100753007F000000000000000000000000003F00D8
:1007630000007F000000FF010000FF070000FF1FE3
:1007730000008F3F00000FFC00000FF003000FC0CC
:100783000FFFFFFF3FFFFFFF7FFFFFFF7FFFFFFF26
:100793003F000F0000000000000000000000FEFF0B
:1007A3000080FFFF03E0FFFF07F8FFFF1FFC0100CE
:1007B3003F7E00003E3E00007C3E0000781E0000AD
:1007C3007C3E00007EFC00003FFCFFFF1FF0FFFFAC
:1007D3000FC0FFFF0300FEFF01060000003E000004
:1007E30000FE030000FE3F0000FEFF0300E0FF7F6A
:1007F3000000FFFF0300EFFF3F000FFC7F000F80AF
:100803007F000F807F000FF87F00DFFF3F00FFFFB7
:1008130003F0FF7F00FEFF0700FE3F0000FE030022
:10082300003E000000000000000000000000000087
:10083300000000F8FFFFFFFF3FE0FF1FF0FF0FC0C6
:10084300FF0FE0FF0300FF07C0FF0000FF03C0FF2F
:100853000000FF0380FF0000FF0380FF0000FF0391
:1008630080FF0000FF0380FF0000FF0380FF000004
:10087300FE03C0FF0080FF07E0FF01E0FF0FF0FF72
:1008830007F0FF3FF8FF1FF0FFFFFFFF1F0000F01F
:100893000F00000000F00F00000000F00F00000048
:1008A30000F00F00000000F00F00000000F00F0048
:1008B300000000F00F00000000F00F00000000F047
:1008C3000F00003000F00F00087800F81F001EF83A
:1008D30001FE7F001FFC87FFFFC13FFECFFFFFF735
:1008E3003FFEFFFFFFFF7FFFFFFFFFFFFFFEFFFF57
:1008F300FFFFFFF8FFFFFFFF3FFEFFFFFFFF7FFF4D
:10090300FFFFFFFFFFFFFFFFFFFF7FFEFFFFFFFF75
:100913007FFCCFFFFFE33FFC03FFFFC13FF800FC79
:100923007F001F3800F01F001C1000F00F000000B4
:1009330000F00F00000000F00F00000000F00F00B7
:10094300000000F00F00000000F00F00000000F0B6
:100953000F00000000F00F00000000F00F00000087
:100963000000000070FFFF7FFFFF7FFFFF7FFFFF9F
:100973007FFFFF7FFFFF7FFFFF7FFFFF7FFFFF7F84
:10098300FFFF7FFFFF7FFFFF7FFFFF7FFFFF7FFFF4
:10099300FF7F000070000000000000E0FFFFF8FF91
:1009A300FFFCFFFFFEFFFFFEFFFFFFFFFFFFFFFF59
:1009B300FFFFFFFFFFFFFEFFFFFEFFFFFCFFFFFC4C
:1009C300FFFFF0FFFF0000000000000000FFFFFF3B
:1009D300FF03FFFFFFFF03FFFFFFFF03FFFFFFFF18
:1009E30003FFFFFFFF03FFFFFFFF03FFFFFFFF0304
:1009F300FFFFFFFF03FFFFFFFF03FFFFFFFF03FFF8
:100A0300FFFFFF03FFFFFFFF0300C01FFC0300C046
:100A13001FFC0300C01FFC0300C01FFC0300C01F1A
:100A2300FC0300C01FFC0300C01FFC0300C01FFC2D
:100A33000300C01FFC0300C01FFC0300C01FFC0316
:100A430000C01FFC0300C01FFC0300C01FFC030009
:100A5300C01FFC03010000FC03070000FC031F0090
:100A630000FC03FF00000000FF03000000FF0F0075
:100A73000000FF3F000000FFFF010000FFFF070031
:100A830000FFFF1F0000FFFF7F0000FFFFFF0300C9
:100A9300FFFFFF0F00FEFFFF3F00F0FFFFFF00C05F
:100AA300FFFFFF03C0FFFFFF03C0DFFFFF03C01F04
:100AB300FFFF03C01FF8FF03C01FC0FF03C01F00D9
:100AC300FE03C01F00FF03C01FE0FF03C01FFCFFA6
:100AD30003C09FFFFF03C0FFFFFF03C0FFFFFF0330
:100AE300E0FFFFFF03F8FFFFFF00FFFFFF3F00FFF3
:100AF300FFFF0F00FFFFFF0100FFFF7F0000FFFF6D
:100B03001F0000FFFF070000FFFF000000FF3F0082
:100B13000000FF0F000000FF030000007F00000043
:100B2300001F00000000070000000001000000009B
:100B330000000000000000000000000000000000B2
:100B430000000000FFFFFFFF03FFFFFFFF03FFFFA6
:100B5300FFFF03FFFFFFFF03FFFFFFFF03FFFFFF96
:100B6300FF03FFFFFFFF03FFFFFFFF03FFFFFFFF86
:100B730003FFFFFFFF03FFFFFFFF030000FEFF0371
:100B83000000FEFF000080FF7F0000C0FF3F000069
:100B9300E0FF1F0000F0FF070000FCFF030000FE62
:100BA300FF010000FFFF000080FF3F0000C0FF1FA8
:100BB3000000F0FF0F0000F8FF070000FCFF01003A
:100BC30000FEFF000000FFFFFFFF03FFFFFFFF0327
:100BD300FFFFFFFF03FFFFFFFF03FFFFFFFF03FF16
:100BE300FFFFFF03FFFFFFFF03FFFFFFFF03FFFF06
:100BF300FFFF03FFFFFFFF03FFFFFFFF03FFFFFFF6
:100C0300FF030000000000000000000000000000DF
:100C130000000000000000000000000000000000D1
:100C230000000000000000000000FFFFFFFF03FFC3
:100C3300FFFFFF03FFFFFFFF03FFFFFFFF03FFFFB5
:100C4300FFFF03FFFFFFFF03FFFFFFFF03FFFFFFA5
:100C5300FF03FFFFFFFF03FFFFFFFF03FFFFFFFF95
:100C630003FFFFFFFF03FFC01FFC03FFC01FFC03C5
:100C7300FFC01FFC03FFC01FFC03FFC01FFC03FFDB
:100C8300C01FFC03FFC01FFC03FFC01FFC03FFC00A
:100C93001FFC03FFC01FFC03FFC01FFC03FFC01F9B
:100CA300FC03FFC01FFC03FFC01FFC03FFC01FFCAE
:100CB30003FFC01FFC03FFC01FFC03FFC01FFC0397
:100CC300FFC01FFC03FF0000FC03FF0000FC030048
:100CD3000000000000000000000000000000000011
:100CE3000000000000000000000000000000000001
:100CF3000000FFFFFFFF03FFFFFFFF03FFFFFFFFF7
:100D030003FFFFFFFF03FFFFFFFF03FFFFFFFF03E0
:100D1300FFFFFFFF03FFFFFFFF03FFFFFFFF03FFD4
:100D2300FFFFFF03000080FF030000E0FF0300005C
:100D3300FEFF0300C0FFFF0300F8FFFF0380FFFF78
:100D4300FF03F0FFFFFF01FEFFFF3F00FFFFFF0771
:100D530000FFFF7F0000FFFF0F0000FFFF01000007
:100D6300FF3F000000FFFF010000FFFF0F0000FF37
:100D7300FFFF0000FFFFFF0700FEFFFF3F00E0FF54
:100D8300FFFF0100FFFFFF0300F8FFFF0300C0FFA9
:100D9300FF030000FCFF030000E0FF03000080FFEF
:100DA30003FFFFFFFF03FFFFFFFF03FFFFFFFF0340
:100DB300FFFFFFFF03FFFFFFFF03FFFFFFFF03FF34
:100DC300FFFFFF03FFFFFFFF03FFFFFFFF03FFFF24
:100DD300FFFF03000000000000000000000000000F
:100DE30000000000000000000000C00F000000F041
:100DF3003C00000038700000001860000000ECDFC9
:100E03000000000CDB000000049B000000849B003A
:100E13000000ECDF0000006CCE0000001860000052
:100E23000018700000007038000000E01F00000090
:100E330000030000000000000000000000000000AC
:100E43000000000000F8FF1F000000C0FFFFFF07C5
:100E53000000F8FFFFFF3F0000FEFFFFFFFF0080E1
:100E6300FFFFFFFFFF03C0FFFFFFFFFF07E0FF07D9
:100E730000C0FF0FF03F000000F81FF00700000064
:100E8300C01FF803000000803FF801000000003F8E
:100E9300FC00000000007E7C00000000007C7C0061
:100EA300000000007C7C00000000007C7C0000004F
:100EB30000007C7C00000000007CFC0000000000BF
:100EC3007EF801000000003FF803000000803FF0BF
:100ED30007000000C01FF03F000000F81FE0FF07FD
:100EE30000C0FF0FC0FFFFFFFFFF0780FFFFFFFFF3
:100EF300FF0300FEFFFFFFFF0000F8FFFFFF3F00BF
:100F030000C0FFFFFF07000000F0FF1F000000000C
:100F130000000000000000000000000000000000CE
:100F230000000000000000000000000000000000BE
:100F33000000000000F0030000000000E0070000D4
:100F4300000000E0070000000000C00F00000000E8
:100F530000801F0000000000803F00000000000030
:100F63003F0000000000007E000000000000FC00C5
:100F73000000000000FC010000000000F807F8FF7B
:100F8300FFFFFFFF0FF8FFFFFFFFFF3FF8FFFFFF2C
:100F9300FFFF7FF8FFFFFFFFFF7FF8FFFFFFFFFF6C
:100FA3007FF8FFFFFFFFFF7F00000000000000004D
:100FB300000000000000000000000000000000002E
:100FC300000000000000000000000000000000001E
:100FD300000000000000000000000000000000000E
:100FE3000000000000000078000000000000F8018D
:100FF3000000000F00F8070000007F00F81F00004A
:1010030000FF01F83F000080FF03F8FF000080FFAE
:1010130007F8FF010080FF0FF8FF030000F81FF837
:10102300FE070000C03FF8F80F0000803FF8F01FF4
:101033000000003FF8E03F0000007EF8C07F0000A2
:10104300007CF880FF0000007CF800FF0100007CBA
:10105300F800FE0300007CF800FC0700007CF800A9
:10106300F01F00007CF800E03F00007EF800C07F26
:1010730000003EF80080FF01003FF80000FF07C0BA
:101083003FF80000FE1FF01FF80000F8FFFF1FF8F5
:101093000000F0FFFF0FF80000E0FFFF07F800007B
:1010A30080FFFF01F8000000FE7F00F8000000F061
:1010B3001F000000000000000000E000000000002E
:1010C30000FC0000000C0000FF0000007C0080FF1B
:1010D300010000FC01C0FF010000FE07E0FF01006A
:1010E30000FE0FF07F000000FE0FF00F000000F085
:1010F3001FF803000000C03FF801000000003FFCA0
:1011030000000000003EFC00003800007E7C000070
:10111300F001007C7C0000F001007C7C0000F00109
:10112300007C7C0000F001007C7C0000F003007C6C
:10113300FC0000F803007EF80000F807003FF80108
:1011430000FC0F803FF80300FE3FE01FF00F007F1D
:10115300FFFF1FE03FC03FFFFF0FE0FFFF3FFEFF2A
:1011630007C0FFFF1FFCFF0300FFFF0FF0FF00009E
:10117300FEFF07C03F0000F8FF0100000000C03F72
:10118300000000000080FF000000000080FF03005B
:1011930000000080FF0F0000000080FF1F00000020
:1011A3000080EF7F00000000808FFF0100000080BF
:1011B3000FFE07000000800FFC0F000000800FF0FF
:1011C3003F000000800FC0FF000000800F00FF0100
:1011D3000000800F00FE070000800F00F81F0000D2
:1011E300800F00E03F0000800F00C0FF0000800F71
:1011F3000000FF0300800F0000FC0F00800F0000C1
:10120300F01FF8FFFFFFFFFF7FF8FFFFFFFFFF7FE8
:10121300F8FFFFFFFFFF7FF8FFFFFFFFFF7FF8FFF0
:10122300FFFFFFFF7FF8FFFFFFFFFF7F00800F003F
:1012330000000000800F0000000000800F0000008D
:101243000000800F0000000000800F00000000007D
:10125300800F000000000000000000000000E0001C
:101263000000000000FC003800000000FF00F81F31
:10127300000080FF00F8FF0700C0FF00F8FFFF0336
:10128300E0FF00F8FFFF1FF03F00FCFFFF1FF00728
:1012930000F8FFFF1FF80300E0F7FF1FF80100C08D
:1012A3000FF81FFC0000800F001F7C0000800F0060
:1012B3001F7C0000001F001F7C0000001F001F7C1C
:1012C3000000001F001F7C0000001F001F7C0000A7
:1012D300001F001FFC0000801F001FF80100801F7B
:1012E300001FF80300C00F001FF00700E00F001FEE
:1012F300F00F00F80F001FE07F00FE07001FC0FF84
:10130300FFFF03001F80FFFFFF01001F00FFFFFF20
:1013130000001F00FCFF7F00001F00F0FF1F000004
:10132300000080FF0100000000000000000000003A
:1013330000F8FF0F000000C0FFFFFF030000F8FFED
:10134300FFFF1F0000FEFFFFFF7F0000FFFFFFFF07
:10135300FF01C0FFFF3FF0FF03E07F00FF00FE0738
:10136300E00F00FC01F00FF00700F001C01FF803CD
:1013730000E003801FF80100C007003FF80000C031
:1013830007003E7C0000800F007C7C0000800F0083
:101393007C7C0000800F007C7C0000800F007C7C44
:1013A3000000800F007CFC0000C00F007EFC0000EA
:1013B300C00F007EF80100E007003FF80300F007CC
:1013C300803FF00F00FC07F03FF07F00FF03FC1F9E
:1013D300E0FFFFFF01FC0FC0FFFFFF00FC0780FFE2
:1013E300FF7F00FC0300FEFF3F00FC0000F8FF0F3F
:1013F300001C0000C0FF000000000000000000000F
:10140300000000000000001F0000000000001F009B
:1014130000000000001F0000000000001F0000008B
:101423000000001F0000000000001FF80100000082
:10143300001FF87F000000001FF8FF070000001FD7
:10144300F8FF3F0000001FF8FFFF0100001FF8FF37
:10145300FF0F00001F00FFFF3F00001F00C0FFFF42
:1014630000001F0000FCFF07001F0000C0FF1F005B
:101473001F000000FE3F001F000000F8FF001F00D8
:101483000000C0FF031F00000000FF071F00000053
:1014930000FC1F1F00000000F03F1F00000000C001
:1014A3007F1F0000000000FF1F0000000000FC1F62
:1014B3000000000000F81F0000000000E01F000013
:1014C300000000C01F0000000000001F000000001B
:1014D30000000000E03F0000000000FCFF010000EE
:1014E3000000FFFF03C03F0080FFFF07F8FF00C0BD
:1014F300FFFF0FFCFF03E0FFFF1FFEFF07F03FE0CE
:101503003FFFFF0FF00700BFFFFF1FF80300FE3F81
:10151300E03FF80100FC0F803FF80000F807003FB0
:10152300FC0000F803007E7C0000F001007C7C00DE
:1015330000F001007C7C0000F001007C7C0000F0E6
:1015430001007C7C0000F001007CFC0000F803003B
:101553007EF80000F807003FF80100FC0F803FF819
:101563000300FE3FE01FF00700BFFFFF1FF03FE057
:101573003FFFFF0FE0FFFF1FFEFF07C0FFFF0FFC52
:10158300FF0380FFFF07F8FF0000FFFF03E01F00DA
:1015930000FCFF0000000000E03F0000000000002E
:1015A300000000000000000000FE0700007000E0E3
:1015B300FF3F00007E00F8FFFF00807F00FCFFFF7D
:1015C30003C07F00FEFFFF07E07F00FFFFFF0FF078
:1015D3007F80FF01FC1FF81FC07F00E01FF803C0DE
:1015E3001F00C03FF801C00F00003FFC00E00700F0
:1015F300007F7C00E00700007E7C00E00300007CAD
:101603007C00E00300007C7C00E00300007C7C00A5
:10161300E00300007CFC00C00300007CF800C0076E
:1016230000003EF801C00700003EF003800F0000F9
:101633003FF007001F00801FE01F007E00E00FC087
:10164300FF01FC01FC0F80FF7FF8FFFF0700FFFF96
:10165300FFFFFF0100FCFFFFFFFF0000F0FFFFFFA4
:101663003F000080FFFFFF07000000E0FF7F000056
:10167300000000000000F0FF1F0080FFFFFF03E0F9
:10168300FFFFFF0FF80700C03FFC0000007E3E0095
:101693000000F81E000000F01E000000F01E000015
:1016A30000F03E000000F8FC0000007EF80700C0D8
:1016B3003FE0FFFFFF0F80FFFFFF0300F0FF1F006E
:1016C3000000000000000000000000000000000017
:1016D300000000000000003C000000007800000053
:1016E30000F000000000E001000000C0070000005F
:1016F300800FFCFFFFFF3FFCFFFFFFFFFCFFFFFF2F
:10170300FF000000000000000000000000000000D7
:101713000000000000000000000000000000003C8A
:101723000000E001FC0100E00FFC0700E01FFC0FDC
:1017330000003EBC3F00007C3C7E0000F83CF8010A
:1017430000F03CF00300F03CC00F00F03C801F00B1
:10175300F83C007E007C3C00FC037E3C00F0FF3F35
:101763003C00C0FF0F3C0000FE0100000000000031
:10177300000000000007008003E00700800FF80767
:1017830000803FFC0100007E7C000000783E0000EA
:1017930000F01E00F000F01E00F000F01E00F0014B
:1017A300F03E00F801787C00FC077EF801BFFF3FA4
:1017B300F0FF1FFF0FC0FF0FFC0300FF010000003D
:1017C30000000000000000000000F800000000F826
:1017D30007000000F83F000000F8FF00000078FC5D
:1017E30007000078E03F00007880FF00007800FCED
:1017F30007007800F01F00780080FFFCFFFFFFFF69
:10180300FCFFFFFFFFFCFFFFFFFF0078000000006D
:1018130078000000007800000000000000000007CE
:10182300F80000E007F8FF01F807F8FF3FFC00F0BD
:10183300FF3F7C00E0013E3E00C0033C1E00C003AE
:101843003C1E00C0033C1E00C0033C3E00E0033CC2
:101853007C00F0013CF803FC003CF0FF7F003CC03F
:10186300FF3F003C00FE07000000000000000000F6
:1018730000000000F8FF0F0080FFFFFF01E0FFFF03
:10188300FF0FF8037CC01F7C00F0003E3C00E0012A
:10189300781E00C003F01E00C003F01E00C003F05A
:1018A3003E00E003F07C00F001F8F801FC017EF05B
:1018B300FF7F803FC0FF3F801F00FE0780030000C3
:1018C3000000000000000000000000003C000000D9
:1018D300003C000000003CFC0000003CFC3F00001A
:1018E3003CFCFF03003C00FF3F003C00C0FF003C0A
:1018F3000000FC073C0000C01F3C0000007E3C00D1
:101903000000F83D000000C03F000000003F000061
:1019130000003C0000000000000000000000FF0188
:101923000000E0FF07FC03F0FF1FFF1FF801BFFFEC
:101933003F7C00FC077E3E00F801F81E00F000F03B
:101943001E00F000F01E00F000F03E00F801F87CED
:1019530000FC077EF801BFFF3FF0FF1FFF1FE0FF02
:1019630007FC0300FF01000000000000000000006E
:1019730000008003C0FF00F003F8FF0FF803FCFF33
:101983001FFC007F803F3E001F007C1E800F00F87D
:101993001E800700F01E800700F01E800700F03C49
:1019A300000F0078F8001E007CF0077C003FE0FF8A
:1019B300FFFF0F00FFFFFF0300E0FF3F00000000F9
:1019C30000000000F81FFE7F07E003C003C007E02C
:1019D300FE7FF81F000000000000000C001800301C
:1019E300FFFFFFFF000000000000000003180F7856
:1019F3001BE073C0E3C0C3E1837F033E000000002C
:101A030018301E7007E003C303C387E7FE7E7C3CE8
:101A130000007000F001B003300E303C30F0FFFFE7
:101A2300FFFF300030000000180F1EFF07F303C64E
:101A330003C607C7FEC3F80100000000F80FFE3F0E
:101A4300076303C603C607E7FE73F831000000000F
:101A530000C000C00FC0FFC0F0C700DE00F800C028
:101A6300000000007C3CFE7F87E703C303C387E7D6
:101A7300FE7F7C3C000000008C1FCE7FE7E063C04C
:101A830063C0C6E0FC7FF01F00000000F0070808F9
:101A9300041004100808F0070000000004080408FC
:101AA300FC1F040004000000000000000C0E1410D2
:101AB3002410441084110C0E00000000180C0410B4
:101AC300041104118812700C00000000E0002003D0
:101AD30024042408FC1F240000000000981F841025
:101AE300041104118810701000000000F00788082A
:101AF300041104118818700000000000001C00107D
:101B0300FC100013001C001000000000380E4411EC
:101B1300841084104411380E0000000000078C0864
:101B2300441044108808F007000000000000000083
:101B33000C030C030C0300000000800080008000F5
:101B430080008000800080008000000F8410380F28
:101B5300C00078078418780000000410FC1F0411EB
:101B63000011C01130110C0E04000410FC1F84106E
:101B7300800080008410FC1F0410000000C0FF00E0
:101B8300300003080004080004300003C0FF000015
:101B93000000000000080001080001F8FF0308002E
:101BA3000008000000000000000000000038C0032F
:101BB300D8000418010418060418080678F0010078
:101BC3000000000000F0C00308000408080408082F
:101BD30004101406E0E301000000000000000F0001
:101BE30000310008C101080102F8FF0F08010000DD
:101BF3000000000000F0FC070808060810060810A3
:101C030006300806C00706000000000000C0FF0001
:101C1300300803081004081004300803C00700004C
:101C23000000000000008007000006F807060078A7
:101C330006008007000006000000000000E0E1034A
:101C4300101604080804080C04181606E0E1010045
:101C5300000000000000F80130040208020408023A
:101C630004300C03C0FF000000000000000000006F
:101C73000000003870003870000000000000000011
:101C83000000000000000800000800000800000831
:101C93000000080000080000080000F8031804040E
:101CA300E0F903000E00F0F700080807F007000052
:101CB3000000080004F8FF07080804000804000FE8
:101CC30004E0110638E003080000080004F8FF07E9
:101CD300080804000800000800080804F8FF0708C3
:101CE3000004FEFF070000FEFF0F000006201C009B
:101CF3000006203C000006207000000620E00000E3
:101D03000620C7010006A08D030006A008070006F1
:101D1300A00DFEFF062007FCFF06200024C0FEFFE7
:101D23000024C0FEFF0324C000000624C0000006F8
:101D330024C000000624C000000624C0FEFF0724C0
:101D4300C0FEFF0124C006200024C0062000FCFFC3
:101D5300062000FEFF062000070006208003000681
:101D630020C001000620E0000006207000000620CD
:101D730038000006201C0000FEFF0F0000FEFF07D6
:101D8300000007000000000700000000070000003B
:101D9300001F00000000FF00000000F90000000029
:101DA300FD000000001F000000000F4000003F077F
:101DB300E00180FF07E007C0F307801FC0E10700D1
:101DC3007EC0E10F00FCC1FF7F00F0837FF900C0FC
:101DD3000F1EFDC0073F003FE01FFC000FF01FF088
:101DE30003077838C00F077838003F07F83C007CBA
:101DF30007F01F00780FC00F00003F00000000FD38
:101E030000000000F900000000FF000000001F00B8
:101E13000000000F000000000700000000070000A2
:101E2300000000E0FF000000F8FF010000FCFF0CD1
:101E33000000FE711E00803F000F00C00F00640011
:101E4300C00300F000E001007000F0011E2001F06B
:101E5300001E800378001EC00378001EC0037800B4
:101E63001E000078001E00037800FEBF073800FE46
:101E7300BF077800FEBF077800FE3F03780000002D
:101E8300007800000000780000C003F00000C003E9
:101E9300F00000E003E00100E001E00300F000C017
:101EA30007007C00801F007E0000FFC03F0000FE93
:101EB300FF0F0000F8FF070000E0FF010000807F34
:101EC300000000000000000000000000000000000F
:101ED30000000000C00F000000E01F0000006018B9
:101EE30000000020100000006018000000E01F0048
:101EF300C0FF800F00FEFF0F0080FFFF7F00E0FFA9
:101F0300FFFF01F00700F003F80000C0073C0000EA
:101F1300000F1E0000000E0E0000000C0E0000005B
:101F23001C0E000000180E000000180E0000001820
:101F33000C0000000C1C0000000C380000000670B0
:101F430000008003E00000E003C00380FF03000300
:101F530080FF0300000000000000000000000000FC
:101F6300000000000000000000000000000000006E
:101F73000000000000000000007F000C00E0FF07ED
:101F83001C00F0FF0F780038000EE000180018C0A6
:101F9300031800188007F8000F001EF0FF0F003C25
:101FA300C0FF0300F000000000E001000000800714
:101FB300000000000F000000003C0000000078005B
:101FC300000007E00100F8FFC00300FCFF010F0061
:101FD3001EC0031E000600037800060002F0001E68
:101FE3008003C003FCFF038007F8FF01001E000FFE
:101FF30000001C00000000000000000000000000C2
:1020030000000000FC0F000000FF0F000080071C11
:102013000000C0031C0000C0013800FFFF01700076
:10202300FFFF01600001C001E000018201C0000167
:102033008703C001810D038001C118078003810D4F
:1020430006000301070E000701021C000601001C25
:10205300000EFFFF3F000CFFFF3F00180000700061
:102063001800006000380000C000300000C000709D
:1020730000008001F000008003FC000000038E00DC
:1020830000000787000000C6C3000000EEC0000088
:10209300007C600000003C30000000381C000000A1
:1020A300F807070000000007000000000700000019
:1020B300001F00000000FF00000000F90000000006
:1020C300FD000000001F000000000F4000003F075C
:1020D300E00180FF07E007C0F307801FC0E10700AE
:1020E3007EC0E10F00FCC1FF7F00F0837FF900C0D9
:1020F3000F1EFDC0073F003FE01FFC000FF01FF065
:1021030003077838C00F077838003F07F83C007C96
:1021130007F01F00780FC00F00003F00000000FD14
:1021230000000000F900000000FF000000001F0095
:102133000000000F0000000007000000000700007F
:1021430000000E000000000E000000000E00000062
:10215300001E000000001E000000003E0000000002
:10216300F600000000E601000000F6000000003E5B
:10217300000000001E0000001F1EC001803F0EC0B3
:1021830003C07F0EC007C0710E001FC0601E003E5B
:10219300C0701E00F8C0713E00F0C13FF600E0833E
:1021A3003FE601800F0EF681071F007EC01F7C00F3
:1021B3003EE01FF8001EF03CE0030E7038C0070E2F
:1021C3007038001F0EF03C003E0EE01F003C1EC0A6
:1021D3000F00101E800700003E00000000F6000004
:1021E3000000E601000000F6000000003E000000D1
:1021F300001E000000001E000000000E0000000092
:102203000E000000000600000000000000000000B7
:10221300F077060000F8770F0000FE770700003F15
:1022230000E200801F00F000C007007002E003001E
:102233000007F001008007F0000E000378000E0095
:10224300187C000E003C3C000E003C1E000E0018E3
:102253001E000E00000E000E00000E000E00000E09
:10226300000E00000E000E00300F00FEFF780F007E
:10227300FEFF780F00FEFF780E000000300E000016
:1022830000000E000000000E000000001E00000011
:10229300783E0000003C3C0000003E780000001E39
:1022A300F80000000FF00100800FE00300C007C03A
:1022B3000F00E003801F00F801007F00FC0000FC1A
:1022C300FF7F0000F8FF1F0000E0FF0F0000007C0D
:1022D3000000FFFFFFFFFF0F000000F003000000FE
:1022E300C001000000C00100000080010000008068
:1022F3000100000080010000008001000000800157
:10230300E0FF018001F8FF078001FCFF0F80013C23
:10231300001E80010E001C80010E001C80010E00B7
:102323001C80013C001F8001FCFF0F8001F0FF07B0
:102333008001C0FF0080010000008001FCFF1F80BE
:1023430001FEFF1F8001FEFF1F8001003E00800190
:10235300007C00800100FF018001C0CF078001F0F5
:10236300830F8001FC001E80013E001C80010E00D3
:1023730010800100000080010000008001000000C7
:10238300800100000080030000008003000000C003
:102393000F000000F0FFFFFFFFFFFFFFFFFFFFFF46
:1023A3007F00FEFFFF0F00F0FFFF0300C0FFFF01F0
:1023B3000080FFFF000000FF7F000000FC3F0000E3
:1023C30000FC1F000000F80F000000F00F000000E9
:1023D300F007000000E007800000E007800300C072
:1023E30003800F00C003803F00C003807F00800391
:1023F30080FF01800380FF07800380FF0F8003803D
:10240300FF0F800380FF03800380FF018003807F31
:1024130000C003803F00C003800F00C00780070097
:10242300C007800100E00F800000E00F000000F013
:102433001F000000F01F000000F83F000000FC7FB9
:10244300000000FEFF000000FFFF030080FFFF0706
:1024530000E0FFFF1F00F8FFFFFF01FFFFFFFFFF8B
:10246300FFFFFFFFE7FFFFFF3F00F8FFFF0700E06D
:10247300FFFF030080FFFF000000FF7F000000FE5E
:102483003F000000FC1F000000F80F000000F00FE9
:10249300000000E007000000E007000000C00300A8
:1024A3008001C00300C001800300F001800100F837
:1024B30001800100FE01800100FF018001C0FF01D6
:1024C3008001F0FF010001F8FF010001F0FF01802E
:1024D30001E0FF01800180FF01800100FE01800314
:1024E30000F801800300F001C00300C001C0070031
:1024F3000001E007000000E00F000000F01F0000F3
:1025030000F03F000000F83F000000FCFF00000067
:10251300FEFF010080FFFF0300C0FFFF0F00F0FF7D
:10252300FF7F00FEFFFFFFFFFFFFFFFFFFFFFF0136
:102533000000008001000000800100000080010015
:10254300000080010000008001F0FF0F8001F0FF18
:102553000F8001F0FF0F8001F0FF0F800170380E34
:10256300800170380E800170380E800170380E8043
:102573000170380E800170380E800170380E8001B2
:1025830070380E80013000008001000000800100DF
:1025930000008001F0FF0F8001F0FF0F8001F0FFCA
:1025A3000F800100E00F800100F007800100FC01B3
:1025B3008001007E008001803F008001E00F0080E9
:1025C30001F007008001F0FF0F8001F0FF0F800191
:1025D300F0FF0F8001000000800100000080010077
:1025E30000008001000000800100000080FFFFFF69
:1025F300FFFFFFFFFFFFFF0100000080010000005D
:1026030080010000008001000000800100000080C4
:1026130001F8FF1F8001F8FF1F8001F8FF1F8001F1
:10262300F0FF1F8001001C1E8001001C1E800100A2
:102633001C1E8001001C1E8001003C1E800100FC4A
:102643000F800100F80F800100F807800100F003FC
:102653008001000000800100000C800100001E804A
:102663000100001E800100001E800100001E800189
:10267300F0FF1F8001F8FF1F8001F8FF1F8001F8A2
:10268300FF1F800100001E800100001E800100006A
:102693001E800100001E800100001E80010000005A
:1026A3008001000000800100000080010000008024
:1026B3000100000080FFFFFFFFFFFFFFFFFFFF019F
:1026C3000000008001000000800100000080010084
:1026D300000080010000008001F8FF1F8001F8FF67
:1026E3001F8001F8FF1F8001F8FF1F800178381E4B
:1026F300800178381E800178381E800178381E806A
:102703000178381E800178381E800178381E8001D8
:1027130078381E800170000C8001000000800100E9
:1027230001008001C0C1038001E0E3078001F0F3F1
:102733000F8001F0F80F800178781E800178781EF1
:10274300800178381E8001783C1E8001783C1F8010
:1027530001F09F0F8001F09F0F8001E08F07800140
:10276300C00701800100000080010000008001001B
:1027730000008001000000800100000080FFFFFFD7
:10278300FFFFFFFFFFFFFF010000008001000000CB
:102793008001000000800100000080010000008033
:1027A30001F0FF0F8001F0FF0F8001F0FF0F8001A8
:1027B30000380E800100380E800100380E800100C1
:1027C300380E800100380E800100380E8001003879
:1027D3000E800100000E8001000000800100000057
:1027E3008001F0FF0F8001F0FF0F8001F0FF0F80E9
:1027F30001F0FF0F8001001C0E8001001C0E800100
:10280300001C0E8001001E0E8001003F0E8001C0DF
:102813003F0E8001E0FF0F8001F0FB0F8001F0F01D
:1028230007800170C00180011000008001000000DA
:102833008001000000800100000080010000008092
:102843000100000080FFFFFFFFFFFFFFFF0100808B
:1028530001008001008081FF8181FF818199818155
:102863009981819981819981819181010080010000
:102873008081FF8181FF8101F080013C80010E8016
:1028830081FF8181FF81010080010080010080FFC1
:10289300FFFFFFFFFF01008001008001008081FF37
:1028A3008181FF8101988101988101988101F881DB
:1028B30001F080010080018081018081018081819C
:1028C300FF8181FF8101808101808101808101007D
:1028D30080010080010080FFFFFFFFFFFF010080F8
:1028E30001008081FF8181FF8181FF818199818145
:1028F300998181998181998181918101008001026E
:102903008001F78081F38181B981819981819981E6
:1029130081DF8101CF80010080010080010080FF01
:10292300FFFFFFFFFF01008001008001008081FFA6
:102933008101FF8101988101988101988101908132
:1029430001008001008081FF8181FF810198810165
:102953009881019E8101FF8181F380816180010063
:1029630080010080010080FFFFFFFEFF7FFEFF7FED
:10297300FEFF7FFCFF3FFCFF3FF8FF1FF8FF1FF048
:10298300FF0FF0FF0FE0FF07E0FF07C0FF03C0FFEB
:102993000380FF0180FF0100FF0000FF00007E00B5
:1029A300007E00003C00003C0000180000180000FE
:1029B3000000E0FFFFE0FFFFE0FFFFE0C0C0E0C07A
:1029C300C0E0C0C0E0C0C0E0C0C0E0C0C0E0C0C064
:1029D300E0C0C0E0C0C0E0C0C0E000C00000000034
:1029E3000000000000E0FF07E0FF0700C003000055
:1029F30007000006000006000006000007C0FF07EE
:102A0300E0FF03E0FF01000000000000003C000CB9
:102A1300FF018EFF03CF8307C70007E30006E30030
:102A230006E30006C70007CF8303FEFF07FCFF078B
:102A3300C0FF07000000000000C0FFFFE0FFFFE051
:102A4300FFFF000000000000000000C0FFC7E0FF20
:102A5300E7E0FFE700000000000000030080E3035D
:102A6300C0F307E07107E038066038066038066097
:102A73001806E09C07C09F03808F0100020000003E
:102A830000000000E0FFFFE0FFFFE0FFFF000007A2
:102A9300000006000006000006000006008007E0B4
:102AA300FF03E0FF01000000C0FFFFE0FFFFE0FFC6
:102AB300FF0060E00060E00060E00060E00060E0D4
:102AC3000060E00060E000E0E000E07100C07F0033
:102AD300803F00000E000000003C0000FF01C0FF2B
:102AE30003C08303E0000760000660000660000681
:102AF300E00006E00007C0E70380FF0100FF0000DD
:102B03000000000000C0FF07E0FF07E0FF0700C070
:102B1300030000070000070000070000060000068E
:102B2300000006C0FF7FE0FF7FE00006E0000660D4
:102B3300000600000000FF07C0FF07C0FF07E0001A
:102B430000E00000600000E00000E00000C00100C1
:102B5300E0FF07E0FF07C0FF0700000000000008D8
:102B6300FE008EFF01CFFF03C70107E30006E3006A
:102B730006E30006C30006C70107FEFF07FCFF07C5
:102B8300F8FF0700000000000000000080FF07C0FE
:102B9300FF07E0FF07E00000600000600000E000C6
:102BA30000C00000C00700E0FF07E0FF07000000CF
:102BB30000000000000000FF0080FF01C0FF13E0E1
:102BC3003877E038F66038E66038E6E038F6E03823
:102BD30077C0FB13C0FB0100FB00000000000000F6
:102BE30080C300C0E303C0F307E0700660380660EB
:102BF3003806603806E01C07E09F07C08F03808F0C
:102C030000000000E0FFFFE0FFFFE0FFFFE0C0C0C7
:102C1300E0C0C0E0C0C0E0C0C0E0C0C0E0C0C0E0F1
:102C2300C0C0E0C0C0E0C0C0E0C0C0E000C0000061
:102C330000000000000300C0E303E0F307E07007B7
:102C4300603806603806603806601C06E09C07C0E2
:102C53009F03C08F01000200000000000000FFFF7F
:102C630007FFFF07FFFF07C00003600007600006C0
:102C7300600006600007E00007C0FF0380FF030059
:102C8300FF00000000000000800700C08F01E0DFAC
:102C930003E01C07601806601806601806E0380693
:102CA300C03007C0FF07E0FF03E0FF012000000082
:102CB3000000000000E0FF07E0FF07E0FF6700807F
:102CC300630000C70000C6000066000066000067DE
:102CD300E0FFE7E0FF83E0FF0000000000000000EA
:102CE3007E0080FF01C0FF03E08107E00007600072
:102CF30006600006600006E00007E00107C0FF036E
:102D030080FF0100FF00000000000000E0FFFFE083
:102D1300FFFFE0FFFF000000E0FFFFE0FFFFE0FF39
:102D2300FF00E0C000E0C000E0C000E0C000E0C081
:102D330000E0C000E0C000E0C000E0C00000C00050
:102D43000000000000000000E0FF07E0FF07E0FFD5
:102D53000300000700000700000700000700000051
:102D6300800700C08F01E0CF03E09C076018066076
:102D73001806601806603806C03806C0FF07E0FF73
:102D830003E0FF01200000000000000000E0FF0757
:102D9300E0FF07E0FF0700800300000700000600D4
:102DA3000006000006000007E0FF07E0FF03E0FF66
:102DB30000000000000000003C0080FF01C0FF0392
:102DC300E38107E300077B00067F00066F0006EE42
:102DD3000007E08107C0C30380C3010002000001B4
:102DE30000C08701E0CF03E09C07601C0760180662
:102DF300601806601806E03806C03107E0FF07E0F8
:102E0300FF03E0FF00000000000000000000E0FFFF
:102E1300E7E0FFE7E0FFC700000000000080C30118
:102E2300C0E303E0F107E038066038066038066067
:102E33001806601C07E09F07C08F03808F00000007
:102E4300000000000000000000000000000000007F
:102E5300000000000000000000000000F800030074
:102E63000000F8FF030000000CFE3F0000000C8090
:102E7300FF0000000C80C30300000C800307000068
:102E83000C80010C00000480F91800000680FD315D
:102E9300000006808D61000006C08DE1000006C0C1
:102EA300D9C1030006C0F980FF7F07C00180FF7707
:102EB300FFC000800360F8FF0180036000FC0F8007
:102EC300036000E03F800360000030800360000087
:102ED3003080036000403080036000E01F800360A7
:102EE30000FE0F800360FCFF018003607FC0008051
:102EF300036007C00180FF7F06C00180FF7F06805B
:102F030001C00300068001E000000680017000009C
:102F13000680013000000480011800000C80030EBD
:102F230000000C00030700000C00E30100000C800C
:102F3300FF0000008CFF1F000000F83F03000000AB
:102F43007800000000000000000000000000000006
:102F5300000000000000000000000000000000006E
:102F630000000000000000000000000000FC03005F
:102F7300000080FF07000000C0070E000000E00112
:102F83000C00000030000C00000018001C000000C2
:102F93001C001C0000001C003800FCFF3F00380030
:102FA300FCFF3F0038000C00300030000C007000C4
:102FB30070000C00700060000C80600060000CC0AA
:102FC300610060000C60C300C0000C30C600C0008C
:102FD3000C60C700C0000CC0C300C0000C8081019E
:102FE300C0010C00800380010C00800380030C00EF
:102FF30000030003FCFFFF030003FCFFFF070007C0
:10300300000000070006000000060006000000069E
:10301300000E0000000E000E0000000C000C00006B
:10302300000C000C0000001C001C0000001800181D
:1030330000000018001800000018001800000030FD
:10304300803300000070F03F00000060F83F000094
:1030530000601E30000000C00F30000000C0033CC1
:10306300000000C0011F00000080E3070000008093
:10307300FF01000000001F0000000000000000002E
:10308300000000000000FF7FFF7F03600360036018
:103093000360036007700E38FC1FF0070000000098
:1030A3000000FF7FFF7F800180018001800180019C
:1030B30080018001FF7FFF7F000000000000FF7F91
:1030C300FF7F0078803FF8033F0003003F00F803D1
:1030D300803F0078FF7FFF7F00000401080130017B
:1030E300C0050205FF47002FC000200118060C048D
:1030F3000400000002003C00C03F4022FE3F82016A
:10310300020E22122202FE7F22024202020000006D
:1031130000100010001C801FE013F8003C00380072
:10312300E0000013001C0010001000000410041045
:10313300FC1F041C841FE003FC003800E0000407AC
:10314300041CFC1FFC1F041004100410FC1FFC1FB4
:1031530004110411041104110411841A8C1EF80CB7
:103163007000000004000C003C00C401400740183C
:10317300401C401FE403FC001C000400040000008A
:1031830004100410FC1FFC1F04110411041104118A
:103193000411C41704100C181008000000000410D8
:1031A3000410FC1FFC1F041104118011C011F01145
:1031B300381B1C0E040E0400000000080010001051
:1031C30004100410FC1FFC1F041004100010001056
:1031D3000008000004100410FC1FFC1F041004105E
:1031E300041004100C100808180CF007E00300008A
:1031F30004100410FC1FFC1F841084108000800046
:1032030084108410FC1FFC1F041004100000000035
:10321300040804080408FC0FFC1FFC1F040004003E
:103223000400000000000000000018009C03941F2D
:10323300841D04110411041104118C11FC11F810E4
:103243007010000004100410FC1FFC1F0411041173
:10325300001100110011C017001000180008000031
:1032630004100410FC1F0418040C00078003C001A1
:10327300E00030101810FC1F0010001004100410A0
:10328300FC1F041C841FE003FC003800E00004075B
:10329300041CFC1FFC1F0410FFFFFFFF03FFFFFFC5
:1032A300FF3F03000000FC03021000E003073800A7
:1032B300C0830D6C00D0C318C600D8830D6C00DC2E
:1032C30003073800DC03021000CC03000000CE0328
:1032D300000000C683FFFF01C783FFFF01C783010F
:1032E3008081C383018081C383018081C183018085
:1032F300C1C1830180C1C1830180C1C1830180E158
:10330300C0830180E1C0830180E1C0830180E1C00B
:10331300830180E1C0830180E1C0830180C1C18357
:103323000180C1C1830180C1C1830180C1C1830107
:103333008081C183FFFF81C383FFFF01C3030000BB
:1033430000C303000000C703021000C703073800CF
:10335300C6830D6C00CEC318C600CC830D6C00DC95
:1033630003073800D803021000D803000000D0FF81
:10337300FFFFFFC3FFFFFFFFDF03000000DE0300CB
:103383000000F003000000E0FFFFFF7FC0FFFFFF2E
:10339300FFC0030000C0C0030000C0C0030000C0A2
:1033A300C0FFFFFFFFC0FFFFFFFFC0000000C0FF23
:1033B300FF1F00FFFF0700F8070030FC0060FC0060
:1033C300C08400808500008500008700008600001F
:1033D300FE0000FE000006000006000006000006D6
:1033E30000000E00000E00000E00000E000006009C
:1033F30000060000060000060000FE0000FE0000BC
:103403008600008700008500808500C0840060FC82
:103413000030FC00F807FFFF07FF0F0000F8030070
:10342300FE03000706000306800306FF070CFF07E1
:103433000C00060C200C08500C18200C1800181057
:10344300FF1F30FF1F30003020003060003060006D
:1034530070600060C00060F000E0FC00C0C600C007
:10346300C300C0C10080FFFF81FF8381C18381C18D
:103473008381C18381C18381C18381C18381C3E38B
:1034830081C7F3C3CC1F66D80F3CF00718E1078050
:10349300E20740E40E80721C003938001CF0FF0F75
:1034A300E0FF07C08103C08103C08103C08103C063
:1034B3008103C08103C0FF03C0FF03003E007F8080
:1034C3006380C380C180C180C180C180C180C1804D
:1034D300C180C180C180C180C180C180C180C180E1
:1034E300C180C180C180C180C180C180C180C180D1
:1034F300C180C180C180C180C1C0C1FFC07FC00085
:10350300C000C000C000600070FF3FFF1F0000004C
:10351300FCFF3FFCFF3F001830001830001830005C
:103523001830001E30803F38E0311C78E01F1CC08B
:1035330007040000000000000000FCFF3FFCFF3F09
:103543000030000030000030000030000030000088
:103553003000003000FCFF3FFCFF3F000000000094
:1035630000000000C0FF3FF0FF3F7800003800007C
:103573001C00001800001C00001C0000380000F8AC
:103583000000F0FF3FC0FF3F00000000000000000C
:1035930000000000000000F8FF07F8FF070000002C
:1035A300000000000000000000000000F8FF07F822
:1035B300FF0700F003007C00801F00F00300F8FF0A
:1035C30007F8FF07000000000000000000000000F3
:1035D300000000F8FF07F8FF0700000000000000EC
:1035E30000000000000000000000060000060000CC
:1035F30006F8FF07F8FF07000006000006000006B4
:10360300000000000000F8FF07F8FF071800061885
:103613000006380007708003E0FF01807F00000090
:1036230000180000F80100E03F0000FF0300C3079B
:1036330000FF03E03F00F801001800000000000055
:103643000000000006000006000006F8FF07F8FF70
:103653000700000600000600000600000018000036
:10366300F80100E03F0000FF0300C30700FF03E091
:103673003F00F80100180000000000000000C0FF38
:1036830000F0FF033800071800061800063800078B
:10369300F0FF03C0FF00000000000000E0FF07F0A0
:1036A300FF07380000180000180000380000F0FF82
:1036B30007E0FF070000000000000000060000060E
:1036C300000006F8FF07F8FF0700000600000600E9
:1036D3000006000000000000F8FF07F8FF070006DF
:1036E30006000606000606000E0700FC0300F801AC
:1036F300000000000000E0FF07F0FF07380000189B
:103703000000180000380000F0FF07E0FF0700008A
:1037130000000000000006000006000006F8FF0796
:10372300F8FF070000060000060000060000000086
:103733000000000000180000180000000000000056
:103743000000000000000000000000000000000076
:103753000000000000000080FFFF0100000000FEE9
:10376300FFFF7F000000C0FFFFFFFF030000F8FF23
:10377300FFFFFF0F0000FEFFFFFFFF3F0000FFFF03
:10378300FFFFFFFF0080FFFFFFFFFFFF01C0FF3FC1
:103793000000FCFF03E0FF01000080FF07F03F0093
:1037A300000000FC0FF00F00000000F00FF807000E
:1037B300000000E01FF80300000000C01FF8010034
:1037C300000000801FFC0100000000803FFC00009F
:1037D300000000003FFC0000000000003FFC000070
:1037E300000000003FFC0000000000003FFC000060
:1037F300000000003FFC0000000000003FFC01004F
:10380300000000803FF80100000000801FF8030063
:10381300000000C01FF80700000000E01FF00F00C9
:10382300000000F00FF03F00000000FC0FE0FF017C
:10383300000080FF07C0FF3F0000FCFF0380FFFF85
:10384300FFFFFFFF0100FFFFFFFFFFFF0000FCFF83
:10385300FFFFFF3F0000F0FFFFFFFF0F0000C0FF6F
:10386300FFFFFF03000000FEFFFF7F00000000805A
:10387300FFFF010000000000000000000000000046
:103883000000000000000000000000000000000035
:103893000000000000000000000000000000000025
:1038A3000000000000000000000000000000000015
:1038B3000000FE00000000000000FC01000000000A
:1038C3000000FC01000000000000FC0300000000F9
:1038D3000000F803000000000000F80700000000EB
:1038E3000000F00F000000000000F00F00000000D7
:1038F3000000E01F000000000000C03F00000000C7
:103903000000C07F00000000000080FF00000000F6
:10391300000000FF01000000000000FE03F8FFFFAD
:10392300FFFFFFFF07F8FFFFFFFFFFFF0FF8FFFF9A
:10393300FFFFFFFF3FF8FFFFFFFFFFFF3FF8FFFF22
:10394300FFFFFFFF3FF8FFFFFFFFFFFF3FF8FFFF12
:10395300FFFFFFFF3F000000000000000000000029
:103963000000000000000000000000000000000054
:103973000000000000000000000000000000000044
:103983000000000000000000000000000000000034
:103993000000000000000000000000000000000024
:1039A3000000000000000000000000000000000014
:1039B30000000000007800000000000000F8030091
:1039C3000000E00000F80F000000E00F00F81F0007
:1039D3000000E03F00F87F000000F0FF00F8FF0068
:1039E3000000F0FF01F8FF010000F0FF03F8FF07FC
:1039F3000000F0FF07F8FF0F000000FF07F8FF1FAC
:103A0300000000F80FF8FB3F000000F00FF8F37F11
:103A1300000000E01FF8C3FF000000C01FF883FF91
:103A2300000000801FF803FF010000803FF803FE41
:103A3300030000003FF803FC070000003FF803F811
:103A43000F0000003FF803F01F0000003FF803E001
:103A53003F0000003FF803E07F0000003FF803C091
:103A6300FF0000003FF80380FF0100803FF80300E0
:103A7300FF0300803FF80300FE0700C01FF80300A8
:103A8300FC1F00C01FF80300F83F00E01FF803000D
:103A9300F0FF00F80FF80300C0FF07FE0FF8030064
:103AA30080FFFFFF07F8030000FFFFFF03F8030099
:103AB30000FEFFFF01F8030000F8FFFF00F803001A
:103AC30000F0FF7F00F8030000C0FF1F00F80300B1
:103AD3000000FE03000000000000000000000000E2
:103AE3000000000000008003000000000000F0035D
:103AF300000000030000FC030000001F0000FE079D
:103B03000000007F0080FF07000080FF00C0FF0768
:103B1300000080FF01C0FF07000080FF03E0FF01FA
:103B2300000080FF07F03F00000000FE0FF00F00D1
:103B3300000000F00FF80700000000E01FF803008A
:103B4300000000C01FF80100000000801FFC0100FE
:103B5300800700803FFC0000003F00003FFC0000A6
:103B6300003F00003FFC0000003F00003FFC00005E
:103B7300003F00003FFC0000003F00003FFC00004E
:103B8300007F00003FFC0000007F00003FFC0100BD
:103B9300807F00803FF8010080FF00C01FF8030012
:103BA30080FF01C01FF80300C0FF03F00FF0070000
:103BB300E0FF0FF80FF00F00F0FFFFFF07E03F00FB
:103BC300F8F3FFFF03E0FF01FFE3FFFF03C0FFFF85
:103BD300FFC1FFFF0180FFFFFF81FF7F0000FFFFA9
:103BE300FF00FE3F0000FEFF7F00F8070000F8FF24
:103BF3001F0000000000E0FF0F000000000000FFB6
:103C0300010000000000000000000000000000FEB2
:103C130003000000000000FE0F000000000000FE93
:103C23001F000000000000FE7F000000000000FEF7
:103C3300FF010000000000FEFF030000000000FE83
:103C4300FE0F0000000000FEFC1F0000000000FE4D
:103C5300F07F0000000000FEC0FF0000000000FE37
:103C630080FF0300000000FE00FE0700000000FECE
:103C730000FC1F00000000FE00F03F00000000FEFB
:103C830000E0FF00000000FE0080FF03000000FED4
:103C93000000FF07000000FE0000FC1F000000FE04
:103CA3000000F83F000000FE0000E0FF000000FEFF
:103CB300000080FF010000FE000000FF070000FE7F
:103CC300000000FC0FF8FFFFFFFFFFFF3FF8FFFFBF
:103CD300FFFFFFFF3FF8FFFFFFFFFFFF3FF8FFFF7F
:103CE300FFFFFFFF3FF8FFFFFFFFFFFF3FF8FFFF6F
:103CF300FFFFFFFF3FF8FFFFFFFFFFFF3F0000FE57
:103D030000000000000000FE00000000000000FEB4
:103D130000000000000000FE00000000000000FEA4
:103D230000000000000000FE00000000000000FE94
:103D330000000000000000FE000000000000000082
:103D43000000000000008003000000000000F003FA
:103D5300C00100000000FC03C07F00000000FF075B
:103D6300C0FF1F000080FF07C0FFFF0700C0FF0761
:103D7300C0FFFFFF01E0FF07E0FFFFFF0FE0FF01D0
:103D8300E0FFFFFF0FF03F00C0FFFFFF0FF00F004A
:103D930080FFFFFF0FF80700007FE0FF0FF803002D
:103DA30000FE00F80FF8010000FC00E00FFC01002A
:103DB30000FC00E00FFC000000F800E00FFC000036
:103DC30000F801E00FFC000000F801E00FFC000028
:103DD30000F801E00FFC000000F801E00FFC000018
:103DE30000F801E00FFC000000F801E00FFC010007
:103DF30000FC01E00FF8010000FC01E00FF80300F4
:103E030000FE01E00FF8070000FE00E00FF00F00D6
:103E130000FF00E00FF01F00807F00E00FE07F0055
:103E2300E07F00E00FC0FF03FC3F00E00FC0FFFF97
:103E3300FF1F00E00F80FFFFFF1F00E00F00FEFFEA
:103E4300FF0F00E00F00FCFFFF0300E00F00F0FF97
:103E5300FF0100E00F00C0FF7F000000000000FE34
:103E63000F00000000000000000000000000000040
:103E730000000000000000C0FFFF0000000000FE83
:103E8300FFFF3F000000C0FFFFFFFF010000F8FF3E
:103E9300FFFFFF070000FCFFFFFFFF1F0000FFFF06
:103EA300FFFFFF7F0080FFFFFF03FEFF00C0FF0354
:103EB300FC0FC0FF01E07F00E01F00FF03E01F00D5
:103EC300801F00FC07F00F00003F00F007F0070021
:103ED300007E00E00FF80300007E00C01FF8010021
:103EE30000FC00801FF8010000FC00801FFC0000A4
:103EF30000F800803FFC000000F801003FFC0000D8
:103F030000F801003FFC000000F801003FFC000046
:103F130000F801003FFC000000F801003FFC010035
:103F230000FC01003FFC010000FC01803FF803009E
:103F330000FC00803FF8030000FE00C01FF80700EC
:103F430000FF00E01FF01F00807F00F81FF03F001C
:103F5300E07F00FE0FE0FF01FC3F80FF07C0FFFF93
:103F6300FF1F80FF0780FFFFFF0F80FF0300FFFF9E
:103F7300FF0780FF0100FEFFFF03007F0000F8FF43
:103F8300FF01003F0000E0FF3F000007000000FECC
:103F93000700000000000000000000000000000017
:103FA3000000000000000000000000E00F0000001F
:103FB300000000E00F000000000000E00F00000020
:103FC300000000E00F000000000000E00F00000010
:103FD300000000E00F000000000000E00F00000000
:103FE300000000E00FF80100000000E00FF83F00C0
:103FF300000000E00FF8FF03000000E00FF8FF3FB0
:10400300000000E00FF8FFFF010000E00FF8FFFFE2
:10401300070000E00FF8FFFF3F0000E00F00FFFF85
:10402300FF0000E00F00C0FFFF0300E00F0000FCF3
:10403300FF0F00E00F0000C0FF3F00E00F00000093
:10404300FEFF00E00F000000F0FF03E00F000000A0
:10405300C0FF07E00F00000000FE1FE00F0000009C
:1040630000F83FE00F00000000E07FE00F000000D9
:104073000080FFE10F0000000000FEE30F000000DE
:104083000000F8E70F0000000000F0EF0F00000051
:104093000000C0FF0F000000000080FF0F000000C1
:1040A300000000FE0F000000000000FC0F000000F5
:1040B300000000F00F000000000000E00F0000000F
:1040C300000000C00F00000000000000000000001E
:1040D30000000000000080FF010000000000F0FF6E
:1040E3000F0000000000FCFF3F00F8070000FEFF88
:1040F3007F00FE3F0000FFFFFF80FFFF0080FFFF08
:10410300FFC1FFFF01C0FFFFFFE3FFFF03E0FF006D
:10411300FFE3FFFF07F03F00FCF7FFFF07F00F008F
:10412300F0F70FFC0FF80700E0FF03F00FF80300B0
:10413300C0FF01E01FF8030080FF00C01FFC010067
:10414300807F00803FFC0100807F00803FFC0000F7
:10415300003F00003FFC0000003F00003FFC000068
:10416300003F00003FFC0000003F00003FFC000058
:10417300003F00003FFC0000003F00003FFC010047
:10418300807F00803FFC0100807F00801FF80100DA
:10419300C0FF00C01FF80300C0FF01E01FF80700C5
:1041A300E0FF03F00FF00F00F0FF0FFC0FF01F0014
:1041B300FCF3FFFF07E0FF00FFE3FFFF07C0FFFF84
:1041C300FFE1FFFF0380FFFFFFC1FFFF0100FFFFD0
:1041D300FF80FF7F0000FEFF7F00FE3F0000FCFF2B
:1041E3001F00F8070000F0FF0F000000000080FF31
:1041F30001000000000000000000000000000000BB
:10420300000000000000000000E0FF000000E000EC
:1042130000FCFF070000FC0080FFFF1F0000FF0001
:10422300C0FFFF7F0080FF01E0FFFFFF00C0FF0131
:10423300F0FFFFFF01E0FF01F8FFFFFF03F0FF01C5
:10424300FC3FC0FF07F07F00FE0700FE0FF80F00E2
:10425300FE0100F80FF80700FF0000F01FF803004D
:104263007F0000E01FFC01007F0000C01FFC0180F5
:104273003F0000803FFC00803F0000803FFC008047
:104283001F0000003FFC00801F0000003FFC008077
:104293001F0000003FFC00801F0000003FFC008067
:1042A3001F0000003FFC01001F0000003FF8010059
:1042B3003F0000801FF803003F0000801FF8030049
:1042C3003E0000C01FF007007E0000C00FE00F009B
:1042D300FC0000E00FE03F00F80100F807C0FF001A
:1042E300F00700FC0780FF07E03F80FF0300FFFFAC
:1042F300C1FFFFFF0100FEFFFFFFFFFF0000F8FF0C
:10430300FFFFFF3F0000E0FFFFFFFF1F000080FFF4
:10431300FFFFFF07000000FCFFFFFF00000000009D
:10432300FFFF070000000000000000000000000085
:10433300000000000000000000000000000000007A
:104343000000001FCC000C0000000000000000086B
:10435300003000600008003000600000000220030D
:10436300FC1E20022003FC1E20022000000078090E
:10437300FC19041A040B0419FC01FC00000F0010C3
:10438300840F3800C0077818840078000000780F85
:104393008410C411240E9800E40084000808006807
:1043A300007000000000000000000000000000009A
:1043B30000000007E018182004400200000000403D
:1043C300022004181807E000000000000002400269
:1043D3004001800FF0018002400240000000800095
:1043E3008000800FF8008000800080000000010042
:1043F3000D000E000000000000000000000000009F
:104403008000800080008000800080008000000029
:104413000C000C0000000000000000000000000081
:104423000600180060018006001800200000000745
:10443300F0080810041004080807F0000000000842
:104443000408041FFC000400040000000000000E28
:104453000C10141024104411840E0C000000000CE6
:104463001810041104110412880C700000000000DD
:10447300E00320042408241FFC0024000000001F84
:1044830098108411041104108810700000000007B4
:10449300F008881104110418880070000000001C43
:1044A30000100010FC13001C001000000000000EA0
:1044B3003811441084108411440E380000000007A2
:1044C30000088C10441044088807F0000000000026
:1044D300000000030C030C000000000000000000BB
:1044E30000000101060000000000000000000000C1
:1044F300800140022004100808100400000220027A
:1045030020022002200220022002200000000010CE
:104513000408080410022001400080000000000E7F
:10452300001200100C106C10800F00000003E00C50
:104533001813E4142417C4082807D000000004004B
:104543003C03C41C40074000E4001C000410041F8B
:10455300FC1104110411040E880070000003E00C28
:104563001810041004100410081C10000010041F7D
:10457300FC100410041004080807F0000010041FC6
:10458300FC1104110417C410040818000010041FC0
:10459300FC1104110017C010000800000003E00C18
:1045A300181004100410441C780040000010041F6D
:1045B300FC10840080008010841FFC100400001095
:1045C3000410041FFC10041004000000000003008A
:1045D30001100110011FFE10001000000010041F45
:1045E300FC110403801464181C1004000010041F41
:1045F300FC1004000400040004000C000010041F5D
:10460300FC1F0000FC1F001FFC1004000010041F0F
:10461300FC0C04030000E010181FFC100007F00856
:1046230008100410041004080807F0000010041F09
:10463300FC10841080108010800F00000007F00829
:104643001810241024101C080A07F2000010041F7D
:10465300FC1104110011C011300E0C000400000EF7
:104663001C11041084108410441C3800001800101E
:104673000010041FFC100410001800000010001F9D
:10468300F810040004000410041FF8100010001EAA
:104693000011E0001C007013801C0010001FC010EC
:1046A3003C00E01F0000E0103C1FC0000010041895
:1046B3000C163401C001C01634180C100410001C71
:1046C30000130400FC13041C001000000008041075
:1046D3001C1064108413041C041018000000000054
:1046E3000000007FFE400240024002000000003054
:1046F300000C0003800060001C0003000000004069
:1047030002400240027FFE0000000000000078012A
:10471300FC05040A040B0401FC01FC000000780002
:10472300CC05440542094401C4000000000078019F
:10473300FC090412041B040DFC01FC000000000032
:1047430098012401440144014400FC000410001FAB
:10475300FC008801040104008800700000000000D0
:1047630070008801040104010400880000000000B7
:104773007000880104010411081FFC0004000000FC
:10478300F8014401440144014400C8000000000151
:104793000401040FFC1104110411001800000000AF
:1047A300D601290129012901C90106000010041FAE
:1047B300FC008401000100010400FC00040000016E
:1047C30004190419FC0004000400000000000000A8
:1047D3000300010101190119FE0000000010041F6C
:1047E300FC0024004001B4010C010400000000108F
:1047F3000410041FFC000400040000000001040175
:10480300FC0104010001FC0104010000FC0104019E
:10481300FC008401000100010400FC00040000000E
:10482300F8010401040104010400F800000101017E
:10483300FF008501040104008800700000000000EF
:1048430070008801040104010501FF000101040156
:104853000401FC0084010401000180000000000049
:10486300CC0124012401240124019800000000014B
:1048730000010007F8010401040000000001000129
:10488300F8000400040004010801FC000401000115
:10489300800170000C001001600180010001F00133
:1048A3000C003001C00030010C01F00100000001D8
:1048B30004018C00740170018C01040000010101EA
:1048C300810171000E0018016001800100000001E8
:1048D30084010C013401440184010C000000000038
:1048E300000000000001003EFC4002400200000006
:1048F3000000000000FFFF00000000000000004077
:104903000240023EFC0100000000000000000060C5
:1049130000800080004000400020002000000000D4
:104923000000000000000000000000000000000084
:104933000000000000000000000000000000000074
:104943000000000000000000000000000000000064
:104953003FC00C7FFF9E3FC00C0000000000000022
:1049630000000000000000000000003800003F00CD
:10497300003800000000000000003800003F000085
:104983003800000000000000000041000041000763
:10499300FFF807FFF80082000082000082000FFF8B
:1049A300F00FFFF00104000104000000000001E02B
:1049B3000007F8018C1803100C03300C01A00C0144
:1049C300900801981803BFFC00000C0000000000D1
:1049D300000F800C1FC0382020E02021801FC7005B
:1049E3000F9CF80071FC00C2020382020E01FC1846
:1049F30000F80000000007F00F1FF811E00C206022
:104A03000420B804210E0C1E03880001D800007096
:104A130000027800038C0002040000000000000084
:104A230000000000000000003C00003F80003C004C
:104A33000000000000000000000000000000000073
:104A430000000000000000000000000001FF8007DC
:104A5300FFE01E007830000C4000028000010000DF
:104A63000000000080000140000230000C1E0078AE
:104A730007FFE001FF8000000000000000000000CD
:104A8300000000000001818001C38000C3000024F6
:104A9300000600600FC3F006006000240000C3009E
:104AA30001C38001818000000000000000180000A5
:104AB300180000180000180001FF8001FF80001893
:104AC300000018000018000018000000000000009B
:104AD30000000000000000003100007B00007E00A9
:104AE300003C000000000000000000000000000087
:104AF3000000000000180000180000180000180053
:104B0300001800001800001800001800001800002A
:104B1300180000000000000000000000000000007A
:104B23001800003C00003C000018000000000000DA
:104B330000000000000000000000000C000038002E
:104B430000E0000380000E0000380000E000038056
:104B5300000E000038000060000000000000FF00AD
:104B630003FFC00F00F01C003830000C200004309D
:104B7300000C1C00380F00F003FFC000FF00000012
:104B830000000000080000080004180004180004D6
:104B93003FFFFC3FFFFC0000040000040000040092
:104BA300000000000006001C0F007C1F00FC300109
:104BB300CC20030C20060C200C0C30180C18700CA5
:104BC3000FE00C07803C0000000000300C00781E52
:104BD300007C1E000C3010042010042038043068C0
:104BE3000C18CC181F87F80F03F000000000018099
:104BF300000780001C8000708001C0800700841CB7
:104C030000843FFFFC3FFFFC0000840000840000A1
:104C1300800000303FF8783FF07C30100C302004E7
:104C230030400430400430600C303838301FF0001E
:104C330007C000000003FFC00FFFF01C1038302036
:104C43000C2040042040043040043E600C1E3838E1
:104C53000C1FF00007C00000001E000038000030E9
:104C630000003000003001FC300FFC303E0030F01B
:104C7300003380003E00003800000000000003E025
:104C83000F07F01F8C1830D80C207004203004203C
:104C9300700430D80C1F8C180F07F00003E00000DD
:104CA3000003E0000FF8301C1C7830067C20020C57
:104CB30020020420020430040C1C08380FFFF00308
:104CC300FFC0000000000000000000000000000022
:104CD3000001818003C3C003C3C0018180000000C1
:104CE30000000000000000000000000000000000C1
:104CF300000000000001818803C3D803C3F00181D1
:104D0300E0000000000000000000000000000800B8
:104D1300001C0000360000630000C1800180C00356
:104D230000600600300C001818000C10000400008E
:104D33000000000000C30000C30000C30000C30064
:104D430000C30000C30000C30000C30000C3000091
:104D5300C30000000010000418000C0C001806002B
:104D6300300300600180C000C18000630000360092
:104D7300001C000008000000000000000600000FF7
:104D830000001E000030000020000C200F9E203881
:104D93000C30E0001FC0000F000000000007FFE020
:104DA30008001010FF0821FF8423018422018422BC
:104DB300010423FF0411FF8408008807FF1000008B
:104DC3000000000400007C000FFC00FF040FC20081
:104DD3003002003C02000FC20000FF04000FFC0081
:104DE300007C0000042000043FFFFC3FFFFC201078
:104DF3000420100420100430380418680C0FCE3837
:104E03000787F00001C000000003FFC00FFFF01C84
:104E1300003830000C20000420000420000430007F
:104E23000C1800181C00703E0060000000200004F5
:104E33003FFFFC3FFFFC200004200004200004305F
:104E4300000C1800180E007007FFE001FF8000003F
:104E5300002000043FFFFC3FFFFC2010042010044F
:104E630020100420380420FE0430000C38001C3EBF
:104E7300007C0000002000043FFFFC3FFFFC2010EB
:104E83000420100020100020380020FE0030000015
:104E93003800003E000000000003FFC00FFFF01CBD
:104EA300003830000C20000420000C3000181010D3
:104EB30030181FFC3E1FFC001000000000200004FF
:104EC3003FFFFC3FFFFC2010040010000010000017
:104ED30010002010043FFFFC3FFFFC2000040000F3
:104EE3000000000000000000000020000420000477
:104EF3002000043FFFFC3FFFFC20000420000420AF
:104F030000040000000000700000F80000EC000046
:104F13004400000420000C20000C3FFFF83FFFF08A
:104F23002000002000000000002000043FFFFC3FA1
:104F3300FFFC201E0400780001FE002787803E014D
:104F4300E438007C20001C2000040000042000043E
:104F53003FFFFC3FFFFC20000400000400000400AE
:104F6300000400000400000C00001C00007C000092
:104F7300002000043FFFFC3FFFFC03E004003C0073
:104F8300000780000780003C0003E0043FFFFC3F74
:104F9300FFFC2000042000043FFFFC3FFFFC0780D0
:104FA3000400E000003800000E002003C03FFFF0C3
:104FB3003FFFFC20000000000007FFE00FFFF01898
:104FC300001830000C2000042000042000043000EE
:104FD3000C1800180FFFF007FFE00000002000048A
:104FE3003FFFFC3FFFFC200804200800200800309E
:104FF30018001010001C70000FE000038000000078
:105003000007FFE00FFFF018001830000C200044E9
:1050130020006420003430001818000C0FFFFE0736
:10502300FFF20000022000043FFFFC3FFFFC2010C2
:1050330004201C00201F003033C01860F41FE03C24
:1050430007800C0000040000000F00FC1F80781193
:10505300C03030E01820700C203804301C04180EC7
:105063000C1C07183E03F00001E00000003E0000A6
:105073003800003000002000042000043FFFFC3F04
:10508300FFFC2000042000043000003800003E0034
:10509300002000003FFFF03FFFF820000C00000459
:1050A30000000400000420000C3FFFF83FFFF02045
:1050B30000000000002000003F00003FFC0020FF34
:1050C300C00003F800003C0003F820FFC03FFC00D1
:1050D3003F00002000000000002000003FC0003F10
:1050E300FFC02001FC00003C003FC0003FC00000A7
:1050F3003C2001FC3FFFC03FC00020000020000413
:1051030038001C3E007C2781E401E780007E00001C
:105113007E0001E7802781E43E007C38001C2000EC
:10512300042000003800003F000027E00400F804DA
:10513300001FFC001FFC00F80427E0043F000038B8
:1051430000002000003E003C3800FC3003C4200F68
:1051530004203C0420F00423C0042F00043C000C72
:1051630038001C00007C000000000000000000006C
:105173000000000000000000FFFFFF80000180002E
:105183000180000180000180000100000060000038
:105193003800000E000003800000E000003800002B
:1051A3000E000003800000E000003800000C000047
:1051B30000000000800001800001800001800001E8
:1051C300800001FFFFFF000000000000000000005E
:1051D30000000000000001E00007F8000C18009038
:1051E3000C01B00C01A00C011008011818003FFCC1
:1051F30000000C0000000000000000000007E000B9
:105203001FF000943001A41801A40801240802240B
:1052130008001C10000C200000000000000000002B
:10522300000000400000C00000E00000600000201B
:10523300000030000010000010000000000000001B
:10524300000010780038F800798C00510400430402
:1052530000420400420C006208003FF8001FFC00FB
:1052630000040000002000043FFFFC3FFFF8003073
:105273001800600C00400400400400600C00383843
:10528300001FF00007C00000000007C0001FF0006F
:10529300383800600C0040040040040040040068FB
:1052A30004003C0C003C180018100000000007C06C
:1052B300001FF000383800600C0040040040040078
:1052C300400400600C2030183FFFF83FFFFC000053
:1052D300000007C0001FF000393800610C004104D2
:1052E30000410400410400610400390C001F180050
:1052F30007100000000040000040040040040FFFBE
:10530300FC1FFFFC30400420400420400038000014
:105313003C0000180000000000001C3C003EFE00A2
:1053230063C3004141004161004121006321003E0C
:1053330031003C3300601E00600C000000200004BC
:105343003FFFFC3FFFFC001804003000006000003A
:105353004000006004003FFC001FFC00000400004C
:10536300000000000000000000000040041840049A
:105373003C7FFC3C7FFC180004000004000000009C
:10538300000000000000000C00001E00001F0000D1
:10539300090000011840013C40033C7FFE187FFCDC
:1053A3000000000000000000002000043FFFFC3F5D
:1053B300FFFC000304000600000F00005BC0007048
:1053C300F400603C00400C004004000000000000BA
:1053D3000000000000002000042000043FFFFC3F09
:1053E300FFFC0000040000040000000000000000B7
:1053F30000004004007FFC007FFC002004006000EC
:10540300007FFC003FFC006004006000007FFC00A4
:105413003FFC000004004004007FFC007FFC0018F8
:1054230004003000006000004000006004003FFC06
:10543300001FFC0000040000000007C0001FF00074
:10544300383800600C004004004004004004006051
:105453000C003838001FF00007C0000000004001B6
:10546300007FFF007FFF00306100603000401000CC
:1054730040100060300038E0001FC000070000004B
:1054830000000700001FC00038E00060300040103B
:10549300004010006030003061003FFF007FFF00DC
:1054A3000001000000004004007FFC007FFC0018A6
:1054B300040030000060000040000040000078005D
:1054C300003800001000000000001C38003E1800E7
:1054D300660C00430400430400410400418400615E
:1054E300840030CC0038F800007000000000400059
:1054F30000400000400007FFF00FFFF800400C00E1
:10550300400400400400400C00403800003000001C
:1055130000004000007FF0007FF800000C00000452
:1055230000000C000018004030007FFC007FFC00EE
:105533000004000000004000007000007E00004FE7
:10554300C00001F800003C0001F8004FC0007E00DD
:10555300007000004000000000004000007C0000DC
:105563007FC00043FC00007C000FC0000FC00000A0
:105573007C0043FC007FC0007C000040000040042E
:1055830000701C00783C004C640007C000038000DE
:1055930007C0004C6400783C00701C00400400000D
:1055A30000004006006007007801005E01000787E5
:1055B3000001FE0001F8004FC0007E0000700000F3
:1055C300400000000000001C00703C0040640040EC
:1055D300C4004184004304004604004C0400580402
:1055E30000700C00603C00000000000000000000A0
:1055F3000000001800003C003FE7FC7FC3FEC00032
:105603000380000180000180000100000000000011
:10561300000000000000000000000000FFFFFFFF8B
:10562300FFFF000000000000000000000000000079
:1056330000000000800001800001800001C0000321
:105643007FC3FE3FE7FC003C0000180000000000A1
:1056530000000000000008000018000030000020D7
:1056630000003000001000000800000C00000400DF
:10567300000C00001800001000000300000F0000E1
:10568300390000E1000381000E010003810000E105
:1056930000003900000F0000030000000007FFF8BE
:1056A3001FFFE00000FFFF7BEF001FF98B81C007A6
:1056B300E0F210E709F608DFFA8046E709F208DFAF
:1056C300FA803E88828C83E709F0A3DFFA8032E315
:1056D30009F608DFFA8078E309F208DFFA807088B8
:1056E300828C83E309F0A3DFFA806489828A83E0F2
:1056F300A3F608DFFA805889828A83E0A3F208DFE1
:10570300FA804C80D280FA80C680D4806980F2808F
:1057130033801080A680EA809A80A880DA80E280B5
:10572300CA803389828A83ECFAE493A3C8C582C80A
:10573300CCC583CCF0A3C8C582C8CCC583CCDFE974
:10574300DEE7800D89828A83E493A3F608DFF9EC10
:10575300FAA9F0EDFB2289828A83ECFAE0A3C8C59B
:1057630082C8CCC583CCF0A3C8C582C8CCC583CCC2
:10577300DFEADEE880DB89828A83E493A3F208DF31
:10578300F980CC88F0EF60010E4E60C388F0ED2401
:1057930002B4040050B9F582EB2402B4040050AF04
:1057A300232345822390570673BB010689828A838C
:1057B300E0225002E722BBFE02E32289828A83E4CD
:1057C3009322BB010CE58229F582E5833AF583E058
:1057D300225006E92582F8E622BBFE06E92582F877
:1057E300E222E58229F582E5833AF583E49322BB3D
:1057F300010689828A83F0225002F722BBFE01F35D
:1058030022F8BB010DE58229F582E5833AF583E8A9
:10581300F0225006E92582C8F622BBFE05E925825F
:10582300C8F222EF8DF0A4A8F0CF8CF0A428CE8D7F
:10583300F0A42EFE22BC000BBE0029EF8DF084FFE6
:10584300ADF022E4CCF875F008EF2FFFEE33FEEC59
:1058530033FCEE9DEC984005FCEE9DFE0FD5F0E980
:10586300E4CEFD22EDF8F5F0EE8420D21CFEADF07F
:1058730075F008EF2FFFED33FD4007985006D5F084
:10588300F222C398FD0FD5F0EA22C2D5EC30E70926
:10589300B2D5E4C39DFDE49CFCEE30E715B2D5E43C
:1058A300C39FFFE49EFE125838C3E49DFDE49CFCB5
:1058B300800312583830D507C3E49FFFE49EFE22CD
:1058C300C5F0F8A3E028F0C5F0F8E5821582700270
:1058D3001583E038F022EF2BFFEE3AFEED39FDECB5
:1058E30038FC22C3EF9BFFEE9AFEED99FDEC98FC8A
:1058F30022E88FF0A4CC8BF0A42CFCE98EF0A42C2E
:10590300FC8AF0EDA42CFCEA8EF0A4CDA8F08BF079
:10591300A42DCC3825F0FDE98FF0A42CCD35F0FC77
:10592300EB8EF0A4FEA9F0EB8FF0A4CFC5F02ECD43
:1059330039FEE43CFCEAA42DCE35F0FDE43CFC2228
:1059430075F008758200EF2FFFEE33FECD33CDCC1B
:1059530033CCC58233C5829BED9AEC99E58298409E
:105963000CF582EE9BFEED9AFDEC99FC0FD5F0D67B
:10597300E4CEFBE4CDFAE4CCF9A88222B800C1B9A5
:105983000059BA002DEC8BF084CFCECDFCE5F0CBE3
:10599300F97818EF2FFFEE33FEED33FDEC33FCEB1C
:1059A30033FB10D703994004EB99FB0FD8E5E4F9D7
:1059B300FA227818EF2FFFEE33FEED33FDEC33FCC4
:1059C300C933C910D7059BE99A4007EC9BFCE99AB8
:1059D300F90FD8E0E4C9FAE4CCFB2275F010EF2FFD
:1059E300FFEE33FEED33FDCC33CCC833C810D707FD
:1059F3009BEC9AE899400AED9BFDEC9AFCE899F838
:105A03000FD5F0DAE4CDFBE4CCFAE4C8F922EF5B7E
:105A1300FFEE5AFEED59FDEC58FC22EF4BFFEE4A28
:105A2300FEED49FDEC48FC22CFF4CFCEF4CECDF40D
:105A3300CDCCF4CC22EB9FF5F0EA9E42F0E99D42F7
:105A4300F0EC6480C864809845F022EB9FF5F0EA9F
:105A53009E42F0E99D42F0E89C45F022E8600FEC9D
:105A6300C313FCED13FDEE13FEEF13FFD8F122E891
:105A7300600FEFC333FFEE33FEED33FDEC33FCD8A1
:105A8300F122E0FCA3E0FDA3E0FEA3E0FF22E0F8A7
:105A9300A3E0F9A3E0FAA3E0FB22ECF0A3EDF0A36B
:105AA300EEF0A3EFF022A8828583F0D083D0821298
:105AB3005AC0125AC0125AC0125AC0E473E493A3D4
:105AC300C583C5F0C583C8C582C8F0A3C583C5F027
:105AD300C583C8C582C822A42582F582E5F0358333
